:020000040800F2
:10680000004002200D6F0008A96E0008AB6E000862
:106810000000000000000000000000000000000078
:10682000000000000000000000000000AD6E000845
:106830000000000000000000AF6E0008B16E00080C
:106840005D6F00085D6F00085D6F00085D6F0008F8
:106850005D6F00085D6F00085D6F00085D6F0008E8
:10686000B96E00085D6F00085D6F00085D6F00087D
:106870005D6F00085D6F00085D6F00085D6F0008C8
:106880005D6F00085D6F00085D6F00085D6F0008B8
:106890005D6F00085D6F00085D6F00085D6F0008A8
:1068A0005D6F00085D6F00085D6F00085D6F000898
:0C68B0005D6F00085D6F00085D6F000860
:1068BC0010B5064C2378002B07D1054B002B02D0CA
:1068CC00044800E000BF0123237010BD60010020CC
:1068DC0000000000B4AE0008044B10B5002B03D030
:1068EC000349044800E000BF10BDC0460000000092
:1068FC0064010020B4AE00080023C25C0133002AFE
:10690C00FBD1581E7047000002B47146490849007B
:10691C00095649008E4402BC7047C04602B4714609
:10692C0049084900095C49008E4402BC7047C046C6
:10693C0003B47146490840004900095E49008E4481
:10694C0003BC704703B47146490840004900095A1A
:10695C0049008E4403BC7047002243088B4274D319
:10696C0003098B425FD3030A8B4244D3030B8B4244
:10697C0028D3030C8B420DD3FF22090212BA030C4D
:10698C008B4202D31212090265D0030B8B4219D32E
:10699C0000E0090AC30B8B4201D3CB03C01A52414E
:1069AC00830B8B4201D38B03C01A5241430B8B4296
:1069BC0001D34B03C01A5241030B8B4201D30B037F
:1069CC00C01A5241C30A8B4201D3CB02C01A5241A6
:1069DC00830A8B4201D38B02C01A5241430A8B4269
:1069EC0001D34B02C01A5241030A8B4201D30B0252
:1069FC00C01A5241CDD2C3098B4201D3CB01C01A6C
:106A0C00524183098B4201D38B01C01A5241430975
:106A1C008B4201D34B01C01A524103098B4201D363
:106A2C000B01C01A5241C3088B4201D3CB00C01AD0
:106A3C00524183088B4201D38B00C01A5241430848
:106A4C008B4201D34B00C01A5241411A00D201466D
:106A5C00524110467047FFE701B5002000F006F8E0
:106A6C0002BDC0460029F7D076E770477047C04694
:106A7C00EFF3108372B6034A0349916083F31088D5
:106A8C0062B6704700ED00E000680008002110B508
:106A9C00034B04481860596000F0FEFA10BDC04664
:106AAC0000000020A5A5A5A530B50D4B0D4C87B059
:106ABC001C60257963782278059565790A480495D8
:106ACC00A5790A490395E5790295E5780195A478AD
:106ADC000094040003F042FD200007B030BDC04616
:106AEC00A4010020F02F01007C010020CCAE000896
:106AFC00074B58689A68801A064A5268520106D5A4
:106B0C005A68121A0F2A02DD5B6801331818704795
:106B1C0010E000E000ED00E070470000F8B5EFF386
:106B2C00108472B6FFF7E4FFC71739000A4B0B4D00
:106B3C001A685B68801859412A686B688B4202DCC2
:106B4C0006D1824204D92868696884F31088F8BD9C
:106B5C0028606960F9E7C046A8010020C001002048
:106B6C00114B70B51C6811492000FFF7F5FEFA2196
:106B7C000F4B890018602000FFF7EEFE0D4B1860DC
:106B8C00EFF3108572B6FFF7C9FF02000B000A4C39
:106B9C0022606360FFF7C2FF22686368074B801AAC
:106BAC00186085F3108870BD1000002040420F0063
:106BBC000C00002008000020C8010020B8010020B3
:106BCC0010B5EFF3108272B6002806D10D4B0E49AA
:106BDC001860596007219860196080210B4B89045B
:106BEC00596082F31088FFF7BBFF002000210022C0
:106BFC00074B18605960074B1A60074B1A60FFF778
:106C0C008BFF10BD10E000E0FFFFFF0000ED00E087
:106C1C00A8010020B4010020B001002010B5012013
:106C2C00FFF7CEFF10BD00000F48104B102210B51F
:106C3C0002210360002342610F3A43608360C3600A
:106C4C00038283748261C161016242628262C262A8
:106C5C00026343638363C36300F046FA002801D0E8
:106C6C0000F000F910BDC046D001002000640040C7
:106C7C0010B504009AB01422002102A803F08EFC77
:106C8C004C22002107A803F089FC174B22689A427A
:106C9C0028D1802307A89B04079301F085FD0028C9
:106CAC0001D000F0DFF88021104B4901DA6B10485D
:106CBC000A43DA63DA6B0A400092009A0222596B9B
:106CCC00114359635B6B02A913400193019BC023D1
:106CDC009B000293002304930593033303920693C2
:106CEC0000F012FB1AB010BD00640040001002400E
:106CFC000004005030B589B01422002103A803F021
:106D0C004DFC20210124A025144BED055A6B2800C5
:106D1C000A435A635A6B0A400092009A5A6B1E3906
:106D2C0022435A635A6B22400192019A5A6B0A43CE
:106D3C005A635B6B00220B4002930531029B00F0FF
:106D4C009BFB072303930023280003A904940593BA
:106D5C00069300F0D9FA09B030BDC04600100240CD
:106D6C0010B594B03C22002105A803F017FC1022AA
:106D7C00002101A803F012FC8020800001F0AAF988
:106D8C002123059380235B0206938023DB030C9362
:106D9C0003230E9300230F930F33109380239B0236
:106DAC001193E0231B051293C0230224DB0505A8D5
:106DBC000D94139301F0BAF9002801D072B6FEE7D6
:106DCC00072303900490210001A80193029401F081
:106DDC003DFC002801D072B6FEE714B010BD0000D7
:106DEC0070B5FA2688B0A025FFF742FE002400F00B
:106DFC00D9F8FFF7B5FFFFF77DFFFFF715FF03F09D
:106E0C003DF97600ED051549684603F0FBFB0F21B3
:106E1C00684603F087F9300000F0EAF8FFF744FE0B
:106E2C000F490200684603F099FB81B2684603F0F3
:106E3C0079F9300000F0DCF80221280000F022FB88
:106E4C000121280000F01EFB01340421280000F071
:106E5C0019FB0E2CD7D9FFF719FED4E7F8AE0008B2
:106E6C0008AF000872B6FEE707B501210A4BC02037
:106E7C001A6CC0000A431A641A6C0A4080210092F2
:106E8C00009ADA6B49050A43DA63DB6B0B4001931A
:106E9C00019B00F0BFF807BD00100240FEE7FEE7C3
:106EAC007047704710B500F091F810BD10B502484E
:106EBC0000F08CFB10BDC0463C1900200B490C4A5D
:106ECC000300521A0B4910B50868002801D10A4872
:106EDC0008600868C318934206D903F067FB0C23BB
:106EEC0003600120404210BD0B60FCE70004000071
:106EFC000040022034020020681D00207047000072
:106F0C000D488546FFF7FAFF0C480D490D4A002342
:106F1C0002E0D458C4500433C4188C42F9D30A4A42
:106F2C000A4C002301E013600432A242FBD303F0AD
:106F3C0043FBFFF755FFFEE700400220080000204E
:106F4C005C010020DCAF000860010020641D002003
:106F5C00FEE7000070B5104B05001978002901D12F
:106F6C00012070BDFA208000FFF7F6FC0B4C0100ED
:106F7C002068FFF7F1FC00F09DF8041EF0D1032D02
:106F8C00EED8020001202900404200F04FF8044BDB
:106F9C0020001D60E5E7C046140000201000002012
:106FAC00180000208023084A5B00116810B50B43C1
:106FBC0003201360FFF7CEFF041E03D1FFF754FF2D
:106FCC00200010BD0124FBE700200240034A044BC3
:106FDC0011681B785B1813607047C046380200209C
:106FEC0014000020014B18687047C046380200207E
:106FFC0070B50400FFF7F6FF0500631C02D0044BCC
:10700C001B78E418FFF7EEFF401BA042FAD370BDCB
:10701C0014000020034A044913680B400343136017
:10702C007047C04600000140FFF9FFFF10B5FF2478
:10703C0003220B0021000240D20091409B0123400F
:10704C00C943934000280ADBC0240B4A8008800007
:10705C008018A40002590A401343035110BD0F229B
:10706C0010400838054A800880008018C269114019
:10707C001943C161F2E7C04600E100E000ED00E019
:10708C00002805DB1F2318401E3B8340014A136078
:10709C007047C04600E100E0BFF34F8F034B044A3A
:1070AC00DA60BFF34F8FC046FDE7C04600ED00E04D
:1070BC000400FA058022431E5204012093420DD293
:1070CC00C021074A07485360036A09061B021B0AC2
:1070DC000B43036200200723906013607047C04687
:1070EC0010E000E000ED00E0F8B5041E00D1CCE0AB
:1070FC0005005C352B78DAB2002B04D103005D332C
:10710C001A70FFF7B5FD10212268082793698B438D
:10711C009361FFF767FF060023689A693A4200D033
:10712C00A7E001269A6932439A61FFF75BFF0700DB
:10713C0023689A69324200D1A9E0022299690A4374
:10714C009A61674A934202D16168664A1160217C58
:10715C004022012900D0A3E0996991439961627C96
:10716C00012A00D0A0E080229969D2010A439A61D9
:10717C00A27C012A00D09BE09A695B490A409A6183
:10718C009A695A48A1680240A4200A439A619A69F4
:10719C0082439A611A69943882431A61E268012A1F
:1071AC0000D08AE09869033202439A61A269E069CF
:1071BC00013A0138000252060243206A01380243A8
:1071CC006069013800040243DA61C02292009142E6
:1071DC000ED1E26A216B013A0139090112020A430C
:1071EC00A16A01390A43616A013909040A43DA6068
:1071FC001900C0310A68E06B3D4E02430A603D4AFB
:10720C009818421E90413C4A404210403B4A04337D
:10721C00D96F8018626B314012040A432064DA671C
:10722C0002007032D96F6264354EA26B3140120687
:10723C000A43DA670300B033A364D833E3649823BA
:10724C009B00C31823659E239B00C3186365D4233E
:10725C009B00C118031DD422994200D2D33A0021BD
:10726C00920003F09BF900200123A06520662B708F
:10727C000CE0FFF7B7FE801B0A2800D84CE701236F
:10728C00226E1343236603232B700120F8BDFFF7F6
:10729C00A9FEC01B0A2800D84AE7236E3343F1E746
:1072AC0099690A439A615AE79A6916490A405EE756
:1072BC008022996952010A4361E7002A00D175E7DF
:1072CC00022A09D080269F693E439E611E69304385
:1072DC001861032A00D069E72022986964E7C04648
:1072EC000064004000650040FFEFFFFFFFFCFFFF64
:1072FC00FFFFE0FF0098FFBFB0FCFFFF50B700405E
:10730C00FFFFFFF0FFBFFFFF0023F0B585B00A6859
:10731C001400DC4001D105B0F0BD012514009D40E6
:10732C002C4000942A4200D195E04A685F009446B4
:10733C000322644622400324BC40E4430194541EBF
:10734C00012C2ED88668019C2640CC68BC40344366
:10735C00846044680126AC4325006446240934400B
:10736C009C402C434460C568019C25408C68BC4003
:10737C002C43C460022A16D107250F261D40AD00F0
:10738C00AE40DC08A40004190294246A039626007B
:10739C00039CA64334000E69AE402643029C266231
:1073AC0001E0032ADFD1BA400468019D25402A433D
:1073BC00C02402606246A40222424CD0274A032514
:1073CC009C08A400A4180F221D40ED00AA40A02781
:1073DC00266EFF0596430022B84210D0204F013292
:1073EC00B8420CD01F4F0132B84208D01E4F0132A8
:1073FC00B84204D01D4A8218571EBA410432AA4022
:10740C00674632432266154C009A2668009DD2438B
:10741C003543FF0201D43500154067462560666888
:10742C00009D3543BF0201D43500154067466560A9
:10743C000F4C009DE66F3543BF0301D4350015405A
:10744C006746E5670B4C009EE56F2E43FF0301D4A6
:10745C0015402E00E667013359E7C046001802407C
:10746C000004005000080050000C005000F0FFAF6A
:10747C000818024004180240002A01D081617047AC
:10748C008162FCE7426913000B401B0491430B43E0
:10749C00836170470A2382B00193019B002B07D1B3
:1074AC00054BC000C01800688001800D02B0704709
:1074BC00019B013BF0E7C046009800400A2382B0D4
:1074CC000193019B002B07D1054BC000C0184068ED
:1074DC008001800D02B07047019B013BF0E7C04674
:1074EC000098004073B504000120002C2FD0244DCF
:1074FC00635DDAB2002B05D1A5239B002000E2547A
:10750C0002F0B2FE03236355206801F0A7FA0023B2
:10751C0022001900012620791432984218D100213A
:10752C00220008005532FF328B421BD16B46227C65
:10753C001A70E3686168A268206801F097FA00236A
:10754C00637401336355237B012B15D0002076BD6A
:10755C00137001335670D170116151619161DBB2BE
:10756C002832DAE7117001315070D070106150611F
:10757C009061C9B22832D7E7200000F08EFDE5E714
:10758C009502000070B5A525AD00435D04000220F6
:10759C00012B09D001236355206801F057FA2068AC
:1075AC0001F04EFC0020605570BD70B5A525AD00F6
:1075BC00435D04000220012B07D001236355206892
:1075CC00617401F037FC0020605570BDF0B504000B
:1075DC0087B0006801F03BFC0422C84B1B681342C7
:1075EC000DD0802580232D021B020540184200D1AE
:1075FC00B8E3802226681202736C134201D107B0E3
:10760C00F0BD0F22736C1A4000920F22134200D06F
:10761C00A2E0190001321140134221D13368B84A5B
:10762C00200013408022120213433360237DB54A9D
:10763C00DB009B181B68A26A9B019B0D2363D3186C
:10764C00A36202F06CFE637C002BD2D0E26A21684C
:10765C00002ACED18020637C0343CB646274C8E7DC
:10766C00336880221F001201174013421BD0AA233B
:10767C005B00E05CFFF722FF2200A7215532FF32AE
:10768C0089000300D06161183000D28801F010FE2F
:10769C0021689D4B0A6820001A40802313430B601D
:1076AC0002F028FEA5E71B04A3D53268964B2500F3
:1076BC001A40802313433360AA235B00E05CFFF77E
:1076CC00FDFE5535FF35031EE8610ED069690029B2
:1076DC000BD03000EA8801F0EBFD6B69EA693900E8
:1076EC009B1820006B6102F00EFE206803681A05DF
:1076FC0000D57EE7C02292011340934200D178E777
:10770C00804B5A68920192095A602A693E2A16D90E
:10771C001F2551092A4055426A41891A5A6889061F
:10772C001143802212060A435A600368774A1340B9
:10773C00C02292015A40764B1343036059E7002A4A
:10774C0001D15968EDE7012551082A4089185A687A
:10775C00890611435960E8E7009B9B000493F318DA
:10776C001A6803926A4692890192039A120400D411
:10777C0082E01968644A2825114080220A431A6065
:10778C00009B5D4365192B002A006133FF331B7886
:10779C005532FF32002B0CD11078FFF78FFE071EED
:1077AC004FD02B005B33FF33FC351A88E96E3B005E
:1077BC0044E0137802932B005833FF331B78022BD1
:1077CC0000D0DAE08023019ADB011A400592019A7D
:1077DC000298FC351A4200D1A0E0FFF75BFE2A6F3D
:1077EC000300070082420ED200222A67029A474801
:1077FC009200B21811680140802080014840444931
:10780C000143116002E0121A2A67EFD0019A520666
:10781C0008D5029A3F499200B218106808403E49B8
:10782C0001431160002B0CD02821009A51436118A0
:10783C000A005D32FF32FC311288C96E300001F053
:10784C0037FD2823009959436218FC32506FC01938
:10785C005067D06EC019D066106F002803D0926E9E
:10786C00974200D3A8E0009A20005343E318553305
:10787C00FF33197802F047FD23680293039B1B0624
:10788C0000D4B6E6029A049B944663441A681C49D9
:10789C000A40802109020A431A602823009959439F
:1078AC006618F27D012A00D0B5E0009A01325343EC
:1078BC000022E3185A60731CDB7F934214D0039BA5
:1078CC005B0600D48AE0737D934200D07BE0337D6D
:1078DC000C4ADB009B181A68920192091A608022EC
:1078EC00196812060A431A602823009A5343E318B6
:1078FC00197D200002F013FD7BE6C046A00001407C
:10790C000F8FFF07009800408F0FFF078FBFFF07F7
:10791C00808000008F8FFF07C0800000FFF7CEFD36
:10792C002A6F0300070082420ED2059A2A67029A38
:10793C00D2489200B2181168014080208001484062
:10794C00CF490143116002E0121A2A67EFD0019A65
:10795C00520608D4029ACB499200B218106808401B
:10796C00C94901431160002B00D16AE72821009A14
:10797C00514361180A005F325CE7029BC1499B00CE
:10798C00F31818680840C049014319601078830047
:10799C00F3181B685B0407D5FFF77CFD071E00D1AD
:1079AC004FE72B005D33FEE6FFF788FD071E00D185
:1079BC0047E72B005F33F6E65531FF31206861183D
:1079CC0001F07CFA58E7012B8ED1337DAF4ADB00F6
:1079DC009B181A6892B21A601A6884E7737D002BA0
:1079EC000DD1337DA94ADB009B185A68920192098C
:1079FC005A608022596812060A435A6074E7012BB8
:107A0C0000D071E7337DA14ADB009B185A6892B213
:107A1C005A605A68F1E780230398039A5B00357D1E
:107A2C0018401A4219D1994AEB009B181B68F26A4C
:107A3C009B019B0D9A4202D82900F06259E7D21A99
:107A4C00F262B26A1431D218B262326B0298D31855
:107A5C003363611801F032FACBE54023019F019AA0
:107A6C0028001F401A4200D1B7E0FFF713FDF26A5D
:107A7C000023824200D9131A8022019FD201F362A3
:107A8C001740002B3FD1009A28335343E3185B7DFA
:107A9C00002B28D180217D4AEB009B181A6809061F
:107AAC00920192091A601A680A431A605A68920184
:107ABC0092095A605A68114359602900200002F05B
:107ACC002EFC002F00D1B7E02823009A5343E31873
:107ADC001A7D236892009B1819686A4A11406C4AF7
:107AEC000A431A60A8E0012BE7D1684AEB009B1807
:107AFC001A6892B21A601A681A605A6892B25A607E
:107B0C005A685A60D9E7002F08D0029AAB00D318F4
:107B1C0019685C4A11405E4A0A431A602822009B8D
:107B2C005A43A218170038373B78012B00D083E05A
:107B3C00916A09189162336B1B183363566B536A45
:107B4C009E4228D3F61A5663282200984243A21864
:107B5C00527D002A36D14D4AED00AD182A689201AB
:107B6C0092092A603E2B20D91F20184046427041B2
:107B7C005A09121A28689206024380200006024312
:107B8C002A60282200989BB24243A218928B02983A
:107B9C0001F060F950E0002E02D103003E70D3E7F3
:107BAC0000233B7053633300CEE7002B03D18022BC
:107BBC0028681206E3E701205A08184012189206AA
:107BCC002868DCE7012ADCD1304AED00AD182A68C0
:107BDC0092B22A6028681A04D1E7FFF76FFCF26AA8
:107BEC003B00824200D3131A8022019FD201F36220
:107BFC001740002B50D1009A28335343E3185B7D78
:107C0C00002B2AD18021214AEB009B181A68090607
:107C1C00920192091A601A680A431A605A68920112
:107C2C0092095A605A68114359602900200002F0E9
:107C3C0076FB002F00D147E72823009A15495343C0
:107C4C00E3181A7D236892009B181A680A403021A9
:107C5C0051400B4A0A431A60CBE4012BE5D10B4A85
:107C6C00EB009B181A6892B21A601A681A605A686C
:107C7C0092B25A605A685A60D7E7C0468FBFFF0766
:107C8C00808000008F8FFF07C080000000980040AC
:107C9C0080C00000BF8FFF07002F08D1029AAB00F5
:107CAC00D3181968714A1140714A0A431A60282284
:107CBC00009B5A43A218170038373B78012BBBD1D5
:107CCC00916A09189162336B1B183363566B536AB4
:107CDC009E4225D3F61A5663282200984243A218D6
:107CEC00527D002A33D1634AED00AD186A689201C7
:107CFC0092096A603E2B1DD91F20184046427041E4
:107D0C005A09121A68689206024380200006024340
:107D1C006A60282200989BB24243A218D28B36E7A5
:107D2C00002E02D103003E70D6E7002353633B7054
:107D3C003300D1E7002B03D1802268681206E6E7F6
:107D4C0001205A081840121892066868DFE7012AC9
:107D5C00DFD1484AED00AD186A6892B26A60686873
:107D6C001A04D4E743050CD522684349536C200010
:107D7C000B40536402F0E5FA29002000FFF715FCD4
:107D8C003DE4430405D522683C49536C0B405364D5
:107D9C0035E4802301009B011940184203D022686E
:107DAC003749536CF2E7C30417D52368186C90431A
:107DBC00186408201A6C82431A64B3239B00E25C9B
:107DCC00012A03D12000E15402F09AFB200002F0BA
:107DDC00DBFA22682B49536CD8E7030510D5082130
:107DEC002368186C01431964596C27480140596485
:107DFC00196C0A431A64200002F0B4FAFFF7FFFB77
:107E0C0003061ED523682148596C0140B3205964E0
:107E1C008000215C0029EED1196C0A431A640822F7
:107E2C00196C0A4301211A643C2221545B6D200019
:107E3C009B081340B4229200A35002F061FBFFF7A1
:107E4C00DEFB830509D522681149536C20000B40D9
:107E5C00536402F06FFAFFF7D2FBC00501D4FFF7B1
:107E6C00CEFB22680B49536C90E7C0468F8FFF07FF
:107E7C0080C0000000980040FFFB0000FFBF000026
:107E8C00FFDF0000FFEF0000FFF700007FFF0000A6
:107E9C00FFFD0000FFFE000070B5040007200D0080
:107EAC000840282141436DB26618002D18DA0125CF
:107EBC0014316118757508700A61CB70022B01D1F1
:107ECC0000230B71A525AD00635D0220012B06D0AC
:107EDC0001236355206800F0DFFD0020605570BD64
:107EEC00002555315636FF31FF3661183570E2E703
:107EFC0007220B000A40282151435BB270B50400E5
:107F0C004018002B12DA0123143161184375A52592
:107F1C000A70AD00635D0220012B06D0012363556E
:107F2C00206800F0BFFE0020605570BD0023553165
:107F3C005630FF31FF3061180370E8E7F8B50724BD
:107F4C00214021344C4306193700FC373B67330082
:107F5C000025563355365534FF33FF36FF347D67D5
:107F6C00FA661D7031700119006800F0A7FF280037
:107F7C00F8BD07230B40282159434018FC30406FB3
:107F8C00704770B50724214021344C430619350045
:107F9C00B26201223835F3622A700025143435633D
:107FAC003175736372750119006800F087FF280042
:107FBC0070BD072270B5037904000A40012093427A
:107FCC0019D348B22823002816DA5343190001208C
:107FDC001431E318611858750123A5258B700A70AC
:107FEC00AD00625D02209A4205D06355206800F016
:107FFC00C9FE0020605570BD4B4319000020E318EA
:10800C0055315633FF31FF3361181870E4E70B001C
:10801C000F2270B5017904001A40012091421BD344
:10802C00072228211A4051435BB26018002B14DA46
:10803C0001231431611843750025A5268D700A7033
:10804C00B600A35D0220012B06D00123A3552068A6
:10805C0000F0B6FE2800A55570BD002355315630F2
:10806C00FF31FF3061180370E6E730B528240D06A8
:10807C000BD5072529404C431434001999B2002A1A
:10808C0007D10273C180002030BD4C435534FF34FE
:10809C00F3E7012283600273F5E702680300B52061
:1080AC00012110B58000B32419500020A4001855EC
:1080BC00536D194302235165516D0B43536510BD2C
:1080CC008023034ADB0051680B4353607047C04662
:1080DC000070004010B5114C1149236802000B4090
:1080EC0003432360802300209B009A420ED10D4B4A
:1080FC000D49186806235843FEF72EFC8022431CBA
:10810C00D200616908001040114200D110BD002B53
:10811C0001D0013BF5E70320F8E7C04600700040B2
:10812C00FFF9FFFF1000002040420F00F0B50400E3
:10813C0085B0002802D1012005B0F0BD0368DB0733
:10814C0014D423689B0760D423681B0700D5C5E0B3
:10815C0023685B0700D5F6E023689B0600D564E135
:10816C00236A002B00D0A5E10020E5E73822C44D9E
:10817C00AB681340EA68102B09D1D3439B0708D195
:10818C002B689B03DDD56368002BDAD1D3E7082B72
:10819C00F6D0802263685202934211D12A681343AD
:1081AC002B60FEF71FFF80270600BF022B683B42A7
:1081BC00C7D1FEF717FF801B6428F7D90320BBE754
:1081CC00A021C9028B4208D180232968DB020B4312
:1081DC002B602B681A432A60E3E72A68A9490A40F6
:1081EC002A602A68A8490A402A60002BD9D1FEF7D8
:1081FC00F9FE80270600BF022B683B42A1D0FEF798
:10820C00F1FE801B6428F7D9D8E738229C4DAB6867
:10821C001340EA68102B28D103210A40022A26D1E8
:10822C002A68520503D5E268002A00D183E7696801
:10823C0062699648120201400A436A60002B0CD115
:10824C002B68934A93491340226913432B602B6884
:10825C00914A9B045B0FDA400A60904B1868FEF75A
:10826C0079FE002800D16FE765E7002BD8D0E368D2
:10827C00002B20D02B68864A802713402269FF00F0
:10828C0013432B6080232A685B0013432B60FEF79B
:10829C00A9FE06002B683B4207D06A6863697B49DC
:1082AC001B020A4013436B604EE7FEF79BFE801BDC
:1082BC000228EFD982E72B68794A802713402B607C
:1082CC00FEF790FE0600FF002B683B4200D13BE717
:1082DC00FEF788FE801B0228F6D96FE73822684D1E
:1082EC00AB681340182B08D12B6E9B0700D42FE7DB
:1082FC00A369002B00D02BE71DE7A2690123002AFC
:10830C0010D02A6E022713432B66FEF76BFE060075
:10831C002B6E3B4200D01BE7FEF764FE801B02284D
:10832C00F6D94BE72A6E02279A432A66FEF75AFEC5
:10833C0006002B6E3B4200D10AE7FEF753FE801B72
:10834C000228F6D93AE738224D4DAB681340202B62
:10835C0008D1EB6D9B0700D4FEE6A368002B00D080
:10836C00FAE6E8E680220021EB6B520500911342FD
:10837C0008D1EB6B1343EB63EB6B13400393039B41
:10838C00012300938027474E7F0033683B4215D072
:10839C00A368012B22D1EA6D1343EB65FEF722FE95
:1083AC0002270600EB6D3B4238D0009B012B00D01E
:1083BC00D2E6EB6B3C4A1340EB63CDE633683B43B0
:1083CC003360FEF70FFE019033683B42E0D1FEF7BD
:1083DC0009FE019BC01A0228F6D9EFE6EA6D052BBF
:1083EC0005D1013B1343EB65EA6D0123D4E7012171
:1083FC008A43EA65EA6D03318A43EA65002BCDD1E5
:10840C00FEF7F0FD02270600EB6D3B42CDD0FEF7E8
:10841C00E9FD264B801B9842F6D9CFE6FEF7E2FD2C
:10842C00224B801B9842BDD9C8E6E369144D002B42
:10843C0013D080232A68DB0313432B60FEF7D2FD95
:10844C00802706003F042B683B4200D088E6FEF7ED
:10845C00C9FD801B0228F6D9B0E62B68144A802788
:10846C0013402B60FEF7BEFD06003F042B683B4219
:10847C0000D175E6FEF7B6FD801B0228F6D99DE605
:10848C0000100240FFFFFEFFFFFFFBFFFF80FFFF1E
:10849C00FFC7FFFF100000200024F400180000208C
:1084AC00FFFEFFFF00700040FFFFFFEF881300008E
:1084BC00FFFFBFFF3821434DAA680A40102A53D052
:1084CC00414A022B3AD12B68802713402B60FEF7D0
:1084DC0089FD0600BF042B683B4229D1A16A636A5F
:1084EC00EA680B43394980260A401343226BB604D1
:1084FC001343626B1343A26B1343E26A12021343DE
:10850C00EB6080232A685B0413432B608023EA68AA
:10851C005B051343EB60FEF765FD04002B683342EB
:10852C0000D021E6FEF75EFD001B0228F6D945E6D9
:10853C00FEF758FD801B0228CDD93FE62B6880261C
:10854C0013402B60FEF74EFD0400B6042B6833423B
:10855C0004D1EB681E4A1340EB6005E6FEF742FDC2
:10856C00001B0228F2D929E6012B00D1E3E50322F6
:10857C00E868616A02408A4200D0DCE57022A16A98
:10858C0002408A4200D0D6E5FE21E26AC9010140D0
:10859C001202914200D0CEE5F822216B92030240E8
:1085AC008A4200D0C7E5E022616B120502408A4284
:1085BC0000D0C0E5A36B400F4007C01A431E984182
:1085CC00C0B2B9E500100240FFFFFFFE8C80C11164
:1085DC00FCFFFEEE382370B51A4CA2681A4205D186
:1085EC00236819489B045B0FD84070BDA2681A40E1
:1085FC00082A22D0A2681A40102A12D1E368E16836
:10860C00E5684906490F6F3201310F482D0A1540B4
:10861C00FEF7A2F9E1686843490F0131FEF79CF9B6
:10862C00E3E7A2681A40202A09D0A2680020134070
:10863C00182BDAD1FA20C001D7E70348D5E7802000
:10864C000002D2E7001002400024F400F7B5040049
:10865C000D00002801D10120FEBD07274A4E3368CA
:10866C003B408B422AD3226893073BD4D20748D491
:10867C00072733683B40AB420AD93368BB432B43D3
:10868C003360FEF7AFFC019033683B40AB426BD1DB
:10869C0023683E4D5B076FD4FFF79CFFAB683C49EA
:1086AC001B051B0F9B005B581F210B40D840394A00
:1086BC00394B10601868FEF74DFCCDE73368BB43AF
:1086CC000B433360FEF78EFC019033683B40AB42AA
:1086DC00C9D0FEF787FC019BC01A304B9842F4D9E5
:1086EC000320B9E72949530704D5E0238868DB0147
:1086FC0003438B608B682A480340A06803438B605C
:10870C00B4E76268214F012A19D13B689B03A2D5BB
:10871C000721BB688B431343BB60FEF763FC0190DE
:10872C003823BA681A406368DB009A42A0D0FEF77F
:10873C0059FC019BC01A194B9842F1D9D0E7022A77
:10874C0003D13B689B01E3D485E7002A03D13B6846
:10875C005B05DDD47FE70223032A03D1396E19426E
:10876C00D6D178E7F96DFAE7FEF73CFC019BC01A0D
:10877C000A4B984288D9B3E7AB680A4A1340E268BF
:10878C001343AB6088E7C046002002400010024053
:10879C0018AF0008100000201800002088130000FB
:1087AC00FFF0FFFFFF8FFFFFF0B50368040085B0FB
:1087BC0000209B0352D58022974D5205EB6B009005
:1087CC00134208D1EB6B1343EB63EB6B1340039336
:1087DC00039B012300938027904E7F0033683B431B
:1087EC003360FEF7FFFB019033683B4228D0E96D04
:1087FC00C02208009200236C1040114218D09842FD
:10880C000CD0EB6D864AE96D1340802252020A436C
:10881C00EA65EA6D83490A40EA65EB65DB0707D533
:10882C00FEF7E0FB02270600EB6D3B4200D1EAE0CD
:10883C00EB6D7B4A00201340226C1343EB6506E082
:10884C00FEF7D0FB019BC01A0228CDD90320009B58
:10885C00012B03D1EB6B744A1340EB632368DA07EB
:10886C0006D503256C494A6DAA4365682A434A65B7
:10887C009A0706D50C2568494A6DAA43A5682A4370
:10888C004A655A0706D5302563494A6DAA43E568FF
:10889C002A434A65DA0606D55F49644D4A6D2A407B
:1088AC0025692A434A65DA0406D55B495C4D4A6D55
:1088BC002A4065692A434A659A0506D556495C4D96
:1088CC004A6D2A40A56A2A434A655A0506D552497B
:1088DC00584D4A6D2A40E56A2A434A659A0606D5E0
:1088EC004D49554D4A6D2A40A5692A434A655A0699
:1088FC0006D54949514D4A6D2A40E5692A434A65D6
:10890C005A040FD54449256B4A6D920092082A43AC
:10891C004A658022D205954204D18022CD6852024C
:10892C002A43CA601A0306D540253B494A6DAA431F
:10893C00656B2A434A659A020FD53749404E4A6DFA
:10894C00A56B32402A434A658022D203954204D15A
:10895C008022CD6852042A43CA605A020DD52E4D8E
:10896C00384E696DE26B31401143696580214904D1
:10897C008A4202D1E9680A43EA601A050DD503263A
:10898C002549256A8A6DB2432A438A65012D04D193
:10899C008022CD6852022A43CA609A040DD50C2657
:1089AC001D49656A8A6DB2432A438A65042D04D138
:1089BC008022CD6852022A43CA6080256D042B4266
:1089CC000DD015491C4F8A6D666C3A4032438A654E
:1089DC0080229201964202D1CA681543CD609B0158
:1089EC000FD50D4AA16C936D0D4C23400B43936531
:1089FC0080235B00994204D18023D1685B040B4334
:108A0C00D36005B0F0BDFEF7EDFA0F4B801B98421A
:108A1C0000D809E71AE7C046001002400070004079
:108A2C00FFFCFFFFFFFFFEFFFFFFFFEFFFF3FFFF6A
:108A3C00FFFFF3FFFFFFCFFFFFCFFFFFFF3FFFFF66
:108A4C00FFFFBFFFFFFFFFFE8813000003000020A5
:108A5C00014A58641A64704780BF0000036C024AD4
:108A6C0013400364002070477F40FFFF84B010B5B3
:108A7C000492012202640593036C04009343036483
:108A8C00036C03919340D34003640020606410BCDA
:108A9C0008BC04B018470000F7B50F78CE78BB00BF
:108AAC00C3181A687548024001200190032E08D89B
:108ABC003000FDF733FF023A373480208000024348
:108ACC0001966F4C6F4D22431A601A686E482A400B
:108ADC003A4322431A60FA001218087B002867D127
:108AEC00C8888008800084464878002825D06046D5
:108AFC001168090C090411601168014311601A68AE
:108B0C00520604D51968614A29400A431A60604D1F
:108B1C00012E0CD02022196829404A4009E0C020BF
:108B2C00C000024300200190CBE78020F8E71A68D0
:108B3C002A4022431A600198FEBD604656680969B6
:108B4C00360C360456605668064356605668B601B5
:108B5C00B60956603E291ED91F204E090140080057
:108B6C0041424141761A5168B6060E4380210906EE
:108B7C00314351601A68520404D51968454A29409A
:108B8C000A431A60444A19681140C022002F00D0D1
:108B9C0080229201C1E7002901D15668E6E7012045
:108BAC004E08014076185168B6060E435660E1E750
:108BBC001F68022E3CD12F40BC466046374F0743FE
:108BCC001F6017683F0C3F0417600F891068BF08BF
:108BDC00BF000743176057683F0C3F0457604F892D
:108BEC005068BF08BF00074357604A78284F944627
:108BFC00802260462849D20100281DD11E681642E9
:108C0C0004D01E68234A2E4032431A601A6852065A
:108C1C0004D51A6815401D4A2A431A601A68114077
:108C2C00C02292014A4022431A601A683A4080E7F7
:108C3C001B4807402743C3E71868104206D01A6840
:108C4C002A4094466046134A02431A601A68520638
:108C5C0004D51A6815400D4A2A431A60012E0AD011
:108C6C0020221D683D406A4022431A601A680A405F
:108C7C0014431C605FE71A683A40F5E78F89FF07D9
:108C8C00808000008F8FFF0700980040C08000009C
:108C9C00BF8FFF0780C000008FBFFF0780810000DF
:108CAC008F8EFF07F0B50B780A7B9B00C0184E78AF
:108CBC002E4B002A1CD10268002E0ED0520605D570
:108CCC0001682B4A11402B4A0A43026002682A4968
:108CDC000A40134303600020F0BD520405D501681F
:108CEC00234A1140254A0A43026002682449EFE7EF
:108CFC0080211F4A204D224CC901002E1AD1066832
:108D0C000E4204D006681D491640314301600168CB
:108D1C00184E490603D501681140314301600168C2
:108D2C000A4016430660026822401A430260026839
:108D3C002A40CEE70768114E0F4203D0016811405C
:108D4C00314301600168490604D507680949174099
:108D5C003943016001680A401643066002682A40E4
:108D6C001A43026002682240B3E7C04680800000CC
:108D7C008F8FFF07C0800000BF8FFF0780C00000EF
:108D8C008FBFFF070B780B4A9B00C0184B7801680C
:108D9C00002B07D0084B194010234B4013430360A2
:108DAC0000207047054B194080235B014B401A4350
:108DBC000260F5E780800000BF8FFF078FBFFF07C1
:108DCC000B7B002B19D10B789B00C0184B78002B18
:108DDC0015D003685B0605D50268104B1A40104B82
:108DEC0013430360CB78012B07D00E4A0368134062
:108DFC0020225A400C4B1343036000207047036839
:108E0C005B0405D50268054B1A40084B13430360FD
:108E1C00074A03681340C0229201EAE78F8FFF07CD
:108E2C00C0800000BF8FFF078080000080C0000062
:108E3C008FBFFF07002901D18023C3640020704736
:108E4C008023826D1B021343836500207047406CA6
:108E5C0070470000F7B50324D81C23401C00651E86
:108E6C00AC418008001B144C0D0012190400019237
:108E7C00002C0FD1002B0CD02500800009184E5D62
:108E8C00EF00BE4001353443AEB2B342F7D11218F5
:108E9C001460F7BD2E78013CB44667466E783602F6
:108EAC003E43AF783F043743EE78043536063E43F5
:108EBC00019F40C70197DBE700980040F0B54D7863
:108ECC0006000C000B7B85B0012D00D00DE10F6965
:108EDC008D69BD4200D93D0062690192002B1ED103
:108EEC00ABB2E28830000199FFF7B4FF2378C74A90
:108EFC00DB009B181A682D0492B21A601A6815438D
:108F0C001D602378C24A9B00F31819681140302267
:108F1C004A40C0490A431A60002005B0F0BD2278CF
:108F2C00BA499000D2005218E178236A301802290D
:108F3C0000D0C3E09F4200D3B0E00768B64B1F409F
:108F4C00B64B3B430360236A5B1B236203684020E0
:108F5C009C46614603400293019B5F192B040393CB
:108F6C00ABB201424ED05068290480B250605068B8
:108F7C0008435060628901993000FFF76BFF236A48
:108F8C002169002267618B4201D95A1B2B00226296
:108F9C006278002A2AD122789C49D2005218116892
:108FAC008901890911603E2B13D91F2018404542B5
:108FBC0068415909091A1068890601438020000686
:108FCC000143116022899BB239003000FFF742FF48
:108FDC0097E7002B03D1802110680906F0E70120E8
:108FEC0059081840091889061068E9E7012AE9D1DF
:108FFC0022788649D2005218116889B21160106823
:10900C001904DDE71068290480B210601068084369
:10901C001060228930000199FFF71CFF236A226936
:10902C006761934202D95B1B02932B00029A226266
:10903C006278002A26D122787449D20052185168DD
:10904C008901890951603E2B0FD91F2018404542D8
:10905C0068415909091A50688906014380200006A5
:10906C000143516062899BB2AEE7002B03D1802192
:10907C0050680906F4E701205908184009188906B8
:10908C005068EDE7012AEDD122786049D2005218E0
:10909C00516889B2516050681904E1E70568604F66
:1090AC005C493D400D430560106880B21060156846
:1090BC001804284310609BB222890DE05B1B2362CD
:1090CC0000682F04ABB2400608D5506880B25060DF
:1090DC005068384350606289019976E7106880B215
:1090EC001060106838431060E6E7002B2FD18A69B6
:1090FC0009698A4201D9531A0A00A36123784349AA
:10910C00DB005B1859688901890959603E2A09D925
:10911C001F205109024050424241891A5A6889065F
:10912C00114303E0002A00D0B6E0596880221206F1
:10913C000A435A6023783B4A9B00F6183368134065
:10914C00C02292015A40334B13433360E4E6CB7890
:10915C00022B6DD10978002D29D12C4ACB009B18FC
:10916C001A68920192091A6022693E2A32D91F3577
:10917C0015406F427D415009401B1D6880062843F5
:10918C0080252D0628431860586880018009586096
:10919C003E2A2CD91F2010405509424250412D1A0D
:1091AC005868AA0602438020000602435A60E3690D
:1091BC00002BBFD08B00F3181A681B490A408A4257
:1091CC0001D0002AB6D11968134A1140174A0A4334
:1091DC001A60AFE7002A03D180201D680006D1E792
:1091EC00012550081540401980061D68CAE7002A61
:1091FC0003D1802258681206D7E7012550082A406F
:10920C0080185A68800610435860D0E700980040D8
:10921C00BF8FFF07808000008F8FFF0780810000C9
:10922C008F8EFF078FBFFF0740400000C0800000FB
:10923C000120834200D070E68A690B6900219A42B2
:10924C0001D9D11A1A00A161002D00D072E7237840
:10925C001649DB005B1819688901890919603E2AD7
:10926C000DD91F201040454268415109091A186850
:10927C0089060143802000060143196042E7002A59
:10928C0003D1802118680906F6E701205108104027
:10929C00091889061868EFE701205108024089185F
:1092AC005A6889061143596044E7C046009800404B
:1092BC00F7B50324D81C2340134C800812191C004A
:1092CC00651EAC41001B0D0004000192002C0ED158
:1092DC00002B0BD080001218091810680500E20052
:1092EC00D5400D550134A2B29342F7D1F7BD019F81
:1092FC00013C40CF0197370A2E706F70370C360E39
:10930C00AF70EE700435E1E700980040B523B02251
:10931C009B00C35892009B00C31870B59C58032047
:10932C00002C09D004329B58002B04D08025AD00B2
:10933C00605DFF2801D1002070BD044A9B682100AC
:10934C00A25C9847FF236355F5E7C0460102000075
:10935C000A2303800048704798000020F8B5124D8E
:10936C0082210700280000F0A8FB0121060028003C
:10937C0000F0A3FB81210400280000F09EFB002ECE
:10938C0001D01023B371002C03D040232371002390
:10939C006371002803D040230371002343714323DE
:1093AC0028003B80F8BDC0461C00002010B5FFF71C
:1093BC00D5FF10BDF8B5124D82210700280000F032
:1093CC007CFB01210600280000F077FB81210400C2
:1093DC00280000F072FB002E01D01023B371002C7A
:1093EC0003D00023237102336371002803D00023C0
:1093FC00037102334371432328003B80F8BDC04600
:10940C001C00002070B5B526B60083590400B0339B
:10941C009B001D580320002D11D0200001F068F88E
:10942C00832381229B00E850E918A3599200B033A2
:10943C009B00E4186368A858DB689847002070BD4F
:10944C00B2239B00F7B5C2580C33C3580E009B00D7
:10945C00C3180193B02301999B00CF58040003203B
:10946C00002F16D00F23142533405D436519A869CE
:10947C0000280FD028214B43D318596AFDF7F2FA74
:10948C000A1E07D10B00A9612000310001F01EF863
:10949C000020FEBD852300229B00FA50019AB033B8
:1094AC00D3581B69002BF3D08422822092008000B9
:1094BC00B918385832009847EAE70000B523B022B3
:1094CC00F0B59B00C35885B09B00C31892009E5802
:1094DC0002AA0D00511D0022040002A8871D0A706B
:1094EC003A80964259D02A789446602260461040C1
:1094FC0001906046104233D0019A202A49D1EA8863
:10950C006878002A25D0614649B2002910DAB121C9
:10951C0089005B5831009B689847EB881A1C072B15
:10952C0000D90722310092B2200000F060FD0DE05E
:10953C0080239B00F054131C402A00D940239AB27C
:10954C001A4B31002000F25400F067FD002005B0EA
:10955C00F0BDB12189005B5829009B689847F5E75D
:10956C0068780B2815D8FDF7CFF906F114141414EC
:10957C00141414140E1AA7239B00E35C032B08D1BC
:10958C0002223900D0E7A7239B00E35C0122032BC6
:10959C00CAD02900200000F003FD0320D7E7A72341
:1095AC009B00E35C032BD1D0F3E7C0460102000023
:1095BC0070B504000025812100F051FF012120002D
:1095CC00258700F04CFFBC23B5265B00E5528221B9
:1095DC00200000F044FFB022B600A359E5649B00C4
:1095EC00E31892009A58AA4211D0B12292009B58CB
:1095FC005B689847A359B0339B00185900F0ACFF37
:10960C00A359B0339B001D51AF239B00E5500020A4
:10961C0070BDF8B504008720800000F099FFB526D6
:10962C000500B600002805D1A359B0339B00185192
:10963C0002204DE087220021920000F0AFFFA359D9
:10964C00B0339B001D51AF239B00E550237C002BB6
:10965C003FD1802381219B000222200000F0F3FEE9
:10966C000121802321879B000222200000F0EBFEC9
:10967C00BC2301265B00E652230010224E331A80D5
:10968C0082210D3A0823200000F0DDFE23004C332C
:10969C001E80812300279B00EF50D033E358B0335A
:1096AC009B00E3185B681B68984785239B00EF5071
:1096BC000433EF50143BEA58BA42B9D0237CBB4276
:1096CC0011D180239B003100200000F008FF002006
:1096DC00F8BD402381210222200000F0B4FE0121BC
:1096EC0040232187C0E74023EDE703000320002936
:1096FC0007D0B522002092009A58B03292009B18E5
:10970C0059607047B5239B00C358B0339B001B585E
:10971C000320002B06D082208000195084210020C9
:10972C0089005A507047B5239B00C358B0339B0037
:10973C001B580320002B03D081220020920099504B
:10974C007047B5239B00C35810B5B0339B001A5813
:10975C000323002A11D0852189005458023B002C88
:10976C000BD1535084239B00D3580C395258883951
:10977C00C362FF3900F0AAFE2300180010BDB52308
:10978C009B00C35810B5B0339B001A580323002A12
:10979C000BD081239B00D258037C002B07D1802354
:1097AC009B00012100F09BFE0023180010BD4023FC
:1097BC00F7E7030010B50320002B14D0AE240020D3
:1097CC00A40018510C3418510C341851814202D099
:1097DC00AD2080001950A721012089005854180091
:1097EC001A7000F0E5FD10BD13B56B460400981D12
:1097FC0000230380033300290FD0AE239B00E150DC
:10980C00CB6A002B03D09847B4239B00E050B622C0
:10981C009200A3580133A3500023180016BD10B5B5
:10982C0000F008FE10BDAE239B00C25810B5131EED
:10983C0002D0136898470300180010BDAE239B009C
:10984C00C35810B55B689847002800D0032010BDA2
:10985C00164B70B5C5180400280000F08DFBA5232D
:10986C0001229B00E2501C33E25A183BE2500F4B92
:10987C00E15C1F230B40012B08D0022B0BD0002BDB
:10988C000ED12900200000F037F970BD290020000E
:10989C0000F094FAF9E72900200000F0C3FAF4E78D
:1098AC007F232000994300F0E3FDEEE7AA020000BD
:1098BC0070B50400100000292AD1A5239B00E358A1
:1098CC00032B0FD125005535FF35AB68EA68934261
:1098DC000AD99B1AAB609A4200D91A0001002000E9
:1098EC0000F0ABFB002070BDA7239B00E35C032BB7
:1098FC000AD1AE239B00E3581B69002B04D0B52280
:10990C0092002000A1509847200000F09EFBE9E750
:10991C00A7239B00E35C032BE4D1AE239B00E3580D
:10992C009B69002BDED0B52200209200A0502000B5
:10993C009847D8E770B50D0004001100002D44D1F4
:10994C00A5239B00C358022B0DD1C369026A934215
:10995C0012D99A1AC26100F058FB2B002A00290078
:10996C00200000F0BCFDA8239B00E25C002A01D083
:10997C000022E254002070BD93420DD182699342C3
:10998C000AD8A626B60083599A4205D22A00290085
:10999C0000F03BFBA551E0E7A7239B00E35C032B06
:1099AC000BD1AE239B00E358DB68002B05D0B5220E
:1099BC00002192002000A15098478021200000F047
:1099CC0057FD200000F04DFBCDE7A7239B00C35CA7
:1099DC00032BCFD1AE239B00C3585B69002BC9D09E
:1099EC00B52200219200815029009847C3E7F8B5B1
:1099FC00A723012200219B00C254083BC150103305
:109A0C004160C150043BC1541833C35804008B420D
:109A1C0018D10026002240231100200000F013FD75
:109A2C00B22301275B00E75223004025FC335D661F
:109A3C0000222B008021200000F005FD3000A784BF
:109A4C002562F8BD5B68002BE3D098470028E0D076
:109A5C000326DFE70174002070470000A722920064
:109A6C00835C0349DBB243540423835400207047C6
:109A7C009D020000A7229200835C042B03D1034BB0
:109A8C00C35CDBB2835400207047C0469D020000CB
:109A9C00A72310B59B00C35C032B08D1AE239B00FE
:109AAC00C358002B03D0DB69002B00D09847002053
:109ABC0010BD002070470020704710B5C278837825
:109ACC0012021A4303789A4201D8002010BD047880
:109ADC000019E31844789BB2052CF4D184788C429D
:109AEC00F1D1F3E710B50400802100F0C1FC002196
:109AFC00200000F0BDFC10BDF7B560220B780D0006
:109B0C0013401900921820390400114212D0002B76
:109B1C0000D09CE06878092800D998E0FCF712FF87
:109B2C0013013A0197002A0197008900160097004B
:109B3C00FE00AB00B5239B00C3582900AE339B003D
:109B4C001B589B68984705002800FEBD00236A46F9
:109B5C00D3806B88180A01380E2878D8FCF7DEFE03
:109B6C00102C3B7777525D7777777777777708008C
:109B7C00AD239B00E358DB69002B68D0207C04E00C
:109B8C00AD239B00E358207C1B686A46911D9847C7
:109B9C00E988002900D1A4E06B46DA88002A56D067
:109BAC000B1C914200D9131C6946CB8001009AB260
:109BBC00200000F01CFA4DE0AE23227C9B00E35801
:109BCC00002A06D19B6A6A46901D9847022343706F
:109BDC00DEE7DB6AF7E7D8B2052838D8AD239B005F
:109BEC00E358FCF79BFE030507090B0D5B68C3E705
:109BFC009B68C1E7DB68BFE71B69BDE75B69BBE737
:109C0C009B69B9E7237C002B21D1AE236A469B00CC
:109C1C00E358901D5B6B9847BAE7237C002B16D159
:109C2C00AE236A469B00E358901D1B6B9847072395
:109C3C00CDE7AB88002B0AD1EB88002B07D16E88BF
:109C4C007F2E04D8A725AD00635D032B04D1200023
:109C5C00FFF748FF002577E7564BF1B2E15420009F
:109C6C0000F02BFC200000F0F0F90223002E00D1B4
:109C7C0001236355EEE7A9784F4D2970012904D9CA
:109C8C002000FFF72FFF03255EE7A726B600A35D94
:109C9C00DFB2022B09D0032F1BD02000FFF722FFCD
:109CAC0020002978FFF7CAFDEDE7002919D0012122
:109CBC0020006160FFF7B7FD05002000002D03D0E8
:109CCC00FFF710FFA7553FE700F0BFF90323A3559B
:109CDC00C0E7002909D102232000A3556160FFF7DA
:109CEC00ADFD200000F0B1F9B4E761680129F8D0AE
:109CFC00C9B22000FFF7A2FD297820006160FFF7B0
:109D0C0092FD051EEDD02000FFF7ECFE61682000EF
:109D1C00C9B2FFF793FD0223A35515E7EA88012A80
:109D2C0095D1A7239B00E15CCBB2022906D8002B6E
:109D3C008DD000232100A360083139E7211D032BAE
:109D4C0000D135E783E7A7239B00E35C013B022BA3
:109D5C0000D97CE7EB88022B00D078E7A9239B0085
:109D6C00E2580123002A00D0023321000222E360D2
:109D7C000C311DE76B88012B03D1A9229200A35053
:109D8C00AFE7022B00D062E7A822AB8892001B0A37
:109D9C00A354A6E7A7239B00E35C013B022B00D94D
:109DAC0055E76B88012B00D054E7A92300229B00B8
:109DBC00E25096E79E0200003C02002060230A78E5
:109DCC0070B5134004000D00520601D5402B25D16F
:109DDC00A7239B00E35C013B022B1FD829792000B1
:109DEC0001291CD8FFF765FE03000320002B0BD1C3
:109DFC00AE229200A2589268002A05D0B5218900A3
:109E0C006350200029009047EB88002B05D10028D7
:109E1C0003D1200000F019F9002070BD2000FFF7DD
:109E2C0061FEF9E7602270B50B7804001340888856
:109E3C000E00190092182039C5B211425AD0002BCD
:109E4C002FD17378012B41D0032B22D0002B28D19A
:109E5C00A7239B00E35CDAB2022B00D167E0032A54
:109E6C001FD10F2314222B405343E318000600D4B8
:109E7C006DE09B8C002B14D07F232B40013353437C
:109E8C00E6186B0600D06EE000230222310033602E
:109E9C0059E0A7239B00E35CDAB2022B3CD0032AE7
:109EAC0003D02000FFF71EFE0EE07388002B08D1B4
:109EBC006B0606D0F388002B03D12900200000F09C
:109ECC00D7FA200000F0C1F8002070BDA7239B003A
:109EDC00E35CDAB2022B1FD0032AE2D17388002B89
:109EEC00F2D16B0603D02900200000F0CAFA200042
:109EFC0000F0ABF829002000FFF7DDFD0028E3D1CE
:109F0C00B5239B00E0501C3BE3589B68002BDBD037
:109F1C00310020009847D8E76B06C2D029002000FA
:109F2C0000F0A6FA8021200000F0A2FACCE76D0622
:109F3C00B7D121005531FF31000601D54139FF3928
:109F4C00002302220B60200000F051F8BCE76533BF
:109F5C00FF331B88002BA4D07F232B405A43553250
:109F6C00FF32A6188DE72900200000F093FA002894
:109F7C0000D189E7012388E70B7803704B78437095
:109F8C00CB788A781B02134343804B790A791B02E6
:109F9C0013438380CB798A791B021343C3807047A8
:109FAC0010B50400802100F063FA0021200000F0BD
:109FBC005FFA10BD70B504000D00160000280DD01E
:109FCC00FCF79AFCC3B201335B0033802B70032384
:109FDC0000216B70013B2278002A00D170BDEA543D
:109FEC005A1CD2B202330134A954DBB2F3E713008A
:109FFC00A52210B50224920084500A00836100212E
:10A00C00C36100F063FA002010BD10B513000A0004
:10A01C00002100F05BFA002010BD1300A52210B542
:10A02C000324920084500200FC32D36513660A00AC
:10A03C00002100F054FA002010BD10B513000A00E6
:10A04C00002100F04CFA002010BDA52304229B0037
:10A05C0010B5C25000231A00190000F037FA002086
:10A06C0010BDA52305229B0010B5C25000231A0079
:10A07C00190000F034FA002010BD000010B5114C8E
:10A08C00002220001049FFF794FB002801D0FCF7B8
:10A09C00E9FE20000D49FFF7A7FB002801D0FCF7D3
:10A0AC00E1FE20000A49FFF720FB002801D0FCF755
:10A0BC00D9FE2000FFF7B3FB002801D0FCF7D2FE3D
:10A0CC0010BDC04640020020EC00002060000020C3
:10A0DC00A40000200020704700207047002070472B
:10A0EC0010B5054C01002000FFF71DFB2000FFF709
:10A0FC0046FB002010BDC0464002002010B5064CA7
:10A10C00002220000549FFF7FDFA20000449FFF763
:10A11C000AFB002010BDC046400200201C05002098
:10A12C001C0D00200A00AF2110B5084C890003005B
:10A13C006058A83941580120002906D11900200087
:10A14C00FFF7E0FA2000FFF7FCFA10BD40020020F8
:10A15C00122301480B807047D800002004230148CB
:10A16C000B807047D400002070B5002652008A186E
:10A17C008A4200D170BD050FECB223003733092D94
:10A18C0000D8073B0B704E7000010231F0E7000065
:10A19C001A2370B50B800D4B0D4C18680D4B1B68BA
:10A1AC00C01800280AD00C4B08221D682100FFF7AC
:10A1BC00DBFF042228000949FFF7D6FF0322210008
:10A1CC000748FFF7D1FF074870BDC0469075FF1FC9
:10A1DC00BA0000209875FF1F9475FF1FCA0000205D
:10A1EC000000A0AAB800002010B5044C0A00210001
:10A1FC000348FFF7DFFE200010BDC0461C150020F1
:10A20C0058AF000810B5044C0A0021000348FFF7B2
:10A21C00D1FE200010BDC0461C1500206BAF0008FD
:10A22C0010B5044C0A0021000348FFF7C3FE2000C0
:10A23C0010BDC0461C15002081AF000810B5044CA1
:10A24C000A0021000348FFF7B5FE200010BDC046F0
:10A25C001C1500208CAF0008002802D0022801D069
:10A26C00032070470120FCE710B5040096B04C2287
:10A27C00002103A800F092F91B4B22689A422DD1C1
:10A28C00802303A85B040393FEF78EFA002801D009
:10A29C00FCF7E8FD8022154C9201E36B1343E3635A
:10A2AC00E36B134080220193019BE36B5205134235
:10A2BC0016D1E36B1343E363E36B13400293029BEE
:10A2CC00FDF7FEFEE36B0A4A1340E363002208200D
:10A2DC001100FCF7ABFE0820FCF7D2FE16B010BD47
:10A2EC00FDF7EEFEF2E7C046005C004000100240B5
:10A2FC00FFFFFFEFA72310B59B00C1184033C058D8
:10A30C00FFF7A6FA10BD28234B43C318FC33DA6EB3
:10A31C00B72310B59B00C058FFF7CAFA10BD28230D
:10A32C004B43C3189A6AB72310B59B00C058FFF76C
:10A33C0001FB10BDB72310B59B00C058FFF7A8FB5D
:10A34C0010BD70B5C3790400022B01D0FCF78AFD57
:10A35C00B725AD0001216059FFF77CFB6059FFF771
:10A36C0046FB70BDB72310B504009B00C058FFF727
:10A37C0075FBE37A002B04D00623024A11690B43C8
:10A38C00136110BD00ED00E010B5C37A0400002B82
:10A39C0006D00621054A13698B431361FCF7E0FCD8
:10A3AC00B7239B00E058FFF765FB10BD00ED00E004
:10A3BC00B72370B504001C489B00C4501B4BB2253E
:10A3CC0003601B4BAD0083800223C37143720023D7
:10A3DC0060514381C3600374FDF784F8002801D0F9
:10A3EC00FCF740FD0022605911001823FDF73DFEDB
:10A3FC006059582300228021FDF737FE6059C02395
:10A40C0000228121FDF731FE8823605900220121B1
:10A41C005B00FDF72AFE80236059002282215B003D
:10A42C00FDF723FE002070BD3C190020005C0040AD
:10A43C0008080000B22310B59B00C058FDF7A2F825
:10A44C00FFF70AFF10BD10B514001A002300B22448
:10A45C00A4000059FDF720FDFFF7FEFE10BDB2234E
:10A46C0010B59B00C058FDF743FDFFF7F5FE10BD7E
:10A47C00B22310B59B00C058FDF79BFDFFF7ECFE17
:10A48C0010BDB22310B59B00C058FDF7C0FDFFF7FF
:10A49C00E3FE10BDB2239B00C35848B2282200280B
:10A4AC0005DA7F2001404A439B18987D70474A4348
:10A4BC009B185733FF331878F8E7B22310B59B007D
:10A4CC00C058FDF772F8FFF7C7FE10BD10B5B224E7
:10A4DC00A4000059FDF755FDFFF7BEFE10BD10B5E9
:10A4EC00B224A4000059FDF729FDFFF7B5FE10BDFD
:10A4FC00B22310B59B00C058FDF73BFD10BD00000A
:10A50C0010B50400002902D0012910D010BDC37A67
:10A51C00002B06D0FCF724FC06210C4A13698B4354
:10A52C001361B7239B00E058FFF7A4FAEEE7B723BB
:10A53C009B00C058FFF792FAE37A002BE6D0062373
:10A54C00024A11690B431361E0E7C04600ED00E0DD
:10A55C00004870471C170020704700000EB400B56F
:10A56C000B499CB01DAB02900690079104910948D1
:10A57C00094904CB0591006802A9019300F0A6F9E2
:10A58C000022029B1A701CB008BC03B01847C046CE
:10A59C00FFFFFF7F0C0100200802FFFF0300821861
:10A5AC00934200D1704719700133F9E7014B1868D9
:10A5BC007047C0460C01002070B500260C4C0D4DA8
:10A5CC00641BA410A64209D1002600F06DFC0A4CB5
:10A5DC000A4D641BA410A64205D170BDB300EB5804
:10A5EC0098470136EEE7B300EB5898470136F2E78F
:10A5FC00D0AF0008D0AF0008D8AF0008D0AF00082B
:10A60C007047704703000A7801311A700133002A31
:10A61C00F9D1704770B505000C1E10D0043C2368AE
:10A62C00002B00DAE418280000F0E0F81D4A13684B
:10A63C00002B05D163601460280000F0DFF870BDBA
:10A64C00A34208D9206821188B42F3D119685B68A2
:10A65C0009182160EEE71A005B68002B01D0A342B9
:10A66C00F9D911685018A0420BD12068091850185C
:10A67C0011608342E0D118685B6841181160536027
:10A68C00DAE7A04202D90C232B60D5E72068211809
:10A69C008B4203D119685B680918216063605460B0
:10A6AC00CAE7C046601D002070B50F4E0D00316822
:10A6BC000400002902D100F099FB30602900200031
:10A6CC0000F094FB431C03D101256D42280070BDA2
:10A6DC000323C51C9D43A842F8D0291A200000F082
:10A6EC0085FB0130F2D1EFE75C1D0020F7B50322AA
:10A6FC00CB1C9343083305001F000C2B34D20C27C2
:10A70C00B94233D8280000F071F8374E33681C007A
:10A71C00002C2FD139002800FFF7C6FF0400431C82
:10A72C005FD134680094009B002B4AD1002C52D08E
:10A73C0023682800E3180099019300F057FB019B54
:10A74C00834248D123682800FF1A3900FFF7ACFF79
:10A75C00013040D02368DB19236033685A68002A23
:10A76C0033D1009B336019E0002BC9DA0C232B602A
:10A77C000020FEBD2168C91B20D40B290AD9E2197F
:10A78C002760A34204D1326063681160536005E016
:10A79C005A60F9E76268A3420ED13260280000F0DB
:10A7AC002DF8200007220B30231D9043C21A98422B
:10A7BC00DFD01B1AA350DCE75A60EFE72300646874
:10A7CC00A6E7009C63680093ADE71A005B68A342A0
:10A7DC00FBD10023DAE70C2328002B6000F00EF8E5
:10A7EC00C6E70760DAE7C046601D002010B50248D6
:10A7FC00FFF706FF10BDC046581D002010B50248DB
:10A80C00FFF7FFFE10BDC046581D0020F0B58E6846
:10A81C0085B01F000C000B6802900392BE4230D82A
:10A82C000C21625E9021C9000A4228D003202169C4
:10A83C005B1A0193636943430198DD0FED187B1C90
:10A84C001B186D10AB4200D91D00520528D52900EC
:10A85C000298FFF74BFF061E2CD0019A216900F0DD
:10A86C00E2FAA289184B1A4080231343A381019B5F
:10A87C002661F61826603E006561ED1AA560BE42A1
:10A88C0000D93E0032000399206800F09BFA0020AA
:10A89C00A3689B1BA36023689B19236005B0F0BDC4
:10A8AC002A00029800F0C8FA061EE0D1216902982D
:10A8BC00FFF7B0FE0C230120029A40421360A289DC
:10A8CC0034331343A381E9E77FFBFFFFF0B5A1B05D
:10A8DC0003901D008B890F0016001B0611D50B6908
:10A8EC00002B0ED14021FFF701FF386038610028A2
:10A8FC0005D10C23039A136001204042CFE0402382
:10A90C007B61002308AC6361203363761033A3763C
:10A91C00079535002B78002B01D0252B48D1AB1B8C
:10A92C000593B5420BD0320039000398FFF76EFF48
:10A93C00013000D1AEE06369059A9B1863612B78F6
:10A94C00002B00D1A6E0012200235242626004A930
:10A95C00543252186E1C2360E360A3601370A3651D
:10A96C00544B052218003178059300F051FA751CF0
:10A97C0000281FD12268D30604D5532304A95B18E1
:10A98C0020211970130704D5532304A95B182B211C
:10A99C00197033782A2B16D0350000210A20E36871
:10A9AC002A786E1C303A092A50D9002911D117E0A7
:10A9BC000135AFE7059B2268C01A0123834013437E
:10A9CC002E002360CCE7079B191D1B680791002BF9
:10A9DC0001DB0B9304E05B42E3600223134323602F
:10A9EC002B782E2B0CD16B782A2B34D1079B02356C
:10A9FC001A1D1B680792002B01DA01235B42099395
:10AA0C002D4E03223000297800F002FA002806D0DF
:10AA1C004023801B8340226801351343236029782F
:10AA2C00062226486E1C217600F0F2F9002838D058
:10AA3C00234B002B22D10722079B07339343083368
:10AA4C0007936369049A9B18636162E7434335007B
:10AA5C0001219B18A4E700230A201900013563602B
:10AA6C002A786E1C303A092A03D9002BC8D00991D8
:10AA7C00C6E74143350001238918F1E707AA009284
:10AA8C0021003A000F4B039800E000BF0490049B98
:10AA9C000133D6D1BB890D985B0600D52CE721B0CC
:10AAAC00F0BD07AA009221003A00064B039800F073
:10AABC007BF8EBE79AAF0008A0AF0008A4AF000842
:10AACC000000000019A80008F7B5160001938A6869
:10AADC000B690C000090934200DA130022003360E3
:10AAEC0043321278002A01D00133336023689B066D
:10AAFC0002D53368023333602268062315001D40EB
:10AB0C001A4227D0230043331B785A1E93412268E4
:10AB1C00920630D4220001990098089D4332A84730
:10AB2C00013025D00622236800251340042B05D1C3
:10AB3C003368E568ED1AEB43DB171D40A368226907
:10AB4C00934201DD9B1AED180026B54220D100205E
:10AB5C0010E00135E36832689B1AAB42D2DD22006B
:10AB6C00012301990098089F1932B8470130F0D1A0
:10AB7C0001204042FEBD3020E11843310870210015
:10AB8C005A1C45310978A218433202331170C1E7BF
:10AB9C002200012301990098089F1A32B84701300E
:10ABAC00E6D00136D1E70000F0B58BB006920A0072
:10ABBC0043320793059003920A7E0C00109B782A6F
:10ABCC0009D8622A0BD8002A00D1BCE07B49049139
:10ABDC00582A00D190E0250042352A7022E010005E
:10ABEC0063381528F7D8FBF7A3FE16001F00F6FFF5
:10ABFC00F6FFF6FFF6FF1F00F6FFF6FFF6FFF6FF77
:10AC0C00A10036008000F6FFF6FFB200F6FF36001A
:10AC1C00F6FFF6FF840025001A684235111D1960F5
:10AC2C0013682B700123A0E018680968021D0D063B
:10AC3C000BD506681A60002E03DA2D23039A764290
:10AC4C0013705E4B0A27049318E006681A604906D5
:10AC5C00F1D536B2EFE70868196840C9050602D489
:10AC6C00400600D5B6B21960544B0A2704936F2ADC
:10AC7C0000D1023F2300002243331A706368A360A3
:10AC8C00002B03DB042122688A432260002E02D1B0
:10AC9C00039D002B0CD0039D30003900FBF7E2FE26
:10ACAC00049B013D5B5C2B70330006009F42F3D983
:10ACBC00082F09D12368DB0706D5626823699A42FD
:10ACCC0002DC3023013D2B70039B5B1B2361079B34
:10ACDC00210000930598069B09AAFFF7F5FE0130A9
:10ACEC0048D1012040420BB0F0BD202209680A4334
:10ACFC002260782232490491210045310A7019688A
:10AD0C00226840C9100602D4500600D5B6B21960AC
:10AD1C00D30702D5202313432360002E01D0102724
:10AD2C00A8E72022236893432360F8E71A680D688C
:10AD3C00101D4969186013682E0601D5196002E0D0
:10AD4C006D06FBD519800023039D2361BFE71A68AC
:10AD5C00111D1960156800212800626800F058F870
:10AD6C00002801D0401B6060636823610023039AB4
:10AD7C001370ACE72A00236906990598079DA8472C
:10AD8C000130AED023689B0715D4099BE06898422C
:10AD9C00A9DA1800A7E72200012306990598079E57
:10ADAC001932B04701309CD00135E368099A9B1ADF
:10ADBC00AB42F0DCE9E70025F7E7C046ABAF000893
:10ADCC00BCAF000810B5884206D800239A4208D0C0
:10ADDC00CC5CC4540133F9E78B189842F5D2013A94
:10ADEC0000D210BD8B5C8354F9E70000002370B5D2
:10ADFC00064D040008002B60FCF760F8431C03D1DF
:10AE0C002B68002B00D0236070BDC046541D002061
:10AE1C00C9B28218904201D10020704703788B424E
:10AE2C00FBD00130F6E7002310B59A4200D110BDDB
:10AE3C00CC5CC4540133F8E7F7B506000C001500E0
:10AE4C00002905D11100FFF751FC04002000FEBDC4
:10AE5C00002A03D1FFF7DEFB0024F7E700F01BF814
:10AE6C000700854202D84308AB42EFD329003000DB
:10AE7C00FFF73CFC01900028EED02A00BD4200D91F
:10AE8C003A0021000198FFF7CEFF21003000FFF7B8
:10AE9C00C1FB019CDAE70B1F1B68181F002B01DAA2
:10AEAC000B58C01870470000F8B5C046F8BC08BC79
:10AEBC009E467047F8B5C046F8BC08BC9E46704725
:10AECC0057654163742053747564696F205625640B
:10AEDC002E25642E25642E25645F2530327825308E
:10AEEC00327825303278253032780D0048656C6C1C
:10AEFC006F20576F726C6420210D0A0056657273B7
:10AF0C00696F6E3A2025730D0A00000000000000E6
:10AF1C000000000000000000000000000000000025
:10AF2C000000000000000000000000000100000014
:10AF3C0002000000030000000400000006000000F6
:10AF4C0007000000080000000900000053544D6980
:10AF5C0063726F656C656374726F6E6963730053B3
:10AF6C00544D3332205669727475616C20436F6D89
:10AF7C00506F72740043444320436F6E66696700E0
:10AF8C0043444320496E7465726661636500232DEA
:10AF9C00302B2000686C4C006566674546470030D6
:10AFAC003132333435363738394142434445460023
:10AFBC003031323334353637383961626364656623
:04AFCC000000000081
:08AFD000E5680008296C000887
:04AFD800BD68000848
:10AFDC0001000000010000000024F400010000004A
:10AFEC000400000009024300020100C03209040001
:10AFFC0000010202010005240010010524010001DA
:10B00C00042402020524060001070582030800102F
:10B01C0009040100020A00000007050102400000BB
:10B02C0007058102400000001F960008BD9500082E
:10B03C00C994000800000000199300084D94000802
:10B04C001194000800000000000000000000000047
:10B05C00C193000869930008B99300085D93000838
:10B06C000A060002000000400100000009A10008CF
:10B07C00E1A00008E5A00008EDA00008E9A0000888
:10B08C001A03000000000000000000000000000097
:10B09C000000000000000000000000000403090490
:10B0AC001201000202020040830440570002010218
:10B0BC00030100005DA1000869A10008F5A10008CA
:10B0CC0011A200089DA100082DA2000849A20008A9
:10B0DC000000000010010020000000001C1C0020DB
:10B0EC00841C0020EC1C002000000000000000006C
:10B0FC000000000000000000000000000000000044
:10B10C000000000000000000000000000000000033
:10B11C000000000000000000000000000000000023
:04B12C00000000001F
:08B13000000000000000000017
:0400000508006F0D73
:00000001FF
