:020000040800F2
:10680000B81F0020D9680008A9840008798300080F
:106810000000000000000000000000000000000078
:106820000000000000000000000000005788000881
:106830000000000000000000558800086388000880
:10684000EB680008EB680008EB680008EB680008DC
:10685000EB680008EB680008EB680008EB680008CC
:1068600059A40008EB680008EB680008EB68000812
:10687000EB680008EB680008EB680008EB680008AC
:10688000EB680008EB680008EB680008EB6800089C
:10689000EB680008EB680008EB680008EB6800088C
:1068A000EB680008EB680008EB680008EB6800087C
:1068B000EB680008EB680008EB68000805488546AF
:1068C00000F0A4F800F052F80048004761AB00085F
:1068D000C046C046B81F002004488047044800470F
:1068E000FEE7FEE7FEE7FEE7FEE7FEE7E1880008D9
:1068F000BD68000830B50B46014600202022012467
:1069000009E00D46D5409D4205D31D469540491BE3
:106910002546954040191546521E002DF1DC30BD2C
:10692000D2B201E00270401C491EFBD27047002227
:10693000F6E710B513460A4604461946FFF7F0FF7E
:10694000204610BD0321001D401E037812021A4389
:10695000491EF9D510467047034603220870000A05
:10696000491C521EFAD518467047000070B5054CF8
:10697000054D03E0206800198047241DAC42F9D181
:1069800070BD0000B0AC0008B4AC0008F0B51FB496
:106990000646002082B005464024019100901BE08D
:1069A000019922460F46304600F042F8049A059BB2
:1069B000801A994110D310461946224600F016F865
:1069C000361A8F410197224601200021009F00F0D6
:1069D0000DF838184D4100902046641E0028DFDC79
:1069E000019B00982946324607B0F0BD10B5202A19
:1069F00004DB0146203A9140002010BD9140202345
:106A00009C1A0346E3401943904010BD064C0125F3
:106A1000064E05E0E36807CC2B430C3C9847103446
:106A2000B442F7D3FFF74EFF90AC0008B0AC0008BB
:106A300010B5202A04DB0846203AD040002110BDC2
:106A40000B46D340D0402024A21A91400843194657
:106A500010BD70B58C180578401C6B075B0F01D119
:106A60000378401C2A1106D10278401C03E0067806
:106A70000E70401C491C5B1EF9D12B0705D4002366
:106A8000521E0DD40B70491CFAE70378401CCB1A38
:106A9000921C03E01D780D70491C5B1C521EF9D539
:106AA000A142D8D3002070BD00207047002070475D
:106AB00010B500220449054802F09CF90449034836
:106AC00002F086F9002010BD90130020B4060020CB
:106AD000900B002010B50146034802F079F90248F6
:106AE00002F022F9002010BDB406002000207047FB
:106AF0000A4610B50849C96BFF31FF3102314969B7
:106B0000002901D0012010BD0146044802F072F9AD
:106B1000024802F0E9F910BD34090020B406002053
:106B200072B6FEE730B51A4C3523026817491B01CF
:106B3000A24200D117498032016414681F252D0438
:106B4000AC43858E2D042C4314600A467032426497
:106B50000268803214680F252D06AC43058F2D0680
:106B60002C4314600A46B0328264D832C2641322C5
:106B700052018A1802654F22D2008A18426500220B
:106B8000C81800E004C18142FCD330BD00B400400D
:106B90000068004050B7004070B5044600F0DEF9D0
:106BA0000546601C02D004480078241800F0D6F98D
:106BB000401BA042FAD370BD70000020F8B504005D
:106BC00005D025464035287F002802D006E0012068
:106BD000F8BD00206877204600F0C2F8206881697F
:106BE00010229143816100F0B9F90746012604E0C3
:106BF00000F0B4F9C01B0A2810D82068806900078B
:106C0000F6D4206881693143816100F0A7F9074615
:106C10000AE000F0A3F9C01B0A2805D9206E304312
:106C2000206603202877D2E720688069C007F0D06B
:106C300020688169022211438161474821688142AD
:106C400002D1464960680860207C40210128206804
:106C500082693AD00A438261607C0121890301285C
:106C60002068826933D08A438261A07C01210903B4
:106C70000128206882692CD00A43826121688869D2
:106C8000032212029043A268104388612068816940
:106C9000A4229143816121680A69102082430A611C
:106CA000E168012917D000291DD02022022916D021
:106CB00021688B6980273B438B6121680B69034303
:106CC0000B61E06803280AD00DE08A43C3E70A435A
:106CD000CAE78A43D1E720688169042201E020687D
:106CE000816911438161207E7F2140064906401859
:106CF000E1690902FF3901390843216A491E084345
:106D0000A18A0A0401210904521A10432268D061A1
:106D10000320A2680002824210D1E26AA06A120235
:106D2000FF3A401E013A1043226B1201103A104301
:106D3000A28C1204511A08432168C8602068803070
:106D4000016CE26B114301642046FFF7EBFE00206B
:106D5000A06520662E77F8BD006400400065004005
:106D600010B59AB00446142113A8FFF7E0FD4C219A
:106D70006846FFF7DCFD16492068884225D10120CE
:106D80004006002400901294684600F08DFE002812
:106D900001D0FFF7C5FE0F48C26B81140A43C263DE
:106DA000C26B0A401892426B02210A434263406B55
:106DB00013AA084018900320000213C20320179062
:106DC00013A91694044800F009F81AB010BD000089
:106DD000006400400010024000040050F0B50023A1
:106DE00003249DE001259D402A4072D00E79B6070C
:106DF000B60F012E01D0022E16D186682746B44662
:106E00005E00B646B7406646BE43B446CF68764697
:106E1000B7406646374387604668AE430D79ED0656
:106E2000ED0F9D40354345600D79ED43AD0708D02A
:106E3000C5685F002646BE40B5438E68BE402E43FF
:106E4000C6600D79AD07AD0F022D0ED1DD08AD0086
:106E50002D18AC462D6A5E07F60E0F27B740BD43CE
:106E60000F69B7402F4365462F6205685F002646CD
:106E7000BE40B5430E79B607B60FBE402E4306603E
:106E80004D68AD03AD0F4AD09E08284DB600751968
:106E9000AC462D6E9E07F60E0F27B740BD43052763
:106EA0003F07B84201D1002715E0214FB84201D178
:106EB000012710E01F4FB84201D102270BE01E4FFF
:106EC000B84201D1032706E01C4FB84202D1042783
:106ED00001E024E00527B7402F43144D664637668E
:106EE0002D684E689543F60200D515430F4F3D605F
:106EF0007D684E689543B60200D515437D600B4E04
:106F0000803675684F689543BF0300D5154375609B
:106F100035684F689543FF0300D5154335605B1C0A
:106F20000A681546DD4000D05CE7F0BD001802405D
:106F30000004005000080050000C005000100050E9
:106F4000426913460B401B0491430B438361704716
:106F5000002A01D0816170478162704701488068D2
:106F6000704700007000002002488168027889188C
:106F7000816070477000002010B508480024016847
:106F8000821511430160032000F00AF8002801D0A7
:106F9000012401E000F028F8204610BD0020024046
:106FA00070B50F4E002431780546002915D07D209C
:106FB000C000FFF79FFC01460A480068FFF79AFCF3
:106FC00001F0C2F9002808D1042D06D2002229467A
:106FD000401E00F02FF8756000E00124204670BDCF
:106FE000700000207C00002008B50B4801680122D9
:106FF0001143016000681040009007484038C26BA0
:1070000001040A43C263C06B0840009003204002A1
:1070100001F090F908BD000040100240002805DB97
:10702000C106C90E01208840014908607047000070
:1070300000E100E010B503F05DFA10BDBFF34F8F23
:1070400004490348C860BFF34F8F00BFFDE700004D
:107050000400FA0500ED00E010B50523DB01012274
:10706000C31801685A650B240023A4010019037397
:10707000486D10434865486D022210434865184624
:1070800010BD0000F8B505460520C0010E4C0627CE
:107090002E1800290BD0012908D1F06D02F064FAF6
:1070A000E87A002802D0206938432061F8BDE87AE8
:1070B000002804D001F0D9FB2069B8432061F06DAD
:1070C00002F0E6F9F8BD000000ED00E010B50C0696
:1070D00006D54907490F282461430818143004E0F5
:1070E000282461430818FF30553099B2002A06D091
:1070F000012202730181190C4181002010BD002280
:107100000273C180F9E728224A4310B512180523FB
:10711000DB01C018926AC06D02F072F810BD28221F
:107120004A43121810B50523FF32DB010132C018A3
:10713000926EC06D02F0BCF810BD70B5CD09490764
:10714000490F0A4628235943091801230024002D1A
:1071500002D04B75143102E0FF3155314C700A708A
:107160000522D20185182A7D012A06D02B750068D8
:1071700002F08CFD2C75002070BD022070BD70B532
:107180000A070379120F9A4201D9012070BDCD0977
:107190004907490F0A4628235943091801230024A7
:1071A000002D02D04B75143102E0FF3155314C7087
:1071B0008C700A700522D20185182A7D012A06D01A
:1071C0002B75006802F0F8FD2C75002070BD0220C0
:1071D00070BD0000F8B50C460646174600680978F1
:1071E000520427D501F006FBA1690546A94203D345
:1071F000481BA06102D00DE00020A0612078326819
:1072000081005058224B184001235B035840214B0A
:1072100018435050780609D52078326881005058BC
:107220001D4B18401B4B403318435050002D2DD0A0
:10723000228926E001F0EEFAA1690546A94203D3AE
:10724000481BA06102D00DE00020A06120783268C8
:10725000810050580E4B184001235B0358400D4BE2
:1072600018435050780609D420783268810050586D
:10727000094B1840074B403318435050002D05D0A0
:10728000628961692B46306803F0A8F82846F8BD8A
:107290008FBFFF07808000008F8FFF07F7B506467E
:1072A00002980F460C4642062037CC4D09783068CC
:1072B000002A71DA01F09EFAA169814214D9091AF3
:1072C000A16113D0029949040AD5217833688A0054
:1072D00099589C46C24B1940C24B1943634699507A
:1072E000397901294AD068E10020A061607800283E
:1072F00002D001280FD039E02078C0004019016881
:107300008901890901602078C000401901680122C3
:10731000D207114309E02078C0004019016889B202
:1073200001602078C0004019016801606078002881
:1073300002D001280FD019E02078C0004019416820
:107340008901890941602078C00040194168012203
:10735000D207114309E02078C0004019416889B282
:1073600041602078C0004019416841602178304672
:10737000FFF7C9FE0298400473D41EE16169091841
:107380006161E1690918E1612269216A914204D3CE
:107390001046091A216206E049E0002909D00022BE
:1073A0003A71084622626178002905D001292ED061
:1073B0003AE000213971F6E72178C90049190A68D5
:1073C000920192090A603E280CD94109C20600D1F7
:1073D000491E2278D2005219136889060125ED074B
:1073E00029430AE000280BD04108C20700D0491CFD
:1073F0002278D2005219136889060B43136013E0F8
:107400002178C90049190A680123DB070AE02178BD
:10741000C90049190A6892B20A602178C90049195D
:107420000A6803041A430A6083B22289C1E001F0AA
:10743000F1F9A169814215D3091AA16114D0029909
:1074400049040AD4217832688B00D1589C46644B99
:107450001940644B19436346D1503979012954D0FE
:10746000ABE048E00020A0616078002802D001284D
:107470000FD039E02078C0004019016889018909DE
:1074800001602078C000401901680122D207114331
:1074900009E02078C0004019016889B201602078B5
:1074A000C0004019016801606078002802D00128FE
:1074B0000FD019E02078C00040194168890189097E
:1074C00041602078C000401941680122D207114371
:1074D00009E02078C0004019416889B241602078F5
:1074E000C00040194168416021783046FFF70BFE2B
:1074F0000298400461D42078326881005058384B9B
:107500001840384B1843505057E0616909186161C1
:10751000E1690918E1612269216A914203D31046A9
:10752000091A216205E0002902D0084600212162E3
:1075300039716178002902D001292BD037E02178F8
:10754000C90049194A68920192094A603E280CD93B
:107550004109C20600D1491E2278D200521953684F
:1075600089060125ED0729430AE000280BD04108D0
:10757000C20700D0491C2278D200521953688906EC
:107580000B43536013E02178C90049194A6801236D
:10759000DB070AE02178C90049194A6892B24A60BB
:1075A0002178C90049194A6803041A434A6062896C
:1075B00083B26169306802F057FF20783168820039
:1075C0008858074B30331840102358402023584028
:1075D000054B184388500020FEBD00000098004075
:1075E0008F8FFF0780C00000808000004907490F8F
:1075F000282251430818FF300130006F7047F8B55A
:10760000CD094907490F0F4628246143091801266F
:107610000024002D02D04E75143102E0FF315531A7
:107620004C700F700A61CB70022B00D10C710522D7
:10763000D20185182A7D012A06D02E75006802F035
:10764000D3F920462C75F8BD0220F8BD10B54C07C3
:10765000640F282161430918FF3155318B614A615C
:107660000022CA614A700C70006802F0FFFB002023
:1076700010BD70B54B0702795B0F934201D9012011
:1076800070BDCD0900240122002D05D028215943C9
:1076900009184A75143105E0282569430918FF3196
:1076A00055314C708A700B700523DB01C5182B7D9A
:1076B000012B06D02A75006802F0BCFB2C75002057
:1076C00070BD022070BD70B54C07640F2821614366
:1076D0000918CB628A62012238256A544B63002361
:1076E0000B634A750C750068143102F0BFFB002073
:1076F00070BD000070B50446006802F06DFE474999
:10770000096A490704D5010403D5204600F0CEFEDE
:1077100070BD41050CD52068416C414A114041645F
:10772000204600F019F90021204600F047F970BD0D
:10773000410403D52068416C3A4A6CE0810403D5CA
:107740002068416C384A66E00B218901C504042297
:1077500008236118002D17DA2068056C954305642D
:107760002068026C9A430264087B012805D100203E
:10777000087301462046FFF785FC204600F000F91B
:107780002068416C294A46E005050DD52068016C4A
:10779000194301642068416C254B194041642068FD
:1077A000016C1143016409E0050623D52068456C8E
:1077B000204E35404564087B002803D0204600F069
:1077C00031F970BD2068056C154305642068026CB2
:1077D0001A430264012008732068406D3C21800830
:1077E00008400521C9016118086501212046FFF7FD
:1077F00049FC70BD810508D52068416C0E4A1140D6
:107800004164204600F0D2F870BDC005FCD5206868
:10781000416C084A803A1140416470BD80000140CB
:10782000FFFB0000FFBF0000FFDF0000FFEF0000D4
:10783000FFF700007FFF0000FFFD0000F8B5040027
:1078400007D00520C0012618707D0025002802D031
:1078500005E00120F8BD3575204600F03DF8032015
:107860007075206802F0A0FA002001270AE02821A4
:10787000414309194F750875CD754D628D62401CE5
:10788000C0B2CD6221798142F1D800220FE02820D8
:10789000504300190146FF3141314D750A75FF30E3
:1078A0000130CD7545668566521CD2B2C566207919
:1078B0009042ECD8207C694608700FCC103C02F056
:1078C00064FA65747775207B012802D12046FFF7A2
:1078D000C3FB0020F8BD000030B595B004464C2134
:1078E0006846FFF724F81A49206888422ED1012003
:1078F0000006009000201190684600F0D5F800289E
:1079000001D0FFF70DF9134CE16B01204003014357
:10791000E163E16B01401391E06BC0000CD4E06BBC
:1079200025042843E063E06B2840139000F0B4F88E
:10793000E06BA843E06301E000F0AEF800221146DE
:107940000820FFF777FB0820FFF768FB15B030BD74
:10795000005C00400010024070B50446C07901256B
:10796000022801D0FFF7DCF80520C00124182946C1
:10797000E06D01F0A7FDE06D01F059FD70BD000064
:1079800010B50446C07A002806D0074801690622CF
:107990009143016100F069FF0520C0012018C06D0E
:1079A00001F076FD10BD000000ED00E0052110B5EE
:1079B000C9014018C06D01F075FD10BD10B505225C
:1079C000D2018418227D012A08D001222275417437
:1079D000006802F03AFD0020207510BD022010BDA5
:1079E000052110B5C9014118CA6DA72189004118A8
:1079F000104601F075FD10BD70B504460520C001AC
:107A00002518287D01280AD001202875206802F059
:107A1000DBFC206802F0B2F90020287570BD02205E
:107A200070BD000010B504460520C0012018C06DCF
:107A300001F09AFDE07A002804D00348016906228B
:107A40001143016110BD000000ED00E010B50F4CC6
:107A5000216803225202914301432160C11FFF3973
:107A6000FA390ED10A480621006848430949FEF751
:107A700041FF401C02E0002805D0401E6169490515
:107A8000F9D4002010BD032010BD0000007000409C
:107A90007C00002040420F0002484168021511435B
:107AA0004160704700700040FEB504460068002742
:107AB000984D994E800355D500200090F06BC00082
:107AC00007D4F16BA8050143F163F16B014001207C
:107AD000009092480168821511430160FFF73EFA59
:107AE000019005E0FFF73AFA0199401A022825D8DB
:107AF0008A480068C005F5D5E869032109020840F5
:107B00000FD0216C81420CD0E86903210902EA6997
:107B10008843012109040A43EA61EA698A43EA6168
:107B2000E861C0070FD0FFF719FA019008E0FFF7EE
:107B300015FA0199411A7A48814201D9032709E0CF
:107B4000E8698007F3D5E869032109028843216CBD
:107B50000843E8610098002804D0F16B0120000779
:107B60008143F1632078C00705D0686961688008A7
:107B70008000084368612078800705D568690C217A
:107B80008843A168084368612078400705D5686983
:107B900030218843E168084368612078C00606D533
:107BA0006869032189028843216908436861208844
:107BB000C00406D568690321090288436169084346
:107BC00068612088800506D5686903218904884397
:107BD000A16A084368612088400506D568690321C9
:107BE00009058843E16A084368612078800606D564
:107BF0006869032109038843A16908436861207803
:107C0000400606D56869032189038843E169084372
:107C10006861208840040ED56869216B8000800867
:107C2000084368610121206B8907884203D1F0680D
:107C300089130843F0602068000305D56869402176
:107C40008843616B084368612068810235480BD521
:107C500069698210A36B914319436961A16B9142D9
:107C600002D1F1680143F160216849020AD56969CE
:107C7000E26B814311436961E16B814202D1F1689A
:107C80000143F160218809050DD5A969226A890897
:107C900089001143A961216A012904D1F1680122F7
:107CA00012041143F160218889040DD5A9690C22C1
:107CB0009143626A1143A961616A042904D1F168A0
:107CC000012212041143F1602168C9010ED5A9698E
:107CD000032212039143626C1143A9610122616C7A
:107CE0005203914202D1F1680143F1602168890198
:107CF0000DD5A969032212029143A26C1143A96117
:107D0000A26CD11FF93902D1F1680143F160384604
:107D1000FEBD000040100240001002400070004014
:107D20008813000000000001F8B50F46060043D09C
:107D30004D4D28684007400FB84213D22868C0084C
:107D4000C00038432860FFF709F9044605E0FFF753
:107D500005F9011B4548814261D828684007400F5A
:107D6000B842F4D13068424C81070DD5400704D5A4
:107D7000A068072109030843A060A0680F21090239
:107D80008843B1680843A0603078C00732D070687B
:107D900001280AD002280BD000280FD034494031E6
:107DA00003280ED0C969890704E02168890301E02E
:107DB00021688901002906DB0120F8BD21684905F9
:107DC000F8E7096AEFE7A168C908C9000143A160A3
:107DD000FFF7C4F8009006E0FFF7C0F80099411AD9
:107DE000224881421BD8A068382108407168C90028
:107DF0008842F1D128684007400FB84217D91A4885
:107E00000168C908C90039430160FFF7A7F80546B2
:107E100007E0FFF7A3F8411B1448814201D9032072
:107E2000F8BD114800684007400FB842F1D13078E2
:107E3000400706D5A068072109038843F168084375
:107E4000A06000F01DF8A1683C2289091140094A90
:107E5000515CC906C90EC840074908600748006858
:107E6000FFF79EF8F8BD00000020024088130000D4
:107E70000010024050AC00087C000020740000207C
:107E800010B51C4CA0688006410F1B4815D0A16896
:107E90008906490F01290FD0A1688906490F0229D7
:107EA00011D0A0688006400F04281DD0A06880066D
:107EB000400F03281BD0002010BD216889044A0F01
:107EC000012191400DE0E168E1684906490F491C34
:107ED000FEF710FDE1684904490E4843E168490F87
:107EE000491CFEF707FD10BD0120C00310BD7D2019
:107EF000000210BD001002400024F400F8B5040098
:107F00007ED020783827C007FE4D002846D0A868CC
:107F1000E96838408907890F102802D008280BD05B
:107F200001E0032908D001206268000482420AD1DE
:107F300029680143296015E0286880032ED5606810
:107F40000028DDD02AE0052301211B0489049A4280
:107F50002A6802D10A432A60EAE782432A60286835
:107F600088432860606800280CD0FEF7F7FF0646BB
:107F700004E0FEF7F3FF801B642873D828688003B1
:107F8000F7D50BE0FEF7EAFF064604E0FEF7E6FF52
:107F9000801B6428F1D828688003F7D420788007F4
:107FA00069D5A868E96838408A070721920FC90295
:107FB000102802D0002813D001E0022A10D0E06877
:107FC000002846D02868884321690843286028682B
:107FD000FF21013108432860FEF7C0FF06462CE070
:107FE0002A68520502D5E268002A89D06A687F2390
:107FF0001B029A4363691B021A436A60002800E06F
:108000008DE00ED1286888432169084328602868DC
:1080100001218004400F8140BB48FEF76BFCBB4947
:108020000860BB480068FEF7BBFF002877D122E05C
:10803000FEF794FF801B02289FD828684005F7D5DB
:1080400068687F2109028843616909020843686002
:1080500011E02968FF20013081432960FEF77EFF8F
:10806000064605E0B5E0FEF779FF801B022884D8BC
:1080700028684005F7D42078A64E00072ED5A868BA
:108080008006400F03280AD0A0690028306A16D065
:10809000012108433062FEF761FF07460BE0306ABA
:1080A00080071BD5A06900289FD017E0FEF756FF78
:1080B000C01B0228C0D8306A8007F7D50EE0400800
:1080C00040003062FEF74AFF074604E0FEF746FF35
:1080D000C01B02287DD8306A8007F7D4207840077B
:1080E0006BD5A86800278006400F042818D0E86BDD
:1080F000C00008D4E96B012000070143E963E96B84
:1081000001400127009184480168C90519D401681C
:10811000821511430160FEF721FF00900DE083E01E
:10812000F069800749D5A06800287DD045E0FEF7BA
:1081300015FF0099401A02284BD877480068C005FF
:10814000F5D5A168012910D004200529F16911D0C5
:1081500049084900F161F1698143F161A068002893
:1081600016D0FEF7FBFE00900EE0F06901210843F7
:10817000F061F3E70143F161F7E7FEF7EFFE0099E5
:10818000411A6648814224D8F0698007F5D50DE090
:10819000FEF7E4FE009006E0FEF7E0FE0099411ACB
:1081A0005E4881427FD8F0698007F5D4002F04D063
:1081B000E96B012000078143E9632078800624D51C
:1081C0000120E16980050029296810D00143296058
:1081D00000E068E0FEF7C2FE064604E0FEF7BEFEE1
:1081E000801B02285FD828680002F7D50DE0814384
:1081F0002960FEF7B3FE064604E0FEF7AFFE801BE3
:10820000022850D828680002F7D4206A002844D0F9
:10821000A9688906490F02294FD00126360602288F
:10822000286807D0B04300E07FE02860FEF796FEA4
:1082300004463AE0B0432860FEF790FE074604E0AB
:10824000FEF78CFEC01B02282DD828688001F7D4C9
:10825000A16A606AE26A0843216B12021143084373
:10826000616B0843A16B0843E9682D4A114008433C
:10827000E860286830432860E8680121090708435E
:10828000E860FEF76BFE044604E0FEF767FE001BA5
:10829000022808D828688001F7D548E0FEF75EFE7E
:1082A000001B022801D90320F8BD28688001F5D4FD
:1082B000E8681C490840E86039E00128F4D0E86823
:1082C000626A8107890F91422FD17021A26A014011
:1082D00091422AD17F21E26A0902014012029142B1
:1082E00023D11F214904226B014091421DD1072156
:1082F0004906626B0140914217D1400FA16B4007C4
:10830000884211E0001002400024F4007C000020AC
:1083100074000020401002400070004088130000EC
:108320008C80C111FCFFFEEE01D00120F8BD0020C1
:10833000F8BD000003490A6803235B029A43024325
:108340000A60704700000140094910B5401E88428C
:1083500001D9012010BD074C60610321081F02F004
:10836000C9F80020A06107202061002010BD000096
:10837000FFFFFF0000E000E0FEE770B500231D46B0
:108380000EE0040F0A2C02D25E00303401E05E00E1
:1083900037348C555C00641800015B1C6570DBB2DF
:1083A0009342EED370BD000010B510480E49016035
:1083B000002141608160C1600174417481741022A8
:1083C000426102230122C361826142628262C2620F
:1083D0004163816303620263C163FEF7EFFB002820
:1083E00001D0FEF79DFB10BD00640040500100204D
:1083F00030B587B014216846FEF799FA1448426BED
:1084000020210A434263426B0A400592416B0124DA
:1084100021434163416B21400591426B02210A4394
:108420004263406B052508402D0705900022072177
:108430002846FEF78DFD0021072002910391009050
:10844000019469462846FEF7C9FC07B030BD00001C
:108450000010024010B500220F49104800F0A7FE9E
:10846000002801D0FEF75CFB0D490C4801F0A4F890
:10847000002801D0FEF754FB0A49084800F078FCB8
:10848000002801D0FEF74CFB044801F019F9002840
:1084900001D0FEF745FB10BD08000020B406002007
:1084A000D80000205C000020FEE70000FEB5044676
:1084B0008FE1416C89B20F073F0F2CD0BE0081596C
:1084C00089B2019109046ED58159C54A11408022B3
:1084D00011438151282078430519FF355535287BF4
:1084E00000287DD0E87802287BD028782168820097
:1084F0008858BC4B1840BC4B1843885029782068DA
:108500008A00825852046DD500F074F9009000285A
:1085100069D02A89BBE0C90626D40268B1498039EE
:108520000A400121C9030A430260207D2546C1009B
:10853000AE481435081800688001800D2063A16AD8
:108540000818A06200212046FEF7DDFD607C0028AF
:10855000AED0A8690028ABD1607C80210843216897
:10856000C8640020607434E12546FF350168553544
:1085700089B20A0518D5297800F05CF9E86103464C
:10858000EA88A720800025682118284601F026FFE8
:1085900021680868924A10408022104308602046F3
:1085A000FFF71EFA15E18FE00904DCD501688C4A5B
:1085B00011408022114301602978206800F03AF9C7
:1085C000E861002814D06969002911D00346EA88BF
:1085D000206801F003FFE96968694018002103E0A1
:1085E0003FE047E04DE04BE068612046FEF797FD35
:1085F0002068006880B20105B5D48004800F03288C
:10860000B1D07A4A506880018009506028693E28BC
:108610000BD94109C00600D1491E536888060121C3
:10862000C90708430343536009E0002815D04108F7
:10863000C00700D0491C5068890608435060216873
:1086400008686B4A1040012212035040520050400B
:10865000654A403A10430860BBE050680121C907F1
:10866000EBE72978206800F0E5F80090002813D0A7
:10867000EA880CE029462046019AFEF7ABFD0090FF
:108680000AE000F0C7F80090002805D06A896969FF
:108690002068009B01F0A2FEE86900994018E8619B
:1086A0006869009940186861A869002803D02969A1
:1086B0000098814204D929782046FEF730FD03E076
:1086C0002946206801F0D2FB0198000628D5282011
:1086D0002268474390593919424B803B1840012387
:1086E000DB0318439051C87D1431012819D001983B
:1086F000C0056AD40878C2003C48101800688A692E
:108700008001800D824259D9121A8A6158D04A6973
:1087100012184A61CA691018C861206801F0A6FBE6
:1087200057E000208861087B002849D00198400666
:10873000487821D5002802D0012810D040E00878E0
:108740002A4AC000801803689B019B0903600878CF
:10875000C000801802680123DB071A430AE008788A
:10876000224AC000801803689BB203600878C000EA
:1087700080180268026023E0002802D0012810D08F
:108780001EE00878C2001948121853689B019B0923
:1087900053600A78D200101842680123DB071A439D
:1087A0000AE00878114AC000801843689BB2436011
:1087B0000878C00080184268426001E000208861AB
:1087C00009782046FEF79FFC03E02046019AFEF759
:1087D00065FD2068416C090400D56AE60020FEBDF5
:1087E0008F0FFF078F8FFF07C080000000980040A9
:1087F0008FBFFF0708B50A200090401E0090FCD1F3
:10880000C8000349401800688001800D08BD0000C1
:108810000098004008B50A200090401E0090FCD14E
:10882000C8000349401840688001800D08BD000061
:108830000098004008B50A200090401E0090FCD12E
:10884000C8000349401840688001800D08BD000041
:108850000098004070477047017840780002084354
:10886000704710B5FEF780FB10BD30B593B03C21CA
:108870006846FEF75CF8002401200F9410941194D0
:1088800040021294FFF7E2F821200090012000043A
:108890000190800107900320099002250F200B9082
:1088A00028040C900720089540060D9003204007EF
:1088B0000E900A946846FFF721FB002801D072B69B
:1088C000FEE707200F9011940221109512940FA833
:1088D000FFF72AFA002801D072B6FEE713B030BDC8
:1088E0007047000010B50A46024903A000F030FCB2
:1088F000004810BD9009002043444320436F6E663A
:1089000069670000F3B505460520C0012E18726D99
:10891000B16C920052191218146C81B0002C29D03D
:10892000029814220007000F42435719BA69002A1F
:1089300008D0282358434018416A1046FDF7DAFF53
:10894000002919D0E01D0022FF30FA3001464261B3
:10895000726D05209200C00152191018406C036915
:10896000002B05D08868212109016118029A9847D7
:108970000020FEBD0320FEBD0020B8610346024674
:108980002846029900F0F9FDF2E7F8B50525ED015A
:1089900006464719786D800080194019046C002C38
:1089A00014D0304600F0CCFC0146E01DFF30FA3018
:1089B000C160796D4068890089194919496CCA6894
:1089C00083218900611890470020F8BD0320F8BD7D
:1089D000F8B5204D0446297800F008FC28781421C9
:1089E0000007000F48430026001986846978204656
:1089F00000F0FCFB687814210007000F48430019C1
:108A0000FF3041308684A978204600F0EFFBA8783B
:108A100014210007000F4843001986844D01C684C5
:108A20006719786D800000194019016C00290FD07A
:108A3000406C40688047786D800000194019006CD8
:108A400000F0CDFF786D8000001940190664FE63C8
:108A50000020F8BD840000201220088000487047E4
:108A60002C000020052110B5C9014218526D92005A
:108A700010184018016C00290FD0436C002B0AD04D
:108A8000CC1DFF34FA342078FF2804D09B6862782C
:108A90009847FF202070002010BD032010BD00006B
:108AA0000A210180004870478800002070B5064602
:108AB0008221104800F022FB054601210D4800F0FC
:108AC0001DFB044681210B4800F018FB002D01D04E
:108AD0001021A9714021002C02D021710A0A627173
:108AE000002802D00171090A4171432030800148F9
:108AF00070BD00009400002070B506468221104829
:108B000000F0FCFA054601210D4800F0F7FA044692
:108B100081210B4800F0F2FA002D01D01021A9713B
:108B200001214902002C02D021710A0A6271002839
:108B300002D00171090A417143203080004870BDA4
:108B40009400002070B506468221104800F0D6FA45
:108B5000054601210D4800F0D1FA044681210B4859
:108B600000F0CCFA002D01D01021A9714021002C79
:108B700002D021710A0A6271002802D00171090A2B
:108B8000417143203080014870BD000094000020F6
:108B9000F8B504468720800000F022FF0525ED018E
:108BA0006719064600285ED087218900FDF7BFFEC1
:108BB000796D28468900091908180664FE63207C2F
:108BC000374D002857D0402302222978204600F054
:108BD00017FC287814220007000F504301210019C8
:108BE0008184402302226978204600F009FC6978DC
:108BF00014220907090F51430919FF31012041319E
:108C00008884A97810200907090F51430919C884DD
:108C100008230322A978204600F0F2FBA978142249
:108C20000907090F514301200919FF368884FF36CF
:108C3000002002367060796D50018900091908180A
:108C4000406C0068804700207061B0617268002A43
:108C50000FD0207C00281FD040236978204600F0E8
:108C6000DCFB0020F8BD796D002089000919491945
:108C700008640220F8BD01235B0202222978204605
:108C800000F0BEFB297814220907090F5143012087
:108C9000091988844302A5E701235B02DDE7000090
:108CA0008400002010B50A46024903A000F050FAE3
:108CB000004810BD9009002043444320496E74656C
:108CC00072666163650000000420088000487047F8
:108CD0002800002010B50A46024903A000F038FA27
:108CE000004810BD9009002053544D6963726F65B0
:108CF0006C656374726F6E696373000010B50A4629
:108D0000024903A000F024FA004810BD9009002099
:108D100053544D3332205669727475616C20436F21
:108D20006D506F7274000000052110B5C901421822
:108D3000526D920012185118096C00290DD0027C56
:108D40000A4C002A0BD0FF31FF3102314A68402320
:108D5000617800F062FB002010BD032010BDFF31E0
:108D6000FF31023101235B024A68F1E784000020F1
:108D7000002909D00522D20183185B6D9B001818C9
:108D800080184164002070470320704770B51A2096
:108D900008800C480C4C456901698069081809D0A5
:108DA0000822A11CFFF7E9FA2146042212312846C5
:108DB000FFF7E3FA05480322A11CFFF7DEFA024899
:108DC00070BD00008075FF1F400000200000A0AAB9
:108DD0000522D20183185B6D9B0018188018006C67
:108DE000002805D0FF30FF3002304160002070477E
:108DF0000320704710B50523DB01C418646DA4007F
:108E00002018C018006C002806D0FF30FF30023058
:108E100002618160002010BD032010BDFEB50C462C
:108E200005210746C9014018426D6B469200D219D0
:108E3000511800220E6C1A709A801546002E06D02A
:108E4000237860221A402BD0202A45D101E003204C
:108E5000FEBDE288002A1CD018060AD5496C60784D
:108E60008B6831469847E288072A00D907223146A5
:108E70002BE0F11DFF316278FA310A70E08840285A
:108E800000D34020C2B24A703146384600F081F823
:108E900027E0496C60788B6800222146984720E0E3
:108EA0006178002906D001291BD00A2908D00B2996
:108EB00012D10EE0007F03280ED1022201A904E0A6
:108EC000007F032808D101226946384600F07EF869
:108ED00007E0007F032804D02146384600F04FF811
:108EE00003252846FEBD000070B50521C9014218C2
:108EF000526D9200121851180A6C0121002A06D0F6
:108F0000FF32FF3202325369002B02D011E00320FE
:108F100070BD0121516108491425097814690B07B6
:108F20001B0F6B431B189C611369926800F025FBB3
:108F30000021084670BD00008400002010B5052205
:108F40000024D2018218926B52689047002800D00A
:108F50000324204610BD00207047002070471346B0
:108F600010B50A46002100F058FA002010BD134643
:108F700010B50A46002100F000FB002010BD10B51E
:108F80000446802100F0DCFA0021204600F0D8FAE7
:108F900010BD10B505240323E40104196361C31D4A
:108FA000F9339A65DA6513460A46002100F035FA6E
:108FB000002010BD052110B5CA018218516100239F
:108FC0001A46194600F029FA002010BD10B50524F4
:108FD0000223E4010419636182611346C2610A46F7
:108FE000002100F0CAFA002010BD052210B50421AE
:108FF000D2018218516100231A46194600F0BDFAC9
:10900000002010BDF8B50D460446002069460880D2
:1090100069880520C0010A0A2018062A42D006DC09
:10902000012A0FD0022A14D0032A5ED11EE0072A9B
:1090300041D00F2A59D1406BC26921E0207C69469A
:10904000904736E0406B227C03686946104698479B
:109050002FE0217C0226806B002905D0C16A68467A
:1090600088470146467030E0816AF8E7C9B20B00D4
:1090700001F032FA0604090C0F12153B406B4268EE
:10908000002ADBD131E0406B8268F9E7406BC268AF
:10909000F6E7406B0269F3E7406B4269F0E7406B2B
:1090A0008269EDE7217C00291FD1806B416B684606
:1090B0008847014609E0217C002916D1806B016BAD
:1090C00068468847072201464270EA88002A11D084
:1090D00068460088002808D0824200D902466846C7
:1090E00002802046FFF772FFF8BD29462046FFF7B1
:1090F00046FFF8BD2046FFF778FFF8BD78B50E466D
:10910000C17883780A02017800251A4304468A420E
:1091100015D96A4611800AE0694600F012F84178D4
:10912000052904D181780546B14208D00025E178AF
:10913000A278090211436A4612889142ECD8284667
:1091400078BD0A880378D2180A8001780818704719
:1091500070B5002300281DD00025044602E06D1CD8
:10916000EDB2641C2678002EF9D16C00A41C14808A
:109170001278CA5403225B1CCA5400245B1C06E00C
:10918000CA545B1CDAB28C54521CD3B2401C027815
:10919000002AF5D170BD01460020002904D0012924
:1091A00001D0022901D0032070470120704710B57B
:1091B00000280FD00523DB010024C3189C635C64E6
:1091C0001C65002900D0596301211977027000F055
:1091D000BFF810BD032010BD052210B5D2018018C4
:1091E000806CFDF7CCFFFFF7D6FF10BD052210B550
:1091F000D2018018806CFDF7A0FFFFF7CCFF10BDF7
:10920000F8B507460520C00100253C181346002983
:1092100003D0207F03283FD048E03E4660691436E3
:10922000022831D1B168F068814206D90A1A19467C
:109230003846B260FFF79BFE0DE0884212D171689C
:1092400081420FD3A06981420CD2002211463846D8
:10925000FFF78DFEA56100231A461946384600F037
:10926000DCF811E0207F032807D1A06BC16800293A
:1092700003D06565C168384688478021384600F0CC
:109280005FF93846FFF796FE15204001381801783F
:1092900000290BD0057009E0A06B4269002A05D0B7
:1092A0006565426938469047002800D10020F8BD26
:1092B000F8B506460520C0010023341817460029DA
:1092C00003D0207F03282FD038E03546FF35606972
:1092D0005535032832D1A968E868814209D90A1AAC
:1092E000AA60824200D3024639463046FFF737FE75
:1092F00024E0152040013018807AC006C00E03D04B
:10930000012802D0022800D00023207F032807D1A3
:10931000A06B0169002903D0636501693046884765
:109320003046FFF762FE09E0A06B8269002A05D093
:109330006365826930469047002800D10020F8BD5F
:10934000052210B5D2018018806CFEF74FF910BDD0
:1093500010B520490522C865D20184181E491F484E
:10936000A16408600820087148710220C871487221
:1093700000208872C872087348738873C8730874B1
:109380000846FEF75BFA002801D0FDF7C9FB002272
:1093900018231146A06CFDF799FE58230022802166
:1093A000A06CFDF793FEC02300228121A06CFDF785
:1093B0008DFEFF23113300220121A06CFDF786FEF4
:1093C000FF23013300228221A06CFDF77FFE0020E5
:1093D00010BD000054060020D4030020005C0040B3
:1093E000CA094906490E282359431B01C018806C3D
:1093F0000818002A01D0807D7047FF304130FAE71D
:1094000010B51C460523DB01C0181346806C2246AC
:10941000FEF7F5F8FFF7BFFE10BD10B50524E40117
:109420000019806CFEF712F9FFF7B5FE10BDF8B514
:109430000446052000260125C00121180D774E6144
:10944000152266605201A2184E621670886B0028C1
:1094500008D04268002A05D0002120469047002805
:1094600000D003260022402311462046FFF7C8FF04
:10947000FF20653005534027001F07513B4600225F
:1094800080212046FFF7BCFFA58430462762F8BD47
:109490000521C9014018017F042901D1417F0177CD
:1094A00000207047052110B5C90141180A7F032A21
:1094B00006D1896B002903D0C969002900D08847EB
:1094C000002010BD017400207047052210B5D201A4
:1094D0008018806CFEF772FAFFF75DFE10BD000089
:1094E00070B5054615482818044600F050F80520C8
:1094F0000121C00128184161018E816115204001C0
:109500002818807AC106C90E09D001290CD0022979
:109510000FD0C109C901284600F012F870BD2146DC
:10952000284600F0D1F870BD2146284600F01CFA0C
:1095300070BD2146284600F05BF970BDAA0200000C
:10954000052210B5D2018018806CFEF792F8FFF763
:1095500022FE10BD052110B5C9014018806CFEF730
:109560004BFAFFF718FE10BD0521C9014018017F15
:109570004177042101770020704710B50524E401EC
:109580000019806CFEF79FF8FFF705FE10BD70B55F
:10959000054608782870487868708C1C2046FFF7CC
:1095A0005BF96880A01C0446FFF756F9A880A01C50
:1095B000FFF752F9E88070BD38B500226B461A807B
:1095C000002913D00522D2018418A163616D89009E
:1095D00008188018806BC16A002902D01846884795
:1095E0002065A06D401CA065002038BD032038BD5B
:1095F00005230246DB01D3189B6B0020002B02D011
:109600001B68104618477047F3B581B004460298AE
:109610002A4E817800253170012905D9204602990A
:10962000FFF7ADFC0320FEBD0520C0012718387FE1
:1096300002280CD003281CD020460299FFF79FFC7B
:1096400031782046FFF77AFC03252846FEBD002925
:1096500030D020466160FFF7CBFF050004D02046E4
:109660000299FFF78CFC1CE02046FFF7BEFC0320AC
:1096700018E0002918D0606888421BD0C1B220468B
:10968000FFF75CFC317820466160FFF7B1FF050011
:1096900010D020460299FFF772FC21792046FFF78F
:1096A0004DFC02203877D0E70220387720466160F1
:1096B000FFF744FC2046FFF798FCC6E78000002037
:1096C00010B5FFF747FF10BDF8B5002200920B78E8
:1096D000602213400522D2018518002B0BD0202BCD
:1096E00001D0402B79D16B6D9B001B189A18926B9F
:1096F0009268904730E04C7800220126230000F069
:10970000EBFE0A40656C566C09066C2D296CFFF760
:1097100079FC64E004468888002819D1C8880028AC
:1097200016D14888802813D24706287F7F0E032849
:109730000ED0AF7739462046FFF7C7FE2046FFF729
:1097400054FC002F02D00220287748E02E7746E014
:10975000204642E0FFF758FF009040E0CB88012B05
:109760003BD12B7F012B04D0022B02D0032B34D111
:1097700004E0826001220146083115E00122011D4A
:1097800012E02A7F012A03D0022A01D0032A24D121
:10979000CA88022A21D1C660696A002901D0032142
:1097A000C160014602220C31FFF710FC17E04A8825
:1097B000012A02D0022A02D00FE06E6215E08988E9
:1097C0001522090A5201821811700EE02B7F012B1D
:1097D00007D0022B05D0032B03D0FFF7D0FB009856
:1097E000F8BD49880129FAD16A62FFF7FEFBF6E766
:1097F000F8B50646002000900F460C7908786021E5
:1098000008400521C901751800280CD0202801D076
:1098100040286ED121463046FFF79DFBFF2801D03E
:1098200000283ED09EE07878002844D0012826D039
:1098300003285ED1287F022802D0032859D10CE0EA
:10984000002C56D0802C54D021463046FFF778FEAD
:1098500080213046FFF774FE84E0788800280AD122
:10986000002C08D0802C06D0F888002803D121468F
:109870003046FFF765FE3046FFF7B7FB72E0287F02
:109880000228DDD0032869D1788800286AD16006D3
:1098900003D021463046FFF79FFC3046FFF7A5FB7B
:1098A000B8E76865A86B8268002A5BD03946304605
:1098B0009047009056E0287F022802D003284DD11F
:1098C00018E0002C01D0802C48D1E00906D06006B9
:1098D000400E142148438119143106E06006400E01
:1098E000142148438119FF315531002002220860BC
:1098F0002EE033E0E0090DD02007000F142148438B
:109900008019808C002829D06006400E48438519B4
:1099100014350FE02007000F142148438019FF3051
:109920004130808C002819D06006400E48438519CC
:10993000FF355535002C0FD0802C0DD021463046F8
:10994000FFF74EFD002807D001200222294628609B
:109950003046FFF73BFB05E00020F6E7394630468E
:10996000FFF70DFB0098F8BDF8B507460D460878DF
:1099700000246021084003D0202801D0402828D1AD
:109980000520C0013E18307F012803D0022801D0F5
:1099900003281ED1A888C1B201291AD8C1B23846FD
:1099A000FFF7DBFAFF280CD000280AD1B16B8A68D8
:1099B000002A06D070658A682946384690470446D2
:1099C00000E00324E888204307D13846FFF70DFB69
:1099D00003E029463846FFF7D2FA2046F8BD704723
:1099E00000487047B4010020F0B5002294460A7880
:1099F000940003599D4A1340CA78002A67D0012A6F
:109A00006CD0022A03D0032A64D001229446984ADB
:109A1000134303510D78AE008459964B1C402C43E0
:109A200014438451934C0D7B3034002D59D0CD78A4
:109A3000022D0D787DD0AE0085598F4F3D401543E6
:109A400085510D788D4EED00AD192E68360C36041B
:109A50002E600D78894EED00AD192E680F89BF0874
:109A6000BF003E432E600D78844EED00AD196E6848
:109A7000360C36046E600D78804EED00AF197D68AF
:109A80004E89B608B60035437D604D78002D0D78BF
:109A90007ED0AE0085596D0404D58559784F1D40A0
:109AA0003D4385510D78AE0085596D0605D5855924
:109AB0001D406F4B40331D438551CB78012B0B78F4
:109AC00067D09D004359234020246340C2E0012217
:109AD000520201E003225202134398E7012292024C
:109AE000FAE74D78002D29D00D78644FED00ED197F
:109AF0002E68360C36042E600D78ED00EF193D68A7
:109B0000CE88B608B60035433D600D78AE00855965
:109B10006D0605D585591D40554B40331D43855174
:109B2000CB78012B06D009788B00C1582140202426
:109B300050E065E009788B00C15891E00C78E500B1
:109B40004E4C2D196E68360C36046E600D78ED00A3
:109B50002D196E68CF88BF08BF003E436E600D7838
:109B6000ED002D196E68B601B6096E600E693E2EC5
:109B700010D97509F60600D16D1E0E78F60037195A
:109B80007C68AD060126F60735432C437C600EE069
:109B90003CE05CE0002E1FD07508F60700D06D1C7D
:109BA0000E78F60034196668AD062E4366600C78B0
:109BB000A5004459640404D544591C40304B1C434F
:109BC00044510978002910D08B00C1582D4C2140F8
:109BD00001246403614044E00D78ED002C196568B0
:109BE0000126F60735436560E1E70168254B19401A
:109BF00001231B0359405B0059401143016032E0CF
:109C0000AE008559204F1D403D4319E7AE008559F0
:109C10006D0404D585591A4F1D403D4385510D787B
:109C2000AE0085596D0605D585591D40104B403352
:109C30001D4385510B789D004359124E3340012638
:109C400036037340760073401343435172E79D001F
:109C5000435923401343435109788B00C158094CA1
:109C600021401143C1506046F0BD00008F89FF07BD
:109C7000808000008F8FFF078F8EFF0700980040C5
:109C800080C000008FBFFF0780810000F0B50A7818
:109C90000F7B364B4E78364D364C9200002F22D03B
:109CA000002E865840D0760403D5865826402E4391
:109CB00086500A7896008259520605D582592B4F54
:109CC000224040373A4382510A7896008259224016
:109CD0002A4382510A7894000259264D30352A4091
:109CE0001A43025117E0002E0ED085586D0605D597
:109CF000855825401D4C40342543855009788A00FD
:109D000081581C4C30340AE08658760403D58658B6
:109D100026402E43865009788A008158164C2140EF
:109D2000194381500020F0BD760403D586582640A3
:109D30002E4386500A7895004259520605D542595D
:109D40000A4E22404036324342510A789500425929
:109D50002240064C4034224342510A789400025972
:109D6000054D2A401A430251C8E7000080800000D8
:109D700080C000008F8FFF078FBFFF07816D01221A
:109D8000D203114381650020704700B503460120CE
:109D90001864186C4008400018640021184600F050
:109DA00043FB0021596400BD024A016C91430164E8
:109DB0000020704780BF000030B50A7B002A2FD1F9
:109DC0004A78184D002A184B0A7814D0940002598A
:109DD000520605D502592A40134D40352A430251F7
:109DE000CA78012A1CD009788A0081580D4C303479
:109DF0002140202411E094000259520404D5025954
:109E00002A400A4D2A43025109788A008158084C99
:109E100021400124240361406400614019438150C2
:109E2000002030BD8F8FFF078080000080C00000C1
:109E30008FBFFF0710B54A780978094B8900002ABF
:109E4000425803D0074C2240102403E0064C224025
:109E50000124240362401A434250002010BD000038
:109E600080800000BF8FFF078FBFFF07F8B54B78DA
:109E70000C460746FE4A087BD607012B08D000286F
:109E800073D0E078022871D0012870D00120F8BD8D
:109E9000A56921698D4200D90D46002817D0E078C8
:109EA0000228206A28D0401B20622078810079583F
:109EB00049067DD5C100EF4809184A6892B24A6048
:109EC0002178C900081841682A04114332E1ABB275
:109ED000E2883846616900F0C7FA2078C100E54899
:109EE00009180A6892B20A602178C9000818016846
:109EF0002A041143016024E188427BD92078810043
:109F000078581040DC4A10437850206A401B206289
:109F1000207881007958490661786CD5002902D0F3
:109F200001292BD037E0C100D24809184A689201B4
:109F300092094A603E2D0AD96909EA0600D1491EF4
:109F40002278D20010184268890631430AE0002DB9
:109F50000ED06908EA0700D0491C2278D2001018F8
:109F6000426889060A43426015E00FE138E1BDE12D
:109F70002178C9000818416831430BE0C100BD4891
:109F800009184A6892B24A602178C90008184168E5
:109F90002A04114341606289ABB23846616900F01E
:109FA00063FA6069401960612169206A884200E0B3
:109FB00037E001D9401B01E00546002020626078AF
:109FC000002802D001282BD038E02078C100A94811
:109FD00009180A68920192090A603E2D0CD9690994
:109FE000EA0600D1491E2278D200101802688906BC
:109FF00031430CE0B1E023E0002D0BD06908EA0703
:10A0000000D0491C2278D2001018026889060A4341
:10A01000026013E02178C9000818016831430CE0A0
:10A020002078C100934809180A6892B20A60217822
:10A03000C900081801682A041143016022897BE0E5
:10A04000002902D0012928D034E0C100894809182C
:10A050000A68920192090A603E2D0AD96909EA0646
:10A0600000D1491E2278D2001018026889063143B7
:10A070000AE0002D0BD06908EA0700D0491C2278BD
:10A08000D2001018026889060A43026012E02178A3
:10A09000C9000818016831430BE0C1007548091870
:10A0A0000A6892B20A602178C900081801682A0477
:10A0B000114301602289ABB23846616900F0D4F9DE
:10A0C0006069401960612169206A884201D9401B9A
:10A0D00001E00546002020626078002802D00128B7
:10A0E00039D028E02078C100624809184A689201F6
:10A0F00092094A603E2D0AD96909EA0600D1491E33
:10A100002278D20010184268890631430AE0002DF7
:10A110000BD06908EA0700D0491C2278D200101839
:10A12000426889060A43426005E02178C9000818A0
:10A130004168314341606289ABB23846616900F0E1
:10A1400093F9207881007858494A30321040102223
:10A150005040202228E12078ACE621788A00B958C6
:10A16000464B1940464B1943B9502178CA00414922
:10A17000521813689BB213602278D20051180A68F3
:10A1800003041A430A60228983B2D6E7A1692069D1
:10A19000814201D9091A01E008460021A161217814
:10A1A000CA003449DEE04209C00600D1521E2078C0
:10A1B000C00040184168920632430EE02078C0008B
:10A1C00040184168314309E04208C00700D0521CE2
:10A1D0002078C00040184168920611434160DAE0DF
:10A1E000002B61D12078C100224809180B689B011F
:10A1F0009B090B6021693E290AD94B09C90600D188
:10A200005B1E2178C90009180D689B0633430AE0DC
:10A21000002910D04B08C90700D05B1C2178C90069
:10A2200009180D689B061D430D606178002909D04F
:10A2300001294DD038E02178C90009180B68334353
:10A240000B60F2E72178C90009184B689B019B0954
:10A250004B6021693E2915D94B09C90600D15B1E07
:10A260002178C900081841689B0633433CE0000090
:10A270008F8FFF0700980040808100008F8EFF07BE
:10A2800080800000002909D04B08C90700D05B1C62
:10A290002178C900081841689B0625E02178C9008B
:10A2A0000818416831434160E069002873D0207884
:10A2B0008100785880B2430401D5430602D43E4B56
:10A2C000184268D1785810403C4A1043785062E0F8
:10A2D0002178C90009184B689BB24B602178C900EE
:10A2E00008184168238A1B041943DCE7A169206927
:10A2F000814201D9091A01E008460021A161002B21
:10A3000049D12178CA002E49521813689B019B0934
:10A3100013603E280AD94209C30600D1521E237891
:10A32000DB005B181D68920632430AE0002810D05B
:10A330004208C30700D0521C2378DB005B181D685D
:10A34000920615431D606278002A09D0012A15D0B3
:10A3500021E02278D2005218136833431360F2E7E9
:10A360002278D200521853689B019B0953603E2803
:10A3700000D918E7002800D026E71FE72278D2008E
:10A38000521853689BB253602278D20051184A6821
:10A39000000402434A60207881007858094A10403E
:10A3A00001221203504052005040044A403A1043E8
:10A3B00078500020F8BD000040400000C080000040
:10A3C000009800408FBFFF070021416401490164EC
:10A3D0000020704780BF0000406C7047F8B5D81C63
:10A3E000850810489E07B60F17180C46002E00D09F
:10A3F0006D1E002D07D038682146FCF7ADFA241DEC
:10A400006D1E3F1DF5E7002E0AD03868EA000146B0
:10A41000D1402170641C6D1C761E3604360CF5D1BB
:10A42000F8BD000000980040002903D0012905D0A4
:10A4300001207047016C4900490803E0016C0122CA
:10A44000D2071143016400207047002901D1802107
:10A45000C16400207047000010B50248FDF74AF9BA
:10A4600010BD0000D4030020F8B5D81C85089E0755
:10A47000B60F0C4600D06D1E0C48171805E020469C
:10A48000FCF760FA01C7241D6D1E002DF7D1002EC8
:10A490000BD000202178EA009140641C6D1C761ED0
:10A4A00008433604360CF5D13860F8BD00980040FA
:10A4B0000FB410B504A9074B02AA039800F052F894
:10A4C000044602A9002000F087FA204610BC08BC10
:10A4D00004B01847D9A9000830B47446641E257822
:10A4E000641CAB4200D21D46635D5B00E31830BCC8
:10A4F000184700008307FF22DB0E9A408907090EE8
:10A500009940002808DB830809489B001B1818683D
:10A5100090430843186070470007000F083883080D
:10A5200004489B001B18D86990430843D8617047C2
:10A5300000E400E000ED00E010B5012000F0E2FAD8
:10A5400010BD704702E008C8121F08C1002AFAD1E6
:10A5500070477047002001E001C1121F002AFBD1A3
:10A5600070470000FFB591B00F460546002606E093
:10A5700025280AD0149A139990476D1C761C2878C8
:10A580000028F5D1304615B0F0BD0024009401211B
:10A59000F34A029400E004436D1C2B780846203BEC
:10A5A00098401042F7D128782A280ED00222287825
:10A5B00001463039092915D800990A235943303901
:10A5C000401814436D1C0090F1E701CF0090002863
:10A5D00005DA012040030443009840420090022025
:10A5E00004436D1C28782E2815D104200443687874
:10A5F0006D1C2A280AD101CF6D1C02900BE0029934
:10A600000A225143303940186D1C029028780146C7
:10A6100030390929F3D928786C2810D006DC4C2869
:10A620001AD068280ED06A2817D104E0742813D0F5
:10A630007A2812D110E00120400504430CE00121EA
:10A64000090501E0032109050C436978814203D122
:10A650000120000524186D1C6D1C28786E281ED062
:10A660000CDC632831D004DC00288BD0582811D1B1
:10A67000B2E064287BD069280CD178E073282DD013
:10A6800004DC6F2870D0702804D1A7E075286CD046
:10A6900078286BD0149A13999047761C62E0600278
:10A6A000400F022807D003280AD0042838680AD0AF
:10A6B00006603F1D56E03868F11706604160F8E714
:10A6C00038680680F5E70670F3E73878694608745D
:10A6D0000020487404A80390012003E03868039028
:10A6E0000020C0433F1D61070FD5002101E0019903
:10A6F000491C029A0191914213DA8142F7DB019AD7
:10A700000399895C0029F2D10BE0002101E0019955
:10A71000491C01918142FADB019A0399895C002965
:10A72000F5D101990098139A401A00902146149B84
:10A7300000F03CF901998019461807E00398039945
:10A740000078491C0391149A139990470198401E70
:10A750000190401CF2D12146149B139A009800F0FE
:10A7600015F986196D1C0AE741E033E034E00A2050
:10A770000021049005916002410F022905D001CF0C
:10A78000C2179446032905D007E0FF1DFF08FF000C
:10A7900003CF06E000B2C2179446042902D140B2AA
:10A7A000C1178C4600226146944506DA0A4600210C
:10A7B000404291418C462D2102E0210504D52B21F8
:10A7C0006A461176012103E0E10701D02021F7E775
:10A7D000019155E00A200BE0102009E010200490C0
:10A7E00000210420044308200591029003E0082082
:10A7F0000021059104906002410F022905D001CF8C
:10A8000000229446032906D006E0FF1DFF08FF0042
:10A8100003CF8C4603E080B2042900D1C0B20021EE
:10A82000019121072CD529780391702906D0049A2B
:10A830001021059B4A401A4305D00EE040216A468C
:10A840001176012108E06146014306D030216A46B5
:10A8500011760399517602210191049A0821059BF2
:10A860004A401A430CD16146014301D1610707D523
:10A8700030216A461176012101910299491E029107
:10A880002978582904D037A103910FA90F910DE021
:10A8900039A1F9E76146059B049AFCF777F8039B19
:10A8A0008C469B5C0F9A521E0F92137061460143B7
:10A8B000F0D10F9807A9081A20300390600704D53B
:10A8C000012000048443029801E0012002900399D2
:10A8D000884201DD401A00E00020411802900198F2
:10A8E00009180098401A0090E00306D42146149BF2
:10A8F000139A009800F05AF886190020049008E096
:10A9000006A9085C149A139990470498401C761C79
:10A91000049001998842F3DBE0030CD52146149B97
:10A92000139A009800F042F8861904E0149A302037
:10A9300013999047761C0299481E02900029F5DC75
:10A9400008E00F980F990078491C0F91149A1399F9
:10A950009047761C0399481E03900029F1DCFAE623
:10A9600009280100303132333435363738396162E5
:10A9700063646566000000003031323334353637A9
:10A98000383941424344454600000000F8B50446CA
:10A9900000251E461746880404D405E039462020C9
:10A9A000B0476D1C641EF9D52846F8BDFFB50446B6
:10A9B000002581B01E46C80301D5302700E02027BE
:10A9C000880404D505E038460399B0476D1C641E21
:10A9D000F9D5284605B0F0BD0A68531C0B6010700D
:10A9E0007047000010B5054A03490020116050600F
:10A9F000FCF724FB10BD0000A5A5A5A500000020C4
:10AA000010B50D4986B00B48086004794379827906
:10AA1000C179029103A91CC1C27881780091019289
:10AA20004378027805A11048FFF742FD0E4806B0B2
:10AA300010BD0000F02F0100100100205765416398
:10AA4000742053747564696F205625642E25642E16
:10AA500025642E25645F2530327825303278253004
:10AA60003278253032780D00901B0020EFF31080F3
:10AA700072B60021054A064B02E09A6080F3108806
:10AA8000091D0429F9D062B670470000006800086B
:10AA900000ED00E0074948698A69801A064A526851
:10AAA000520106D54A69121A102A02DB4969401C74
:10AAB0000818704700E000E000ED00E0F8B5002065
:10AAC0000146EFF3108472B605460D4F13E0FFF711
:10AAD000E1FFBB6AC117FA6AC0183B6B51417E6B3C
:10AAE0000A46C31AB24102DA386B796B01E0386367
:10AAF000796384F310882D1D042DE8D0F8BD000083
:10AB000018010020F8B58446EFF3108172B60023D7
:10AB100001261C460E4D0F4A76060F4F0AE060468E
:10AB2000002804D1146155619461072010617E6092
:10AB300081F310881B1D042BF1D000F05FF807484B
:10AB400000228262C26244618461FFF7FAFCF8BDB0
:10AB5000FFFFFF0000E000E000ED00E01801002032
:10AB600088B0FFF783FFFCF707FAFDF77EFEFDF7DD
:10AB70003FFCFDF719FCFDF76DFCFF250024F535C2
:10AB80000526360715A16846FFF792FC81B2684694
:10AB9000FBF7AEFF2846FBF7FFFFFFF731FF02464A
:10ABA00012A16846FFF784FC81B26846FBF7A0FF5C
:10ABB0002846FBF7F1FF02213046FCF7C1F90121DD
:10ABC0003046FCF7BDF904213046FCF7B9F9641CA6
:10ABD0000F2CD7D3FFF706FFD4E7000048656C6C55
:10ABE0006F20576F726C6420210D0A0056657273D6
:10ABF000696F6E3A2025730D0A00000070B5124887
:10AC0000104900680446FBF775FE104D68607D2111
:10AC1000C9002046FBF76EFEA860EFF3108472B601
:10AC200000260BE0FFF74AFF28626962FFF746FF44
:10AC3000296A6A6A401A286084F31088361D042E37
:10AC4000F0D070BD40420F007C00002018010020B1
:10AC500000000000000000000000000000000000F4
:10AC600000000000000000000000000000000000E4
:10AC700001000000020000000300000004000000CA
:10AC800006000000070000000800000009000000A6
:10AC9000B4AC00080800002048010000526A000817
:10ACA00074AD000850010020681E000054A5000883
:10ACB00089F8FFFF13598A1408C98C1B08D5041A98
:10ACC000FD04138D8D1408E5881B08A50C4117049D
:10ACD000030904120114020202164083044057269D
:10ACE0000201020301031A1A0313B16A1B08AD041F
:10ACF0001AA9041AD5041AED041933118204532435
:10AD0000F414810182130A0632022A40201C09022F
:10AD1000435F111CC032092A1B01020B13052416C4
:10AD2000100105240110090104240202052406175C
:10AD30000107058203081C10090495320A2E070535
:10AD4000010240072A81071113918B1408D1894C05
:10AD5000081D8EC01A65E01A05101A8B04C11AF975
:10AD6000181AAD041A45301AA108C1298C2904010A
:04AD70002C000000B3
:04000005080068BDCA
:00000001FF
