:020000040800F2
:10000000F8370020D5000008DD3B0008233A00083F
:1000100000000000000000000000000000000000E0
:10002000000000000000000000000000B33E0008D7
:100030000000000000000000B13E0008B53E0008CE
:10004000E7000008E7000008E7000008E7000008F4
:10005000E7000008E7000008E7000008E7000008E4
:10006000AD590008E7000008E7000008E7000008B5
:10007000E7000008E7000008E7000008E7000008C4
:10008000E7000008E7000008E7000008E7000008B4
:10009000E7000008E7000008E7000008E7000008A4
:1000A000E7000008E7000008E7000008E700000894
:1000B000E7000008E7000008E7000008044885465C
:1000C00000F094F800F05EF8004800479F620008D6
:1000D000F83700200448804704480047FEE7FEE761
:1000E000FEE7FEE7FEE7FEE7193F0008BD00000857
:1000F00010B5202A04DB0146203A9140002010BDB3
:10010000914020239C1A0346E3401943904010BDC0
:1001100003460B439B0703D009E008C9121F08C020
:10012000042AFAD203E00B780370401C491C521ECB
:10013000F9D27047D2B201E00270401C491EFBD2D6
:1001400070470022F6E710B513460A4604461946E2
:10015000FFF7F0FF204610BD421C0178401C00292B
:10016000FBD1801A704730B505460020034600E0F9
:100170005B1C934205D2EC5CC85C201A01D1002CB8
:10018000F6D130BD7CB50748009007480190054680
:10019000009C04E02046016808188047241DAC42FA
:1001A000F8D17CBD6C0600087006000870B50446E6
:1001B000002903D000202022012310E0002801D0D4
:1001C0000020C043C046C0460DE02546D5408D42C4
:1001D00005D30D469540641B1D46954040191546B4
:1001E000521E002DF1DC214670BD00001CB50948EF
:1001F00000900948019005460126009C05E0E3684F
:1002000007CC33430C3C98471034AC42F7D3FFF78C
:1002100059FF00004C0600086C06000802E008C800
:10022000121F08C1002AFAD170477047002001E070
:1002300001C1121F002AFBD170470000000000001E
:1002400000000000000000000000000000000000AE
:10025000000000000000000000000000010000009D
:10026000020000000300000004000000060000007F
:10027000070000000800000009000000620C0008F0
:10028000C80C0008D40C0008CE0E0008300D000881
:10029000700D0008CE0E0008900D0008CE0E00086C
:1002A000A80D0008AC0D0008CE0E0008C40D000813
:1002B000620C0008CE0E0008D80D0008140E0008CD
:1002C0002C0E0008560E00088E0E0008CE0E0008F8
:1002D0009C0E0008B20E0008BE0E0008E2110008D5
:1002E000D2110008F4110008061200081A120008C2
:1002F000D21100082C12000844120008D211000884
:10030000CA3300083C340008463400085034000862
:100310008D01020408102040801B3600AC4B000801
:10032000CA4B0008CA4C0008DE4B0008CA4C000843
:10033000EE4B0008224C0008CA4C0008504C000844
:100340006A4C0008484C0008D64C0008E24C0008F3
:10035000BC4D0008BC4D0008024D0008124D0008BD
:10036000BC4D0008BC4D0008BC4D0008BC4D000849
:10037000BC4D0008BC4D0008BC4D0008264D0008CF
:10038000FC4C0008E64D0008EC4D0008F24D00085A
:10039000F84D0008FE4D00080650000810500008F7
:1003A0001C5000081650000852096AD53036A5388E
:1003B000BF40A39E81F3D7FB7CE339829B2FFF874D
:1003C000348E4344C4DEE9CB547B9432A6C2233D31
:1003D000EE4C950B42FAC34E082EA16628D924B2E2
:1003E000765BA2496D8BD12572F8F6648668981603
:1003F000D4A45CCC5D65B6926C704850FDEDB9DA62
:100400005E154657A78D9D8490D8AB008CBCD30A4F
:10041000F7E45805B8B34506D02C1E8FCA3F0F022B
:10042000C1AFBD0301138A6B3A9111414F67DCEAFA
:1004300097F2CFCEF0B4E67396AC7422E7AD358573
:10044000E2F937E81C75DF6E47F11A711D29C5897D
:100450006FB7620EAA18BE1BFC563E4BC6D279205F
:100460009ADBC0FE78CD5AF41FDDA8338807C73168
:10047000B11210592780EC5F60517FA919B54A0D60
:100480002DE57A9F93C99CEFA0E03B4DAE2AF5B0D5
:10049000C8EBBB3C83539961172B047EBA77D626F1
:1004A000E169146355210C7D637C777BF26B6FC52A
:1004B0003001672BFED7AB76CA82C97DFA5947F067
:1004C000ADD4A2AF9CA472C0B7FD9326363FF7CC43
:1004D00034A5E5F171D8311504C723C31896059AE0
:1004E000071280E2EB27B27509832C1A1B6E5AA003
:1004F000523BD6B329E32F8453D100ED20FCB15BEE
:100500006ACBBE394A4C58CFD0EFAAFB434D338556
:1005100045F9027F503C9FA851A3408F929D38F52A
:10052000BCB6DA2110FFF3D2CD0C13EC5F97441761
:10053000C4A77E3D645D197360814FDC222A9088D8
:1005400046EEB814DE5E0BDBE0323A0A4906245C64
:10055000C2D3AC629195E479E7C8376D8DD54EA9C9
:100560006C56F4EA657AAE08BA78252E1CA6B4C695
:10057000E8DD741F4BBD8B8A703EB5664803F60EEE
:10058000613557B986C11D9EE1F8981169D98E94DD
:100590009B1E87E9CE5528DF8CA1890DBFE64268F6
:1005A00041992D0FB054BB1653544D333220566928
:1005B000727475616C20436F6D506F727400535488
:1005C0004D6963726F656C656374726F6E69637396
:1005D0000043444320436F6E6669670043444320F1
:1005E000496E746572666163650061707000555391
:1005F000423243414E563100646F776E6C6F6164D6
:1006000000666163746F72790061707000646F7767
:100610006E6C6F6164006C7939472A41354A425FDC
:1006200047266940307B31733E3B5F3971755B5EB5
:100630007E795F617A3700513156235133653F62CD
:10064000454254664A284E0066706B0070060008EA
:1006500008000020000100001C02000870070008CC
:1006600008010020F03600002C020008DD550000D3
:1006700001000000040000006F4000084F43000824
:10068000634300088D430008094400081B3F00082D
:1006900025430008000000000024F4002142000867
:1006A00009400008B344000800000000834000082F
:1006B000453F0008C33F00080000000000000000A4
:1006C0000000000045410008D7400008B341000881
:1006D000C340000809024300020100C032090400BF
:1006E000000102020100052400100105240100019F
:1006F0000424020205240600010705820308000104
:1007000009040100020A0000000705010240000080
:1007100007058102400000001201000202020040B1
:100720008304405700020102030100000A06000290
:100730000000004001000000DF120008DB1200088A
:10074000BD1200085B130008BD1300080403090470
:100750001A0300000000000000000000000000007C
:100760000000000000000000000043000000000046
:020000040800F2
:10080000F0B597B0019211910390F0300090002163
:100810000198814200D3F6E0029113A81022119CA6
:100820002146FFF775FC0E202146039A00F0F9F8E7
:100830000D200490119B587B597A597359795A7835
:100840005A71597258709878997A99709872987903
:10085000997B99719873D878D979D970D97AD971E7
:10086000D97BD873D97200201946042811D00022F0
:10087000102A0BD08B5C0824240200342402033499
:100880002402A834E35C8B54121DF1E7491C401C80
:10089000EBE70498C4B220461199039A00F0C1F81E
:1008A000002C00D19FE00020102800D198E0119C7E
:1008B00022560E92D7091B231F4055006F40261861
:1008C00009961090012032560220305604465440BA
:1008D0000321715612914C4008977C40D109194070
:1008E00056000C9671400D914C407E006DB2E909A6
:1008F000194071404C400D460791C7091F40410007
:100900004F400F977F000A9749B2C90919407940B3
:100910004C400F46069171B2C90919406D004D4017
:1009200005956C400D994D006EB2F10919400C9E71
:1009300076B2F6091E406E400C9675004D400B9540
:100940006C400A9949B2C90919407D004D400A9589
:100950006C401299CD091D4049004D406E0077B2A0
:10096000FF091F4049B2C909194071404B007B4043
:100970005C40109E119FBC5504460E9E7440129E12
:1009800074400D9E74400F9E74400C9E7440059FF1
:100990007C404C400B9E74400A9E74405C40099E13
:1009A00074700E9C62406A407A405040089C6040DF
:1009B0000C9C604048400B9C60400A9D6840584039
:1009C000F070109812994A400F994A4007994A408E
:1009D00006994A4062406A405A40B270001D63E77F
:1009E0000498401E25E7119C2046009D294605F0ED
:1009F00013F813A910222846FFF78AFB0299103139
:100A00001034119404E717B0F0BDB0B51446054694
:100A100003F01AF8F035102228462146FFF778FB3C
:100A2000B0BDB0B5000110180022042A0CD000237C
:100A3000042B05D0C45CCD5C6540CD545B1CF7E74E
:100A4000091D001D521CF0E7B0BD80B5806840183C
:100A5000114605F08CFB80BDB0B50546202424026C
:100A60000034240223342402C0342468002C08D02B
:100A7000082220462946FFF776FB002801D01034D3
:100A8000F3E72046B0BDFEB502930192CA79009209
:100A90008D790E794F79CC788B780A78497809026C
:100AA00089181A0423069A1851183A0292192B042D
:100AB000009C2406E3189A1806C001990160029967
:100AC0004160202109020031090223310902C031AD
:100AD00008380A68002A04D0114610318242F8D141
:100AE000FEBD202109020031090223310902C03173
:100AF0000A6802610860FEBD80B580684018114632
:100B00001A4605F0DBFB80BD80B5806840181146B1
:100B10001A4605F0E5FB80BD70B5044620252D0280
:100B200000352D0223352D02C8352D68002D25D026
:100B30006879C10720D0296909192961EA689142B9
:100B40001AD300262E612979CA0703D1022108434E
:100B5000687111E02A68002A02D0686990472979F3
:100B6000480709D5E888401EE880000404D12E61BA
:100B70006879FE21014069711835D6E770BD10B55E
:100B8000C3800024C260046101600381002B01D096
:100B9000042100E00821029A0A430271202109027F
:100BA0000031090223310902C8310A68002A04D041
:100BB000114618318242F8D110BD202109020031BE
:100BC000090223310902C8310A688261086010BD38
:100BD000002101614179FE220A40427170470021E3
:100BE00001610189C180417901220A434271704744
:100BF000417901220A4342717047202000020030EF
:100C00000002013000026430807B70472020000227
:100C10000030000200300002003041680068704778
:100C200080B505F035FA00F0C7FC00F043FA80BD4E
:100C3000FEB500F01BFA20263602003636020136D9
:100C400036026436307B401E172800D93FE1800011
:100C50000821090200310902023109027C310858D9
:100C600087460020707300F095FC054670600821EF
:100C700009020031090205310902EA310822FFF7B1
:100C800072FA00286FD000F07CFC01460024284650
:100C9000224600F0ACFEF073002800D0F2E0307C79
:100CA00000280DD1706808210902003109020631BF
:100CB000090201310822FFF756FA002800D1A5E108
:100CC00010203073142070E10120002102F0C2FFD7
:100CD0000420DAE0082000046830000208252D0214
:100CE00000352D0214352D02FF35A8474142414100
:100CF0008F00082000020130000230300002A847B7
:100D00000446404260414000C719082000020130FB
:100D10000002F8300002A847414241417D1800D14D
:100D2000C5E0002C00D146E1042D00D2BFE09AE1DD
:100D30000020F07334682546383575602846FFF783
:100D40000BFA0746082109020031090205310902A0
:100D5000EA3128463A46FFF706FA032F00D0B7E0FB
:100D6000002800D0B4E01B2000020330F0818BE0AB
:100D700000F010FC706000F089FCF073022803D1D1
:100D8000706800F0EFFBF07300287BD108207CE056
:100D900031687068602200F0D9FEF073002871D1CC
:100DA0000020B073092070E00B206EE032893168BA
:100DB000706800F0CBFEF073002863D10020B073A0
:100DC0000C2062E0706800F09EFEF073002859D19C
:100DD0000E2030730020E8E001207073082000022C
:100DE0000030000205300002EA3000F04FFCF073E2
:100DF000022809D10820000200300002053000025C
:100E0000EA3000F0AFFBF07300283BD111203073C3
:100E10002820CAE002207073706800F063FDF07350
:100E200000282FD1122030733C20BEE003247473BD
:100E300000F0B9FB01460820000200300002053036
:100E40000002EA30012200F0D2FDF073002800D148
:100E50008CE0B47318E0706800F0FDFCF0730028BB
:100E600003D00320B0731820307308200002003034
:100E7000000205300002EA3000F045FEF073002861
:100E800000D194E00320B07318203073FEBD6420BD
:100E90007074042000021630F060FEBD08200004CB
:100EA0006830000200F02BFB002800D1DBE00220BC
:100EB000EBE71D2000020230F0810320E5E700F09F
:100EC00061F9002030740220B08100F0DCF9FEBD31
:100ED00001970294274628373846FFF73DF9044624
:100EE000082109020031090205310902EE313846B4
:100EF0002246FFF738F9092C5BD1002859D1482048
:100F0000029F385C394648314A78120210188A78B4
:100F10001204C978090689180818C7210902F03196
:100F2000884221D8009108210902003109020531C7
:100F30000902F8312846019C2246FFF714F9082CD3
:100F400069D1002867D14C20385C39464C314A7849
:100F5000120210188A781204C9780906891808182C
:100F60000099103188425CD90C20FDE6307C0028C5
:100F700018D0082000020030000205300002F830CE
:100F800000F084FBF073022809D108200002003031
:100F9000000205300002F83000F0E4FAF073002897
:100FA00000D056E71320307350207074FEBD14201B
:100FB0006BE70D20D8E60820000200300002053063
:100FC0000002F83000F0DCFBF073002811D00024A0
:100FD000032D43D908200002003000020530000232
:100FE000F83000F0CDFBF073002824D0002C34D072
:100FF00039E000F081FB0028E9D004F02DFD002845
:1010000031D0032D00D852E70124E3E7B473642004
:101010007074162039E71A2000020330F08118207E
:1010200030732846394600F0CBFBF073002800D01F
:1010300028E7062029E700F0B6FA0146082000025A
:101040000030000205300002EA30002200F0CFFC40
:10105000F073414241410C4305D1012404F0FCFCF2
:10106000002C00D120E704F05EFDFEBD10B5202469
:10107000240200342402013424027834204608304B
:1010800000F0A7F9002804D00020014602F019FE64
:1010900010BD20461830FFF7A2FDA18820200002D5
:1010A000003000020B300002483002F00AFE00203F
:1010B000A08010BD7CB501200090202636020036AD
:1010C00036020136360278363546183508210902CF
:1010D000003109025C310902E1313A2212029832F0
:1010E000002428462346FFF74AFD2846FFF780FDE7
:1010F000042000021530009030460830331D2022B5
:101100001202003212020B3212024832214600F063
:1011100057F908200002003000025C300002FD3068
:1011200008221202003212025B32120255320823E8
:101130001B0200331B025C331B023D33214602F0CD
:1011400092FE34807CBDEFF3108072B6082000045C
:10115000683000020168426820231B0200331B0232
:1011600023331B02C4331A6081F30888002181F302
:101170001488E0210904ED3109020831086018687B
:101180008047FEE72020000200300002013000020C
:10119000783000210180704780B501F073F880BD80
:1011A00080B5002908D020231B0200331B02013325
:1011B0001B0264339A601960401E082841D88000E1
:1011C000082109020031090202310902DC31085804
:1011D0008746202000020030000201300002643007
:1011E0002DE02020000200300002013000026430B7
:1011F000012125E020200002003000020130000221
:101200006430052107E02020000200300002013098
:10121000000264300A21017380BD202000020030EA
:1012200000020130000264300D2107E0202000029E
:1012300000300002013000026430032101730021FC
:10124000817380BD202000020030000201300002C6
:101250006430032101730021817300F021F880BD07
:1012600020210902003109020131090264310873A9
:1012700070472022120200321202003212020032A3
:1012800051601060704780B52020000200300002DD
:1012900023300002CC305021C160FFF7A0FC80BD9C
:1012A00080B57D20C10020200002003000022330E4
:1012B0000002CC30C160FFF792FC80BD21280AD12A
:1012C00008208871002048710871C87001228A7056
:1012D000C2224A7008700020704700207047F8B59D
:1012E00008200002043020210902003109022B31BC
:1012F0000902E83100240C508920800020263602A3
:101300000036360229363602C036345011204701E5
:10131000F4510120C0020C5000F006FF2021090208
:1013200000310902013109020831486188614C60CD
:101330000C701C3120252D0200352D0223352D0285
:10134000E8352846224603F0A1F8F059800131180B
:10135000284603F08AF82046F8BD70B5892082003F
:10136000202000020030000229300002C0308558E1
:1013700011225301C258561C07242640AE4201D107
:1013800003240AE092008218096801256D02515178
:10139000C1584A1C2240C250002491014118202506
:1013A0002D0200352D0223352D02E835284603F0A5
:1013B0005CF8284602F0FFFF204670BD0020704711
:1013C00010B5029C42608360C460017000F007F8B1
:1013D00010BD80B500F00BF8411E884180BD80B57E
:1013E00043688168C268184604F01DFE80BD80B560
:1013F00004F063FD80BD80B5084691B204F01EFE86
:1014000080BD80B5FFF7F7FF80BD704710B5402263
:101410001202023212022032120214321468FF2326
:101420001B02FF331B02C0331B0207332340042877
:1014300002D0012040031B18C800184301210904F1
:1014400002310143116010BDB0B501229304402266
:1014500012020232120220321202103254681C436D
:101460005460EFF31083EFF3108472B60024402C25
:1014700003D220C920C0641CF9E710688003800FE4
:10148000FBD183F31088B0BD70B504464026360208
:101490000236360220363602103600F045FE05468A
:1014A00030688003800F08D0601CF9D000F03CFE4B
:1014B000401BA042F4D3032070BD31680820000215
:1014C000C3300002FB303060C3200002FA30084015
:1014D00010D0202109020031090229310902A4316A
:1014E0004860012070BD601C04D000F01DFE401B50
:1014F000A042E0D230684003F5D4002070BD014620
:1015000002680820000201300002303000028142EF
:101510000DD00820000468300002814210D12F2035
:101520000002F030000402400120400704E06B207C
:101530000002703000026630824211D00F207047E6
:101540000F2008231B0201331B02F8331B029942B0
:10155000F5D16B2109027031090266318A42EED160
:101560000020704780B5FFF777FA002807D0C268DF
:101570000021FFF76AFAC1170D20084080BD062040
:1015800080BD20200002003000020F3000026030D9
:10159000806D704720200002003000020F300002F2
:1015A00060303830704720200002003000020F30D9
:1015B00000026030406D704770B5002020210902A4
:1015C00000310902073109024831ED221202B83216
:1015D000120283321202203201231C02A0420ED0DA
:1015E00008250446002D06D066081C4064421440BD
:1015F00074406D1EF6E78300CC50401CECE72025BC
:101600002D0200352D0201352D02AC35284614304F
:101610001921CC0208210902003109020631090210
:10162000093108221204683212022346FFF72BFA0E
:101630002846283008210902003109020631090232
:101640000D310822120201321202303212022346F8
:10165000FFF719FA202000020030000206300002D5
:10166000453008210902003109020631090216310C
:101670000822120200321202063212023732FFF73B
:10168000C4F900206860A860287070BDF8B5FFF745
:10169000E3F900282AD00546012000030026009621
:1016A000E968B14224D98C1B210B00D00446A3B2B7
:1016B00020273F0200373F020F373F02C03728463E
:1016C00031463A46FFF718FA002813D404210902DC
:1016D0000131491E05D03A1D3B685B1C1746F8D006
:1016E00002E086192046DBE70220F8BD0620F8BD9F
:1016F0000098F8BD0720F8BD10B5082000020030A2
:101700000002063000020930FFF7A6F9002833D0A6
:1017100020242402003424020F34240260342246A0
:101720000832C7210902F0311023FFF7E5F900283C
:1017300024D4217E227A01208A421CD1617E627AE1
:101740008A4218D1A17EA27A8A4214D1E17EE27A3D
:101750008A4210D1217F227B8A420CD1617F627B39
:101760008A4208D1A17FA27B8A4204D1E07FE17B3B
:10177000081A411E884110BD062010BD1C2010BD56
:1017800080B5202109020031090201310902AC3182
:1017900000224A608A600A70FFF75EF900280DD0C7
:1017A000002120221202003212020F321202603295
:1017B0006023FFF7A1F9C00F000180BD062080BDA6
:1017C000F8B50546202636020036360201363602C6
:1017D000AC3600277760B7603770202424020034CD
:1017E00024020F342402603460222046FEF790FC6D
:1017F0002846FFF731F9002809D021686B22120230
:10180000703212026632914203D01620F8BD0620D3
:10181000F8BDC168E56C08208D4219D8A26C8A42D7
:1018200016D8F8435C22214604F001F9C043E16D6B
:1018300081420ED10F200002FF302840290B0818EA
:1018400081B2272000021030FEF7B0FC70803846CD
:10185000F8BD0920F8BD70B5082000020030000274
:10186000063000020930FFF7F7F8002836D00446AA
:1018700020252D0200352D020F352D0260352A4618
:101880000832C7263602F03610233146FFF734F906
:10189000002825D4297A1E20FF291ED1697AFF2924
:1018A0001BD1A97AFF2918D1E97AFF2915D1297B03
:1018B000FF2912D1697BFF290FD1A97BFF290CD108
:1018C000E97BFF2909D118351023204631462A46E5
:1018D000FFF71AF9C1171D20084070BD062070BD22
:1018E0001C2070BDF0B587B004460820000200300F
:1018F0000002063000020930FFF7AEF8062106901C
:10190000002871D020460C46FFF7A6F82146059026
:10191000002869D0202000020030000201300002BF
:10192000AC300021416081600091017020200002F4
:10193000003000020F3000026030049040790190C6
:10194000012816D1202000020030000206300002DB
:101950004530082109020031090206310902163119
:101960000822120200321202063212023732FFF748
:101970004CF80120010320200002003000020F304B
:101980000002C0300290009D2E4603910846049943
:10199000C96C8D4223D28F1B03998F4200D3074617
:1019A000314660310598029A3B46FFF7A5F80028BA
:1019B00017D404460198401E43424341A2B220215D
:1019C0000902003109020F310902C031069804F002
:1019D000A3F9002807D16519A6193846D7E7009959
:1019E00002E0112100E00146084607B0F0BDF0B565
:1019F00089B00692019104460821090200310902CA
:101A00000631090209310822FEF7ADFB05462046E2
:101A1000FFF722F8059000280AD0202000020030AD
:101A200000020F3000026030002D03D04C3002E085
:101A3000062066E048300178427812025118827818
:101A40001204C07800068018421801210698484008
:101A50000690079108030024E14302940495039241
:101A600020263602003636020F363602C036A24233
:101A70003BD90891002D214601D021466031171B2A
:101A80003A0B00D00746BBB205983246FFF734F850
:101A900000282ED4054606980028079800D1029801
:101AA000C00711D10C2014280CD0202109020031CC
:101AB000090201310902AC31095C32180C3A11708B
:101AC000401CF0E70798029020210902003109022A
:101AD0000F310902C03108982A4603F0A8FF0146D9
:101AE0002C193846049D039AC1E7002D03D00C2021
:101AF00002E00A2005E00B20C943019A914200D17F
:101B0000002009B0F0BDB0B5FEF7A6FF002818D040
:101B100020252D0200352D0201352D02AC352A4637
:101B20000C32002408232146FEF7EEFF00280AD4D9
:101B30006C60AC602C7027200002103000F015F8AB
:101B400002E0062400E00E242046B0BDB0B51446E5
:101B50000D46FEF781FF002805D0002329462246C6
:101B600004F0DAF8B0BD0620B0BDB0B520242402E0
:101B700000342402013424026434617B14254D4373
:101B80007D218900FEF712FB28186074FFF76EFABA
:101B9000B0BDF0B585B005462026360200363602C7
:101BA00029363602A4363078012801D1022047E0D8
:101BB0000291002777600120039030707D20C400DF
:101BC0002046FFF761FC002839D10196039B04975A
:101BD000286840221202023212022032120214320B
:101BE000042809D11068696801431804084310608B
:101BF0002046FFF749FC20E00392049AD043029963
:101C00000860A8680746E968081887420CD2686827
:101C10003946FFF7FBFB2046FFF736FC002805D1CD
:101C2000A8687F1C049AEEE7104601E002990F6055
:101C3000039B1968022291431960049F019E37702B
:101C400005B0F0BDF0B589B01F21016042684027A2
:101C50003F0202373F0220373F022037012A06D0D9
:101C6000082A07D0042A08D13A462C3207E03A461F
:101C70000C3204E03A46303201E03A461032136842
:101C80007F241C40846012685202520EC2603F22C0
:101C900012027F321202FF32120242613B683C683C
:101CA00014408461DAB2AA2A01D1134600E0BB23B2
:101CB000CC2A00D1134603610123190508910321A1
:101CC0000191090604910693D9063D68EB021F2293
:101CD0001202FF3212027532120203921F22120206
:101CE000FF32120275321202E0320292002B0C46D1
:101CF00011D4039A1368049A13400C460BD0069C27
:101D00002406A34202D1AB020C4604D5029A136802
:101D10009B055C0B0C437B68DB059B0B1B1903626B
:101D20007F231B02FF331B02FF331B02FF335D1CAB
:101D3000BE6835403A46C7691F407D19C561F30545
:101D40009B0BE31801242402FF3407941B19436200
:101D50000592146803263602FE363602089A1442AB
:101D60000F4611D1039A1368049A13400F460BD003
:101D7000069F3F06BB4202D1A3020F4604D5029A3A
:101D800013689B055F0B0F43059C63695B0233403F
:101D9000DB1983620095019A2A43C261079D7A1973
:101DA0002746A3695B023340D218C2622268089CAE
:101DB00022420B4620D015460196039A1368049AD6
:101DC00013400A240F273F02FC373F02002B0AD0A2
:101DD000069A1206934201D1AA0204D509240727C4
:101DE0003F02FE373F02029A1368A3403B400B4379
:101DF000059F089C079D019E7A6A52023240D218C4
:101E000002635A19BB6A5B023340D21842633B68D3
:101E10002342354602D10B46009C1EE0039A14680B
:101E2000049A14400A260F273F02FC373F02002C79
:101E30000CD0069A12069442009C01D19A0206D553
:101E4000092607273F02FE373F0200E0009C029A66
:101E50001368B3403B400B43059F07997A6B5202CE
:101E60002A40D21882635A18BB6B5B022B40D218EF
:101E7000C2630F221443C461069A1204396E0A40E9
:101E80000264CAB24264090DC9B2816409B0F0BDEE
:101E900080B57D20C000FFF7F7FA0120C007402180
:101EA0000902023109022031090214310A68024391
:101EB0000A600868C043C00F80BDF0B585B020241B
:101EC00024020034240229342402A4342578012D6C
:101ED00001D1022031E00291019303920490002786
:101EE0006760012626707D20C5002846FFF7CCFAE2
:101EF000002821D1009740273F0202373F022037B8
:101F00003F021437049801280AD1386830433860FA
:101F1000039802990860BFF36F8F0198486003E04F
:101F200002980399FFF790FA2846FFF7ADFA39684F
:101F3000049A91433960009F277005B0F0BD40209E
:101F4000000202300002203000020830C16800297F
:101F500001D400207047452109026731090201318F
:101F6000090223310160CD210902EF3109028931D3
:101F70000902AB310160C068C00F7047F0B58BB08B
:101F80005022120410321202904201D0052300E0C8
:101F900004230B2212078218940A0190820510195B
:101FA0000090042800D30093002740200002023054
:101FB00000021830000203904020000202300002AC
:101FC00018300002803002900A973A463B4605914D
:101FD0000C682046D84000D190E001269E40344055
:101FE00000D184E004940993069203242246BA4067
:101FF000D3434D682A462240501E01280897079374
:1020000010D8019CA0681840C968B9400143A1607C
:10201000E806C00F099988406168B143264601432C
:10202000616004E0032A019E01D122461EE0F068AF
:102030000799084005998968089CA1400143F1600F
:10204000022A13D11C200A9908400F218140099AC5
:10205000D2089200B218166A8E43059C216981400D
:102060003143019E1162656803222A40089FBA40ED
:1020700030680799084010433060A803800F059925
:10208000069A099B049D32D0182010400F268640E6
:1020900003221C469443039B1A19146EB443009EFA
:1020A0008640264316661C684A68D00201D52C4338
:1020B00000E0AC43099B039804604468900201D59A
:1020C0002C4300E0AC4303984460029844689003BA
:1020D00001D52C4300E0AC43029844600468D0036F
:1020E00001D52C4300E0AC43069A02980460BF1C63
:1020F0000A98001D0A9008325B1C69E70BB0F0BD1E
:1021000000690840411E8841704742690B4693436D
:102110000A401104C91881617047002A01D01822B1
:1021200000E0282281507047202000020030000289
:1021300033300002F030006870471F200002FF308B
:102140000002753000029030006870471F200002C6
:10215000FF300002753000029430006870471F2085
:102160000002FF30000275300002983000687047AE
:102170002020000200300002003000020830007809
:10218000202109020031090233310902F0310A68C5
:1021900010180860704710B5012420024021090280
:1021A00002310902203109020A6802430A60022052
:1021B00000F007F8002802D100F02EF80024204695
:1021C00010BD70B5202636020036360200363602C3
:1021D00008363178012400291CD005467D20C00036
:1021E000FDF7E4FF0146202000020030000200302D
:1021F000000230300068FDF7D9FF01F0F2FB032D3B
:1022000008D8002806D10024E0432946224600F0E1
:1022100035F87560204670BDF8B5002003906C203D
:1022200002904020000202300002103000023C30D8
:1022300041680122114341604168114001910199B7
:10224000110702680A430260006808400190019883
:1022500002A800F083FE00F0F0FE0320400201F02F
:10226000B5FB8FBD002808D41F2108400121814003
:10227000E0200004E13000020160704780B503F007
:1022800095FD80BD03F0B1FDB0B5B3218A000021FA
:10229000815403685C6D01252C435C658018856062
:1022A000586D022202435A650846B0BD10B5044677
:1022B000012915D0002924D1E07A00280AD001F0A4
:1022C00000FEE0200004ED3000021030016806221C
:1022D00091430160B7208000205802F086FB10BDBA
:1022E000B7208000205802F0E6FBE07A002808D0F2
:1022F000E0200004ED3000021030016806220A439D
:10230000026010BDB0B528240D0605D5072529406B
:102310004C430019143004E04C4300195521890046
:102320004018002A02D08360012101E0C38000210F
:1023300001730020B0BD80B5B722920083582822D7
:102340004A438018826A184602F00FFA80BD80B5B1
:10235000B7229200835828224A4380182D22D200A7
:102360008258184602F057FA80BD10B507220A407D
:1023700049B2002908D428215143411855239B0014
:10238000C91800234B7005E028215143411801234F
:102390004B7514310A70A5229200835C012B01D188
:1023A000022010BD841801222270006802F04DFF47
:1023B0000020207010BDB0B50F220A4003799A4268
:1023C00001D9012424E007220A4049B2002908D497
:1023D00028215143411855239B00C91800234B70F5
:1023E00005E028215143411801234B751431002485
:1023F0008C700A70A5229200835C012B01D102240B
:1024000006E0851801222A70006802F0BDFF2C70DA
:102410002046B0BD07220A40282151434018172109
:10242000090140587047B0B507240C4049B2002953
:1024300008D42821614341185525AD0049190025CC
:102440004D7005E028216143411801254D75143177
:102450000A61CB700C70022B01D100220A71A522F7
:102460009200835C012B01D10220B0BD84180122AF
:102470002270006802F0AAFD00202070B0BDB0B547
:1024800007240C402821614341185525AD004C55C7
:10249000491900240D4614351CC54C70006802F023
:1024A000DBFF2046B0BD10B507220A4003799A42EF
:1024B00001D9012010BD4BB2002B08D428234B4377
:1024C000C11855239B00C91800234B7005E0282133
:1024D0005143411801234B7514310A7001228A704F
:1024E000A5239B00C45C012C01D1022010BDC4189F
:1024F0002270006802F08CFF0020207010BD70B5C3
:1025000007250D40282169434118382401260E551E
:1025100000248A62CB620C634B634E750D751431D7
:10252000006802F099FF204670BDF0B595B00746EF
:10253000006803F00CFA4021090201310904A031BE
:102540000968490700D4C6E30124010415D4032116
:102550000902FF31491C084200D17FE33868416C11
:10256000FB221202FF320A404264384600F082FC2D
:102570000021384600F0ACFCADE3552080000E9001
:1025800038180890E303A72080003818079020022D
:102590000990E0020B90A0030D900194E0070490D5
:1025A00003200002FF300C90A02000028030039036
:1025B000C02000028030029003200002FF300002A1
:1025C000FF300002FF30069007200002FF300002BB
:1025D0000F3000020F30139007200002FF3000027E
:1025E0003F3000020F300590402000049830000278
:1025F0000F90119712933968486C184200D16AE322
:102600004A6C0F2414404CD0A5004E591E4214961B
:1026100000D132E148190268139B1A40802313430A
:102620000360282060433A180E981718387B00285A
:10263000109200D19DE0FF205830105C022800D09D
:102640009FE05B20800010180A9038780D990E42A8
:1026500000D0C1E001F0D6FA06460A9A1068811B44
:1026600000D200211160B04209D811980068397871
:1026700089004258059B1A40039B5A4042501498C7
:1026800040060AD411980068397889004258139B93
:102690001A40129BC03313434350002E00D082E0F7
:1026A000CDE00868D20621D4139A10401843086080
:1026B000387DC0000F990858000C0C990840386309
:1026C000B96A0818B862002638463146FFF733FE6B
:1026D000129B787C00288ED0F86A00288BD1787CF9
:1026E000802101433868C1647E7484E70B9A1042EC
:1026F0005BD1184200D17EE70868139A104080220F
:1027000002430A60089C207801F090FAE0610028FA
:102710000FD0616900290CD00346E288386803F0C5
:1027200018F9E06961690818606100213846FFF70F
:102730000EFE386801680B9A1142129B00D05AE7CE
:10274000032212031140914200D154E70F9C6168AB
:10275000069A11406160089909693F2900D2DAE1BF
:10276000CA064909002A00D1491E8A066168114338
:1027700008E2387801F05AFA002860D00646FA8854
:1027800056E0387882008B58139E3340129EC03634
:102790001E438E5089580D9A114243D101F032FAEE
:1027A00000284CD006467A8942E0089C207801F047
:1027B0003DFA0346E0613868E288079903F0C9F8FA
:1027C00038680168139A114080220A430260384633
:1027D00000F090FB129B0EE701F001FA06460A9A00
:1027E0001068811B00D200211160B04209D81198F5
:1027F0000068397889004258059B1A40039B5A406B
:102800004250149840060AD511980068397889001A
:102810004258139B1A40129BC03313434350002E5F
:1028200005D10CE001F0DBF9002808D006463A8912
:10283000796911980068334603F08BF800E00026B0
:102840001099F8698019F861786980197861B86918
:10285000002804D0592080000858B04205D93978A2
:10286000119F3846FFF773FD05E0119A106839464D
:10287000174602F0F1FD129B149E300600D4BAE612
:1028800038684159139A1140194341512821614335
:102890007E1837461437F17D01291CD10020F062E3
:1028A0002020305C002800D1EAE0707D14994906B0
:1028B00069D4012800D1D1E0002800D0E0E03878C8
:1028C000C0000F9908184168069A1140416041689C
:1028D000049A1143CAE00999149A0A421AD1397824
:1028E000CA000F9B9A58120C0C9B1A40F36A9C1A50
:1028F00000D20024F462934200D8C2E0B16A891881
:10290000B162316B89183163394602F0A5FD119F20
:10291000129B70E634462C343878510643D401F0CB
:1029200071F921680A1A00D20022226081426BD913
:102930000D99149A0A4209D1119909683A789200BE
:102940008B58139C2340029C23438B503821715C8D
:102950000129119C00D068E1B16A0918B162326B9B
:1029600012183263736A726B344634349A4200D35D
:10297000DBE033463833002A00D10FE10020187025
:10298000206013460DE1012872D0002878D13878F4
:10299000C0000F9B1958069A114019501958049AF3
:1029A000114319506CE001F01AF921680A1A00D29B
:1029B0000022226081423CD90D99149A0A4209D022
:1029C000119909683A7892008B58139C2340029C15
:1029D00023438B503821715C0129119C00D024E1E4
:1029E000B16A0918B162326B12183263746A736B80
:1029F000A34200D39CE03446383400222270002BDE
:102A000000D097E0034698E0707D00283FD0012871
:102A10000F9B149D4FD13978C8001A5892B21A50A2
:102A20001A581A501818426892B2426042684260BE
:102A300042E0707D002847D001280F9B149D57D19C
:102A40003978C8001A5892B21A501A581A501818E1
:102A5000426892B24260426842604AE03878C00000
:102A60000F990818416889B241604168416007E0E8
:102A70003878C0000F9A115889B21150115811506E
:102A80003978119F3846FFF756FC129BB3E5397829
:102A9000C8000F9D2A58069C22402A502A58049BA1
:102AA0001A432A50281842682240426042681A435A
:102AB0004260149D00E03978119C2046FFF73BFCF2
:102AC0000D9805421DD0B0E03978C8000F9D2A58F6
:102AD000069C22402A502A58049B1A432A50281840
:102AE00042682240426042681A434260149D00E0FE
:102AF0003978119C2046FFF71EFC0D98054200D145
:102B000093E02068397889004258139B1A40029B51
:102B10001A43425089E0002933D04A08019B1940EA
:102B2000129B51188A0661682DE0D01A206038E0A7
:102B30001A1B2346304634300260707D012815D0C0
:102B400000285FD13878C0000F9D2A58069C22408B
:102B50002A5028183F2B4AD3DC065A09002C00D1F2
:102B6000521E920604681443049A49E03878C00063
:102B70000F9D2A5892B22A502A581C0414432C50F4
:102B800040E06168049A114361600168059A114050
:102B9000B022120280324A4002602CE500221A70F4
:102BA0000346707D012816D0002838D13878C0003F
:102BB0000F9A10184268069C22404260001D3F2B6D
:102BC00022D3DC065A09002C00D1521E920604685A
:102BD0001443049A21E03878C0000F9A1018426814
:102BE00092B2426042681C041443446017E0002B18
:102BF0002AD01A46019C22405C08A218920604685A
:102C000014430460B28B0BE0002B22D01A46019CC7
:102C100022405C08A2189206046814430460F28BF8
:102C2000119C20689BB202F0CCFE206839788900A4
:102C30004258139B30331340129D2A46B0325A40FB
:102C40002B4642502746D6E40268049C2243026089
:102C5000D8E70268049C22430260E0E7410412D4F2
:102C6000810419D4B32189007A18C10418D401054C
:102C700033D4010641D481054ED4C0052BD5386824
:102C8000416CFE2223E0C020000280308138396888
:102C90004A6C02404A641EE03868416CDF2216E04C
:102CA0003868016C042399430164016C082399433B
:102CB00001641078012804D1002111703846FFF713
:102CC000F5FA384600F0E7F83868416CEF22120256
:102CD000FF320A40426415B0F0BD3868016C08222A
:102CE0000A430264416CF7221202FF320A40426436
:102CF000016C04220A4302640AE0FE210902FF314A
:102D000080313868436C0B404364117800290ED041
:102D1000384600F00FF9DEE73868416CFD221202F8
:102D2000FF320A404264384600F0CBF8D3E7016C2A
:102D300004230B430364016C08230B4303641470E6
:102D4000406D80083C210140516038462146FFF724
:102D5000ADFAC0E7F8B5002842D0044655208500FA
:102D6000A520800026187078002804D1002030703B
:102D7000204600F038F8651903207070206802F0D2
:102D8000F7FA207900210A4690420BD063180027F9
:102D90005F629F62DF62DF751A7501275F752831F8
:102DA000521CF1E70021884209D000222A616A61A1
:102DB000AA61EA7029706A702835491CF3E70FCCC4
:102DC00025780095103C02F0C6FA002565740120B4
:102DD0007070207B012804D12046FFF755FA00E0EF
:102DE00001252846F8BD70B594B0044601A8001D21
:102DF0004821FDF7A6F92068402109045C31090249
:102E0000884235D10124660312962006019001A85C
:102E100000F028F9002801D0FEF7F7FA40252D022E
:102E200002352D0210352D023C35286830432860CC
:102E300028683040009000982868C0000DD424070E
:102E4000286820432860286820400090009800F0FF
:102E5000FEF82868A043286001E000F0F8F8082494
:102E6000032100222046FFF709FA2046FFF7FAF96E
:102E700014B070BDB0B50446C079022801D0FEF789
:102E8000C4FAB72085006059012101F0C8FD6059DE
:102E900001F075FDB0BD10B50446C07A00280AD017
:102EA000E0200004ED30000210300168062291435A
:102EB000016001F006F8B7208000205801F095FD70
:102EC00010BD80B5B7218900405801F098FD80BD44
:102ED00010B5A5229200835C012B01D1022010BD08
:102EE0008418417401222270006802F059FD00200C
:102EF000207010BD80B5B72189004258A7218900F4
:102F00004118104601F097FD80BDB0B50446A520DC
:102F10008000215C012901D10220B0BD25180120CB
:102F20002870206802F00BFD206802F00DFA0020E6
:102F30002870B0BD10B50446B7208000205801F0BD
:102F4000BAFDE07A002808D0E0200004ED3000024D
:102F50001030016806220A43026010BD10B54021FE
:102F600009047031090204310A687E239A43036818
:102F700013430B6040221202023212021832120274
:102F800080325168FF231B02FE331B02FF331B02FA
:102F9000FF33194051601168194011604021090246
:102FA00002310902183109024C681C404C600C685F
:102FB0001C400C6001231B044068C40302D5146844
:102FC0001C431460840302D554681C435460C20738
:102FD00002D00A681A430A60800702D5486818437D
:102FE0004860002010BD70B50325690240263604F4
:102FF0007036360232688A43024332600121490248
:103000000024884217D12020000200300002003046
:10301000000230300168062048430F210902423186
:1030200009024031FDF7C2F8801C7169490502D5DB
:10303000401EFAD12C46204670BD4020000470305E
:1030400000020430016801220A4302607047012037
:103050008002402109047031090204310A680243E8
:103060000A607047F0B587B0044601210802059058
:10307000A078800740273F0202373F0210373F0207
:103080000C37FF263602FF363602FC363602FF3694
:103090000028049102D4002003904CE00296090716
:1030A000386B0840019006D1386B08433863386BA1
:1030B0000840069006980091402636047036360285
:1030C0003068059908433060FFF72EF805463068F0
:1030D0000599084208D1FFF727F8401B0228F6D9C6
:1030E00003200390029E1FE0032003900102386D2D
:1030F000084011D0216C88420BD0386D0499090426
:103100003A6D0A433A653A6D8A433A650299084036
:103110003865C00700D0D7E0386D029E3040216C82
:1031200001433965002003900198002803D1386BD2
:103130000099884338632068C10705D0B96C032221
:10314000914362680A43BA64810705D5B96C0C22C1
:103150009143A2680A43BA64410705D5B96C30228D
:103160009143E2680A43BA64C10606D50321890285
:10317000BA6C8A4321691143B964C10404D5B96C9E
:10318000314062690A43BA64810506D50321890486
:10319000BA6C8A43A16A1143B964410506D503217B
:1031A0000905BA6C8A43E16A1143B9648206FF21BA
:1031B0000902FF310902CF310902FF31002A04D58B
:1031C000BA6C0A40A3691343BB6402914206049996
:1031D00006D503229203BB6C9343E2691A43BA6497
:1031E000420412D5BA6C3F231B02FF331B02FF338C
:1031F0001B02FF331A40256B2A43BA645A1C9542BE
:1032000003D10A043B6813433B60020305D5BA6C43
:1032100040239A43636B1343BB648B050A06850204
:103220000CD5BD6C9D433146A66B3543BD649E42B3
:103230000E46049902D13D6815433D60184209D0FD
:10324000BB6C9343E56B2B43BB64954202D13B6857
:1032500013433B6003050BD5FB6C0325AB43256A89
:103260002B43FB64012D03D10B043D681D433D60DE
:1032700083040BD5FB6C0C25AB43656A2B43FB64C5
:10328000042D03D10B043D681D433D6010420BD05B
:103290004B03FD6C02990D40616C0D43FD64994236
:1032A00002D139681143396080010AD5F86C304089
:1032B000A16C0843F8640598814202D13868104334
:1032C0003860039807B0F0BDFEF72EFF06461325C1
:1032D0002D028835386D800700D51DE7FEF724FFE5
:1032E000801BA842F6D9FDE6F0B585B00D46012158
:1032F000002800D1CBE00191039040242402023445
:103300002402203424022068072104910840A842A6
:1033100015D220680499884328432060132636027A
:103320008836FEF701FF0746206804990840A84246
:1033300005D0FEF7F9FEC01BB042F5D9A6E0039B0D
:1033400018688107402636020236360210363602E9
:10335000083600290DD5410704D5049909033268C0
:103360000A4332600F21090232688A439968114387
:1033700031600296C0071AD1206804990840A8421B
:1033800028D92068049988432843206013273F02E6
:103390008837FEF7C9FE0646206804990840A8420F
:1033A00018D0FEF7C1FE801BB842F5D96EE0586810
:1033B000032840D881000822120200321202033290
:1033C000120200325158029B8F461946083909688B
:1033D00049053FE0039A10784007029C06D50498FF
:1033E000000321688143D0680843206000F052F850
:1033F000216889093C220A4008210902003109029A
:10340000023109023C3189581F220A40D040202154
:103410000902003109020031090230310860202020
:10342000000200300002003000020C300068FEF79D
:10343000C8FE01462BE0029B596D0AE01946083987
:103440000968890306E0194608390968890101E01D
:10345000996D890701991AD51968049A9143014316
:10346000196013273F028837FEF75EFE0646029872
:1034700000683821014003984068C000814200D1B3
:103480007AE7FEF751FE801BB842F0D903210846C7
:1034900005B0F0BD10B540242402023424021034DB
:1034A0002402083420688006410FF42000022430F2
:1034B0000002002905D0226838210A40082A06D1D6
:1034C00010BD083C21688904490FC84010BD22681E
:1034D0000A40102A10D1616861684906490F491CE9
:1034E000FCF764FE61684904490E48436168490F6E
:1034F000491CFCF75BFE10BD20680840202802D163
:103500000120C00310BD20680840182801D0002009
:1035100010BD7D20000210BDF0B587B00125002848
:1035200000D12CE2049505900078C00740273F02A7
:1035300002373F0210373F02002814D0B968382004
:103540000840F9680325102802D12940032902D038
:10355000082800D0F9E03868800304D50598406851
:10356000002800D1B2E0059B187880074FD4187866
:1035700000070DD5B86838210140182900D0CDE0EA
:10358000386E800704D505988069002800D19DE039
:10359000059A1078400700D59AE01078800600D58B
:1035A000A3E00598046A002C00D1E7E1B86838214F
:1035B0000140102900D018E1012C00D186E0F86804
:1035C00003210140059B5A6A91427FD1702101403D
:1035D0009A6A91427AD17F2109020140DA6A120285
:1035E000914273D11F21490401401A6B91426DD160
:1035F00007214A0602401C465B6B9A4266D1490786
:103600000840A16B8842049D00D1B7E1B7E1B968D9
:1036100038200840F9680325102802D129400229E2
:103620001FD000281DD03868D968002900D114E1C6
:103630000721C90288431969014339600120010249
:103640003A680A433A608402FEF76EFD064638681F
:10365000204200D01FE1FEF767FD801B0228F6D94B
:103660008DE13968490502D5D96800292ED07F211E
:1036700009027A688A43596909021143796000286E
:1036800016D10720C00239688143186908433860A1
:1036900038688004400FF421090224310902C14036
:1036A00020200002003000020030000230300160B3
:1036B0002020000200300002003000020C300068C0
:1036C000FEF77FFD059B002800D150E7049D56E1E1
:1036D000B8683821014020294BD1F86D800700D40B
:1036E0005BE790680028F1D057E738680121CC05E6
:1036F000059AD2698905002A00D18DE00843386017
:10370000FEF712FD05463868204200D049E7FEF773
:103710000BFD401B0228F6D9032530E1386E0599D0
:103720008969002900D187E0012108433866FEF746
:10373000FBFC0646386E800700D529E7FEF7F4FC4F
:10374000801B03250228F5D919E10598416801225B
:1037500054041004814208D005231B04994200D070
:10376000A3E091043A680A433A603968014339603A
:10377000A4E0012002900107F86B0840019006D1F7
:10378000F86B0843F863F86B0840069006980091C0
:1037900040242404703424022068C00513D4029805
:1037A00001022068039108432060FEF7BDFC064635
:1037B00020680399084206D1FEF7B6FC801B03255A
:1037C0000228F5D9DBE005988068132424028834A8
:1037D000012805D005287ED1F86D04210143F96543
:1037E000F86D02990843F8657FE0012529063868DD
:1037F000049188433860FEF797FC0646022C3FD1BF
:1038000003956C06386820427CD0FEF78DFC801B47
:1038100003250228F6D9B2E088433860FEF784FC1D
:1038200006463868204200D1BBE6FEF77DFC801BCF
:1038300003250228F5D9A2E0012188433866FEF766
:1038400073FC0646386E800700D4A1E6FEF76CFCD8
:10385000801B03250228F5D991E001210A0290433B
:1038600038608C02FEF760FC064638682042059BF3
:1038700000D17CE6FEF758FC801B0228F5D97EE0DB
:103880006C06386820426FD0FEF74EFC801B032583
:103890000228F6D973E07F20000279688143059BF6
:1038A000586900020843786061E63B6883433B60E7
:1038B00090043A6882433A60002963D0FEF734FCF2
:1038C00006463868204200D04DE6FEF72DFC801BEE
:1038D0006428F6D953E0F96D029A9143F965F96DC0
:1038E00004229143F965002859D0FEF71DFC0646D5
:1038F000F86D800760D4FEF717FC801B0325A042FB
:10390000F6D93CE0F86811210902C1310902803181
:1039100009028C3101400598426A856AC36A066BC8
:103920000196466B0296806B0A432A4319021143A3
:10393000019A1143029A11430143F96038680499CE
:103940000843386003980007F9680143F960FEF7FF
:10395000EBFB06463868204210D1FEF7E5FB801BE2
:1039600003250228F6D90AE0F868EE210902FE31A3
:103970000902FF310902FC310140F96000252846A7
:1039800007B0F0BDFEF7D0FB06463868204200D1F4
:10399000E9E5FEF7C9FB801B6428F6D9EFE7FEF7DF
:1039A000C3FB0646F86D800706D5FEF7BDFB801BFE
:1039B0000325A042F6D9E2E701980028059A00D035
:1039C000EBE5F86B00998843F863E6E503214902CB
:1039D000402212020132120413688B430343136026
:1039E0007047401E010E01D001207047FF210902DF
:1039F000FF310902FF31E0221204E03212021032DC
:103A00005060E0200004ED300002203003680B40DD
:103A10000321890759180160002090600721116077
:103A20007047FEE710B5002A0DD000234B70440FFD
:103A3000030F052C01D3373300E030330B70891CA2
:103A4000521E0001EFE710BDFFB50025202D0BD061
:103A50004A5D425542194B195C7854709C789470B9
:103A6000DB78D3702D1DF1E7082100230190D02BC6
:103A70004DD007270A460F400393C318D97F9E7F76
:103A80005C7F1D7F042F1CD0002F27D1082000024F
:103A90000030000204300002A830045D0294D70810
:103AA0000824240200342402033424021034009534
:103AB000E55D029C6540009C045D0294415C845D70
:103AC0000EE0082000020030000204300002A8309E
:103AD000415C0291815D045D455D01E002913146EA
:103AE0000198039FC65D6E4020255E555D78654058
:103AF00021241D559C784C4022215C54DC7802998D
:103B00004C4023215C543B463B1D511CAFE7FFBD9D
:103B100082B0402000020230000210300002343037
:103B2000016820221143016001681140019101994F
:103B30000168012211430160006810400090009864
:103B400002B0704780B52020000200300002233010
:103B50000002E83020210902003109020031090287
:103B60001031002200F0DAFD002801D0FDF74DFCF5
:103B7000202000020030000223300002E830202123
:103B800009020031090200310902343100F0B9FFA5
:103B9000002801D0FDF739FC20200002003000028F
:103BA00023300002E83020210902003109020031EF
:103BB0000902D03100F01AFC002801D0FDF725FCE5
:103BC000202000020030000223300002E83000F024
:103BD000BEFF002801D0FDF718FC80BDFEE781B0D4
:103BE0000A2100910099002902D00099491EF8E7A6
:103BF000C000402109049831090240588001800D1D
:103C000001B0704781B00A2100910099002902D0CB
:103C10000099491EF8E7C0004021090498310902C3
:103C2000043140588001800D01B0704781B00A21F5
:103C300000910099002902D00099491EF8E7C000C0
:103C40004021090498310902043140588001800D57
:103C500001B0704780B5022811D001281DD1202065
:103C600000020030000201300002E8300021417102
:103C700001220280C1701C30FCF7B1FF80BD0978C1
:103C8000481E0A4682412020000200300002013016
:103C90000002E8300270002900D080BD1C30FCF723
:103CA00097FF80BD80B50520000701210A46FEF779
:103CB00034FA80BD80B5052000070121FEF725FA02
:103CC00080BDF8B5002824D00E46002921D0054635
:103CD00020273F0200373F0201373F02E83738789C
:103CE000002816D0FFF7E6FFFE807D61BD612878D1
:103CF000411E012959D87A786C78944232D1FF223A
:103D00006240AB78934232D10122022833D0802125
:103D100032E020252D0200352D0201352D02E83537
:103D2000E878012814D12E69A8690078291D00249B
:103D300022462346B0472879012800D191E0032884
:103D400008D0022808D16878401E6870152002E06B
:103D5000002486E01820A8700024EC70AB68A81C32
:103D6000E2437CE0501EA04203D0032471E004240F
:103D70006FE002246DE09102002C04D00524084677
:103D80002043B04265D1E81C14460D4602F0D5F937
:103D90002C43B969CA1C135D525D1202D2188242CB
:103DA00029D17878401C7870087818280ED002281D
:103DB00010D0042816D001282ED17879032821D0DC
:103DC00000280AD10620B870012024E00620B8702F
:103DD000072020E0787900280FD038461C30FCF707
:103DE000F7FE0CE07879022827D0012830D1152081
:103DF000B87002200FE006242BE001207871062025
:103E0000B87009E038461C30FCF7E2FE0620B870B6
:103E100000207870052078710120F870B969087861
:103E2000421ED2B20024022A01D3224601E0FA88BF
:103E3000521F92B2FB68C91C12E00620B870002025
:103E400078700320787138461C30FCF7C8FEE3E731
:103E500008241520B870BB68B81C0021CA43012192
:103E600098472046F8BDF8B52026360200363602BF
:103E700001363602E836314608310DC10127377068
:103E8000009734461C347D20C2000821090200310D
:103E900009025C310902B331002520462B46FCF7AC
:103EA0006EFE2046FCF7A4FE75713780F570F8BDF4
:103EB0007047704780B50120FCF72EFEFEF758F9D9
:103EC00080BDF0B593B004AC204608301821FCF753
:103ED00038F901267002FFF786F8F0061190700499
:103EE00010900F200F9000270E9702250C9530049C
:103EF0000590049603200D90400712902046FFF78E
:103F00000BFB03970297019507200090684629460E
:103F1000FFF7EAF913B0F0BD704710B50A46082064
:103F200000020030000205300002D13020242402BB
:103F300000342402023424022434214600F0C0FB61
:103F4000204610BDF8B505465920C300E818C068E2
:103F500080002C180B2080012758002F23D00F221F
:103F600000910A40142050432E18B069002808D050
:103F7000E95828235343C918496AFCF717F900295F
:103F800013D04120C00038180026C660B121890036
:103F900061580B69002B12D02121090179180068A2
:103FA000009A98470BE0032609E0183630460026B1
:103FB0000660284600993246334600F085FD3046BB
:103FC000F8BD70B50446B520800022589200A218B2
:103FD0000B239B01D258002A14D026188120800080
:103FE0001518204600F051FCA860306880002018A9
:103FF000B12189004058C268286808352946904791
:10400000002070BD032070BDF8B50446812108264C
:10401000360200363602473636025936B04700259A
:10402000258701212046B0472F20C000255282213C
:104030002046B047E564AF2080002618B0698000B4
:1040400020180B218F01C15900290ED0B121890000
:10405000405840688047E419B0698000205800F05B
:10406000ACFFB0698000255035600020F8BD1220FB
:104070000880202000020030000200300002B03032
:104080007047B0B5B52189004158890040180B210F
:1040900089014158002911D0B1229200835800248F
:1040A000002B0CD0012040020D182878FF2806D0E4
:1040B0006A789B689847FF20287000E00324204618
:1040C000B0BD0A2101802020000200300002003033
:1040D0000002C4307047FEB5029020242402003450
:1040E0002402003424026C34822108263602003671
:1040F00036024636360291362046B04701900127F7
:1041000020463946B047054681212046B0470199EF
:10411000002900D08F71002D03D00021697140214A
:104120002971002803D000214171402101714320F1
:1041300002990880202000020030000200300002B6
:104140006C30FEBDFEB5029020242402003424020F
:10415000003424026C3482210826360200363602EE
:104160004636360291362046B04701900127204658
:104170003946B047054681212046B047019A002ABA
:1041800001D0102191717902002D02D029710A0A03
:104190006A71002802D00171090A41714320029915
:1041A00008802020000200300002003000026C3045
:1041B000FEBDFEB502902024240200342402003407
:1041C00024026C3482210826360200363602463636
:1041D000360291362046B0470190012720463946E5
:1041E000B047054681212046B0470199002900D0FB
:1041F0008F71002D03D000216971402129710028A1
:1042000003D00021417140210171432002990880AF
:104210002020000200300002003000026C30FEBDA1
:10422000F0B589B00446AF20800026180120089020
:10423000450228461C3000F0C1FE00283FD007464A
:104240002F20C00020180490812080000690872035
:1042500081003846FBF775FFB069800020180B21FC
:104260008901475007963760207C0290002801950D
:104270002B4600D0402306983818059020464C3035
:10428000039081210225082636020036360249367F
:104290003602553620462A461F46B0473346089E0A
:1042A00026872046314606952A461D463B46A847A6
:1042B00004980680029800280AD0304609E0B069C8
:1042C000800020180B21890100224250022027E0A3
:1042D0001020039F78808221032208232046A847CC
:1042E0000020059D28603E80064607988069800072
:1042F0002018B12189004058006880472E616E6106
:104300002A68002A06980BD0207C0121002802D0C0
:104310004023204601E02046019B00F027FB304669
:1043200009B0F0BD10B50A460820000200300002B6
:1043300005300002DC302024240200342402023440
:1043400024022434214600F0BBF9204610BD04208D
:104350000880202000020030000200300002E4301B
:10436000704710B50A4608200002003000020530F0
:104370000002BE302024240200342402023424022D
:104380002434214600F09CF9204610BD10B50A46A1
:10439000082000020030000205300002A83020246E
:1043A000240200342402023424022434214600F082
:1043B00087F9204610BD10B5B52189004158890004
:1043C00041180B2292018A58002A05D0037C012152
:1043D000002B03D0402302E0032010BD4B028124B8
:1043E000A400125900F0C2FA002010BD002909D023
:1043F000B5229200825892008018B122920081501A
:104400000020704703207047B0B51A2008801F2095
:104410000002FF30000275300002903001688268AF
:10442000541811D0406820252D0200352D0200358A
:104430002D02E835A91C0422FFF7F4FA0A350822F8
:1044400020462946FFF7EEFA2024240200342402F5
:1044500000342402E834A11CAA200002A030000489
:104460000322FFF7DFFA2046B0BDB5229200825842
:10447000920080180B2292018058002804D08122DB
:10448000920081500020704703207047B5239B00A5
:10449000C3589B00C0180B239B01C058002806D0AE
:1044A0004123DB00C01882600160002070470320B8
:1044B0007047FEB50E460546A72080002818816B80
:1044C000890069180B2292018F5802AA00241470E7
:1044D00001AA14800322002F1AD0009233786022A0
:1044E0001A4017D0202A48D1F288002A21D058B289
:1044F000002828D4012040023818402A00D3402246
:104500004270717801702846394600F086F839E02B
:10451000144637E071780B292CD0012932D00A29B2
:104520001FD0002929D10078032826D101A9022211
:104530001CE0B12080000858836870780024314660
:10454000224698471EE0B1208000085883687078A2
:1045500039469847F288072A00D307222846394669
:1045600005E00078032808D102A90122284600F0BE
:1045700073F807E00078032804D02846314600F09D
:1045800042F8009C2046FEBD80B5B5218900415807
:10459000890041180B2292018958002907D0412235
:1045A000D2008918CA68002A03D0012080BD0320E8
:1045B00080BD0122CA608B68C3620A68812100F055
:1045C00083FA002080BD80B55722D20082585268FD
:1045D0009047002800D0032080BD002070470020B5
:1045E000704710B513460A460024214600F0BEF974
:1045F000204610BD10B513460A460024214600F09F
:1046000063FA204610BD10B50446802100F041FA3F
:104610000021204600F03DFA10BDB0B513460A4611
:104620002B21C9004350A524A4000325055141189E
:104630004B600024214600F099F92046B0BD10B52A
:10464000A521890005224250002421462246234606
:1046500000F08CF9204610BD10B513460A46A5217E
:104660008900022444508361C3610024214600F084
:104670002BFA204610BD10B5A52189000422425016
:10468000002421462246234600F01EFA204610BD93
:10469000B0B58278C3781B029B1804780022A3422D
:1046A0000CD9A5B29D4209D2057864194019457804
:1046B000052DF6D185788D42F3D1B0BD1046B0BD41
:1046C000B0B500281BD0002304462578002D02D069
:1046D000641C5B1CF9E7DBB25B009B1C13800322AC
:1046E0004A700B7002220378002B08D0D4B20B550D
:1046F000012323430024CC54921C401CF3E7B0BD9B
:10470000032808D8C1000320000201300002033052
:104710000002C84000E00320C0B2704710B5002876
:104720000FD0A7239B00C31800245C639C62DC614C
:10473000002900D0996102700121197000F0ACF8D5
:1047400010BD032010BD80B55922D2008058FDF75E
:1047500032FEFFF7D5FF80BD80B55922D2008058C8
:10476000FDF703FEFFF7CCFF80BD70B50446A52022
:104770008000261800290DD0307A032849D1706AAC
:104780004269002A45D00020306420469047002826
:104790003FD070BD3068022836D1E069216A884276
:1047A0000DD9431AE361204611461A46FFF722FF4E
:1047B000002120460A460B4600F0D8F824E011D12B
:1047C000A16981420ED3706881420BD20025204638
:1047D00029462A46FFF70EFF7560204629462A46DD
:1047E0002B46E9E7307A032807D1706AC1680029AF
:1047F00003D000203064204688478021204600F006
:1048000048F92046FFF71BFF307B002801D000202D
:104810003073002070BDB0B50446A520800020187C
:1048200000290DD0027A032A2DD1426A9269002A0A
:1048300029D00023036420469047002823D0B0BD30
:10484000016803291FD15721890065182B68696801
:104850008B420AD95B1A2B608B4200D30B46204651
:1048600011461A46FFF7BDFE0DE0017A032907D174
:10487000416A0969002903D0002202642046884762
:104880002046FFF7F8FE0020B0BD80B55922D200C7
:104890008058FDF7BFFD80BDF8B55921CA00202121
:1048A00009020031090226310902C4318150B723BF
:1048B0009B00C85000234B8102244C72CC71082409
:1048C000240208348C80402424045C3424020C60CC
:1048D0008B81CB810B7486180846FEF73BFA0028C3
:1048E00001D0FCF792FD30680024182308273F020E
:1048F00000373F0223373F02053721462246B8479B
:104900003068802158232246B84730688121C0236F
:104910002246B847306801210D022B46103322464B
:10492000B8473068822122462B46B8472046F8BD5A
:104930007F220A40282353435922D2008058C018AE
:1049400049B2002903D4AB214900401800E01630D9
:104950000078704710B514465922D20080581A4684
:104960002346FDF760FDFFF7CBFE10BD10B55924BF
:10497000E4000059FDF783FDFFF7C2FE10BDFEB550
:104980000446A52080002118012202920A72002507
:10499000255065600D610D730B20400120180190BA
:1049A000486A00280AD04268002A07D00021204621
:1049B0009047002801D1054600E003250027402646
:1049C000204639463A463346FFF7C4FF019802991C
:1049D00081800660802120463A463346FFF7BAFFC1
:1049E0000298A08426622846FEBDA7218900425C69
:1049F000042A02D14018417801700020704780B528
:104A0000A7218900425C032A07D14118C9690029FE
:104A100003D0C969002900D08847002080BD0174F7
:104A20000020704780B55922D2008058FEF750FA16
:104A3000FFF766FE80BD70B5044602263602AA3630
:104A40008519284600F049F8A52080000121215051
:104A50002018E9884160A15D1F200840022808D085
:104A600001280BD000280ED12046294600F074F80A
:104A700070BD2046294600F0C8F970BD2046294681
:104A800000F066FA70BD80200140204600F001F879
:104A900070BD80B55922D2008058FDF704FDFFF7A4
:104AA0002FFE80BD80B55921C9004058FEF72DFA70
:104AB000FFF726FE80BDA7218900425C43185A708B
:104AC000042242540020704710B55924E4000059D4
:104AD000FDF715FDFFF714FE10BD0A7802704A7845
:104AE00042708A78CB781B029A1842800A794B79F7
:104AF0001B029A1882808A79C97909028918C180B3
:104B00007047BCB501AA00241480002911D0572297
:104B1000D20085182960E969890040188058C16A67
:104B2000002902D001A88847A861286A401C286291
:104B300000E003242046BCBD80B55722D200825835
:104B4000002A02D01268904780BD002080BD80B549
:104B5000FFF7A8FF80BD0000F8B50E4604460978AF
:104B600060200840A72189006718002810D040283D
:104B700002D0202800D0A8E0B86B80002018572170
:104B8000C900405882682046314690470546A0E05B
:104B90007078092800D998E08000082109020031C6
:104BA0000902033109021C31085887463878401E33
:104BB000022800D989E0F088022800D085E0B86892
:104BC000002800D1B8E00320B7E03878401E022862
:104BD0007BD8708801287BD10025BD60FAE0708801
:104BE000022867D0012870D10120B86064E0B08845
:104BF00000286AD1F088002867D170887F2864D89F
:104C00003978032961D0B870C5B220462946FFF72C
:104C100009FF2046FFF72FFD002D00D1F2E0022012
:104C2000F1E06846002505807088010A491E0E29BA
:104C300000D9C3E0890008221202003212020332B6
:104C40001202443251588F46207CB9690A686FE0DD
:104C5000F088012839D13878411E022930D2002548
:104C6000A560214608310122A4E0708820252D028C
:104C700000352D0202352D02203528700106490E1F
:104C800004D02046FFF7BFFC032522E0C1B23878EC
:104C900003285AD0022873D100290DD06160204624
:104CA000FFF74AFF002800D198E005462046FFF7AD
:104CB000AAFC62E0707938712046FFF7DCFC07E05F
:104CC000032802D1211D01223BE02046FFF79BFC77
:104CD00000252846F8BDF869217C002958D0C16A12
:104CE00057E0C0B2052869D88000082109020031C8
:104CF000090203310902803108588746B8694268C1
:104D000013E0207C002859D1F869416B6846884738
:104D100010E0207C002851D1F869016B6846884773
:104D20000146072039E0B869C269002A46D0207CD4
:104D300069469047014631E00120E06021460C3190
:104D400002222046FFF788FCC2E700293AD06068BB
:104D50008842B1D0C1B22046FFF735FC29786160A6
:104D60002046FFF7E9FE0028A6D005462046FFF7BB
:104D70004AFC21792046FFF726FC02203870A8E77C
:104D80002046FFF740FC29782046FFF71CFC7BE714
:104D9000816A68468847014602204870F0880028EA
:104DA00018D06A461288002A08D0824200D30246F0
:104DB000684602802046FFF74FFC8AE72046FFF74F
:104DC00022FC86E7616002203870002520462946D3
:104DD000FFF7F9FB2046FFF74EFC7AE72046FFF786
:104DE0004AFC03200FE0B86982689EE7B869C26890
:104DF0009BE7B869026998E7B869426995E7B869BD
:104E0000826992E70120387062E7F8B50F460446E0
:104E1000097860200840A7218900651839790028A1
:104E200013D0402801D020286AD12046FFF7D5FBB7
:104E3000002868D10026AE63E8698268002A63D042
:104E400020463946904706465EE0787800280DD027
:104E5000012819D0032853D12878032817D178883E
:104E6000002853D02046FFF706FC4CE05520800078
:104E70002A78032A17D0022A42D14A0640D10906CD
:104E80005ED5214614315CE02878032816D002282C
:104E900036D1480634D02046FFF7FBFD802120465E
:104EA000FFF7F7FD2FE00F230B4014225A43802910
:104EB00019D2A318592292009A5A16E0788800262F
:104EC000002821D14806009103D020460099FFF721
:104ED0003AFC2046FFF7CFFB20460099FFF77DFB09
:104EE000002811D1A6E7A218928C002A08D07F23AF
:104EF0000B4014225A43A718802910D314370FE00F
:104F00002046FFF780FB00263046F8BD4806A9D0B2
:104F1000F8880028A6D12046FFF7BBFDA2E73F187E
:104F20008020084300268028304604D02046FFF722
:104F3000FFFC411E8841386002222046394604E0C9
:104F4000211800260E6002222046FFF785FBDBE7D2
:104F500070B50D46044609786020084003D040280B
:104F600001D020280AD1A720800026183078401EC2
:104F7000022803D8A8880106490E04D02046FFF76E
:104F800042FB002070BDC1B22046FFF728FB01465E
:104F90000320002908D1F1698A68002A04D0002082
:104FA000B063204629469047E9880029EAD10028C5
:104FB000E8D12046FFF75FFBE3E7704720200002BF
:104FC000003000020430000224307047FFB50F7833
:104FD000BA008318825807242402FF34240289343B
:104FE00024028F341440CD78032D03950DD8002270
:104FF0000292AA0008252D0200352D0203352D024C
:105000009835AA589746012206E00122029205E04F
:105010000122920201E0032252021443802636024A
:10502000803634431C601A6807252D02FF352D0297
:105030000F352D020F352A403A4332431A600A7B5E
:10504000002A019605D00398022800952AD0304600
:105050002BE04E784022120498321202FF242402E0
:10506000FF342404002E00D19AE0F80016582640A0
:105070001650C9880324A14314580C4314501868CF
:105080004006019C05D5186828402146403101435F
:10509000196030351A682A400398012800D09FE033
:1050A000224379E08120000280301A68072424021C
:1050B000FF3424020E3424020F34144004431C60D5
:1050C000F80040221204983212028458FF26360259
:1050D000FF363604344084500324E4430F892740CC
:1050E00085583D43855080184268324042604A8965
:1050F0002240446814434460012082031868104031
:105100004A7807210902FF3109023F3109020F31B4
:10511000002A1DD00028009C06D018682040C0221C
:105120001202803202431A6018684006019D05D5BC
:10513000186820402A46403202431A60303418680A
:105140002040039A012A22D02A46203250401FE0F4
:105150000028009C06D018682040C022120280322D
:1051600002431A6018684006019D05D51868204062
:105170002A46403202431A6018680840B0210902EA
:1051800080314140196030341A68224003E02843DE
:1051900018601A680A402A4302981A6004B0F0BDE9
:1051A0002E46FD005219556825405560CC880325D0
:1051B000AC4355682543556054683F25AD06AC4364
:1051C0005460151D09693F290DD3CA064909002AF3
:1051D00000D1491E89062A680A430121C9070DE04A
:1051E00020346240D8E7002905D001220A4049084E
:1051F00089188A0601E00121CA072968114329603C
:105200001968490406D519683140C022120280325B
:105210000A431A60002F0AD0186807210902FF31DB
:1052200009023F3109020F310140A02209E0006864
:1052300007210902FF3109023F3109020F31014004
:10524000B022120280324A40A6E7F0B50A789200F6
:10525000865880184A780B7B802109028031002B08
:1052600020D001239B031E4007231B02FF331B0298
:105270000F331B020F33002A24D0C0252D028035A6
:10528000002E03D002681A402A4302601C463034C4
:105290000268560607221202FF3212023F32120241
:1052A0000F3225E0002A3AD007242402FF342402DA
:1052B0000F3424020F3422463032730629D50B46B0
:1052C000403322E0002E06D002681A40C024240297
:1052D0008034144304601A4630320D464035046869
:1052E000660607242402FF3424023F3424020F34CC
:1052F000002E05D506681E400F464037374307602D
:1053000006681E402E4306600B46056825401D4377
:105310000560036813400B4303600020F0BD730475
:1053200007221202FF3212023F3212020F32002B0A
:10533000EFD5C0231B02803307242402FF3424024C
:105340000F3424020F34E0E70121C903826D0A43C0
:1053500082650020704701210164026C8A43026467
:10536000C907026C8A430264002141640846704701
:10537000016CFF221202FF321202403212027F320F
:105380000A40026400207047B0B50A7B002A3DD174
:105390000A789300C258C0184B78002B17D05406D7
:1053A00080221202A03207231B02FF331B020F339D
:1053B0001B020F33002C05D504681C401546203510
:1053C00025430560C978012920D030331AE0510403
:1053D000B0221202803207231B02FF331B023F332D
:1053E0001B020F3300290DD5016807242402FF3466
:1053F00024020F3424020F340C40C02109028031F2
:105400006118016001681940514001600020B0BD81
:1054100010B54B78002B03D080221202903202E0AC
:10542000902212028032002B07D007231B02FF3389
:105430001B020F331B023F3306E007231B02FF331F
:105440001B023F331B020F330978890044581C406C
:1054500054404450002010BDFEB50D4607464B7821
:10546000012B49D1AB692A69934200D31346287BAB
:1054700080263602803640242404983424020028F2
:1054800068D0286AE978022900D0A5E00093019647
:1054900029788E00BB190297BF5907263602FF36BE
:1054A00036020E3636020F363E40904200D8E7E014
:1054B00081200002803006431E60286A009E801B07
:1054C000286230041A68C900520600D5F4E0625818
:1054D00092B2625062580243625069692A89B3B23B
:1054E00000F06FFA686981196961286A2A69904237
:1054F00000D9FCE00023FBE0287B00283ED0E878C0
:1055000001287CD0022800D0B0E02878002B00D001
:10551000B3E1C10040221204983212028B580324D6
:105520002402FF342402FF342402FF3423408B5032
:105530008E182A690123D90701913F2A029700D2C8
:10554000FFE0D1065709002900D17F1EB906376850
:105550000F434EE1EA886969029737461E469BB2BF
:1055600000F02FFA2878C000215889B22150215824
:1055700032043E46029F0A432250C9E12969AB69C1
:10558000581A00D20020A8612878C20040242404C0
:1055900098342402121954683F25AD06AC43546078
:1055A0008B4200D30B46121DB026360280360721EF
:1055B0000902FF3109023F3109020F313F2B57D356
:1055C000DC065B09002C00D15B1E9B0614681C43A3
:1055D0000123DB07234377E1C01A2862297888007A
:1055E000385842061804C900002A5CD4625892B2A6
:1055F000625062580243625069692A8985E12869CC
:10560000AA69111A00D20021A961824200D3024680
:105610002878B0263602803607210902FF310902B8
:105620003F3109020F31002B00D07BE10196029738
:10563000C30040242404983424021E5903252D025B
:10564000FF352D02FF352D02FF352E401E511F194B
:105650000124E30700933F2A7CD3D6065309002E8A
:1056600000D15B1E9E063B683343E0E00120FEBD97
:10567000002B36D001241C405B081B199B0632E02E
:10568000019A16431E601646C900625892B26250D3
:10569000625803041343635069692A8983B200F096
:1056A00090F9029F34E161184A6892B24A604A68F0
:1056B00002434A60696927E161184A6892B24A6008
:1056C0004A6802434A6069696A89B3B200F079F9AD
:1056D000686981196961286A2A69904243D8002360
:1056E00042E00123DB0714681C4314601AE1831BAA
:1056F000029F019E2B629042009B00D8034668786F
:1057000001285BD0002800D0FEE02878C0002018D7
:1057100042681C463F239B069A4323464260001D75
:105720003F2C00D2D8E01A46DB065209002B00D1EC
:10573000521E9206036813430122D2071A430260E5
:10574000E1E0002A54D0114619405708791889061B
:1057500037684FE0002A69D0134623405608F318F3
:105760009E063B6864E0831B029F019E2B62904271
:10577000009B00D80346687801282BD0002800D071
:105780003BE72878C000225800933F239B069A43AA
:10579000009B225020183F2B00D2A5E00C46194652
:1057A000DB064A09002B00D1521E214692060368EF
:1057B00013430122D2071A430260BEE02878C000DA
:1057C0002018426892B2426042681C461B04134390
:1057D000436098E02878C000225892B222502258A4
:1057E000019119461B04134323500B46019904E70A
:1057F000376801990F433760716821407160341D2B
:105800003F2A0BD3D1065209002900D1521E029F14
:10581000910622680A4301990A432DE0002A27D005
:1058200013405108C9188906226823E03B68009E8E
:105830003343019E3B607B682B407B603D1D3F2ACC
:105840000CD3D3065209002B00D1521E029F9206A0
:105850002B681343009A13432B6063E0002A35D072
:1058600014405208121992062B6813432B6031E042
:10587000226801990A43029F2260EA69B026360233
:10588000803607210902FF3109023F3109020F3139
:10589000002A47D08200BC5840232340640402D42D
:1058A000002B02D03EE0002B3CD0BA18136807242E
:1058B0002402FF3424020F3424020F341C408023BE
:1058C0001B028033E318403313602BE02A68009BEF
:1058D0001A432A60029F25E00122002B0FD01A40B4
:1058E00063089A1892060BE00122002B21D01A407F
:1058F0000C4600994B0821469A1892061AE0D207E6
:1059000003681343036023466A899BB200F059F889
:1059100007210902FF3109020F3109020F3130312D
:105920003036287880003A580A4072403A500020B9
:10593000FEBDD207036813430360009B5DE60021B0
:105940004164BF2212028032026408467047406CF4
:105950007047B0B503201840DB1C9B08002800D01E
:105960005B1E40242404983424021219002B0AD010
:1059700010CA0C70250ECD70250C8D70240A4C7049
:105980005B1E091DF2E7002809D0126800231446A7
:10599000DC400C700833491C401E0404F7D1B0BD34
:1059A000002901D18021C1640020704780B52020EA
:1059B00000020030000226300002C430FCF7B5FDC2
:1059C00080BD70B503201840DB1C9B08002800D068
:1059D0005B1E40242404983424021219002B0DD09D
:1059E0000C784D782D022C198D782D04CE78360642
:1059F00075192C1910C25B1E091DEFE700280AD08B
:105A000000231C460D789D402C430833491C401E42
:105A10000504F7D1146070BD10B50022102A05D01E
:105A20008B5C845C5C408454521CF7E710BD10B55D
:105A300020231B0200331B0207331B024833002ABA
:105A400009D00C784440E4B2A4001C59000A60401C
:105A5000491C521EF3E710BD80B502202021090227
:105A600000310902063109024431FEF7F3F808203B
:105A700000020030000205300002F830FBF780FE23
:105A8000002800D080BDFBF77CFD01460820000205
:105A90000030000205300002F8300022FBF7A7FFBB
:105AA0000028EFD10820000200300002053000027B
:105AB000EA30FBF7EBFD002808D008200002003098
:105AC000000205300002EA30FBF74CFD082000021E
:105AD0000030000205300002F830FBF703FF002819
:105AE000D0D1FBF760FD0146082000020030000223
:105AF00005300002EA300122FBF779FF0028C1D10E
:105B0000082000020030000205300002F830FBF7E8
:105B1000A2FE082000020030000205300002EA3038
:105B2000FBF7F1FF80BD80B5FBF770F80246AA20B5
:105B30000002AA300002AA300002AA3042400A4302
:105B400002D1FBF700FB80BD0021FBF792FBFBF7C6
:105B500023FB80BDFEB517460D46044601200026F6
